{
	"data": {
		"bytecode": {
			"linkReferences": {},
			"object": "6080604052670de0b6b3a76400006007556001600e5f6101000a81548160ff0219169083151502179055506001600e60016101000a81548160ff02191690831515021790555034801562000051575f80fd5b50336040518060400160405280600781526020017f4d79546f6b656e000000000000000000000000000000000000000000000000008152506040518060400160405280600381526020017f4d544b00000000000000000000000000000000000000000000000000000000008152508160039081620000d0919062000645565b508060049081620000e2919062000645565b5050505f73ffffffffffffffffffffffffffffffffffffffff168173ffffffffffffffffffffffffffffffffffffffff160362000158575f6040517f1e4fbdf70000000000000000000000000000000000000000000000000000000081526004016200014f91906200076c565b60405180910390fd5b62000169816200031e60201b60201c565b506001600681905550600160085f7355d398326f99059ff775485246999027b319795573ffffffffffffffffffffffffffffffffffffffff1673ffffffffffffffffffffffffffffffffffffffff1681526020019081526020015f205f6101000a81548160ff021916908315150217905550600160085f738ac76a51cc950d9822d68b83fe1ad97b32cd580d73ffffffffffffffffffffffffffffffffffffffff1673ffffffffffffffffffffffffffffffffffffffff1681526020019081526020015f205f6101000a81548160ff021916908315150217905550601260095f7355d398326f99059ff775485246999027b319795573ffffffffffffffffffffffffffffffffffffffff1673ffffffffffffffffffffffffffffffffffffffff1681526020019081526020015f205f6101000a81548160ff021916908360ff160217905550601260095f738ac76a51cc950d9822d68b83fe1ad97b32cd580d73ffffffffffffffffffffffffffffffffffffffff1673ffffffffffffffffffffffffffffffffffffffff1681526020019081526020015f205f6101000a81548160ff021916908360ff16021790555062000787565b5f60055f9054906101000a900473ffffffffffffffffffffffffffffffffffffffff1690508160055f6101000a81548173ffffffffffffffffffffffffffffffffffffffff021916908373ffffffffffffffffffffffffffffffffffffffff1602179055508173ffffffffffffffffffffffffffffffffffffffff168173ffffffffffffffffffffffffffffffffffffffff167f8be0079c531659141344cd1fd0a4f28419497f9722a3daafe3b4186f6b6457e060405160405180910390a35050565b5f81519050919050565b7f4e487b71000000000000000000000000000000000000000000000000000000005f52604160045260245ffd5b7f4e487b71000000000000000000000000000000000000000000000000000000005f52602260045260245ffd5b5f60028204905060018216806200045d57607f821691505b60208210810362000473576200047262000418565b5b50919050565b5f819050815f5260205f209050919050565b5f6020601f8301049050919050565b5f82821b905092915050565b5f60088302620004d77fffffffffffffffffffffffffffffffffffffffffffffffffffffffffffffffff826200049a565b620004e386836200049a565b95508019841693508086168417925050509392505050565b5f819050919050565b5f819050919050565b5f6200052d620005276200052184620004fb565b62000504565b620004fb565b9050919050565b5f819050919050565b62000548836200050d565b62000560620005578262000534565b848454620004a6565b825550505050565b5f90565b6200057662000568565b620005838184846200053d565b505050565b5b81811015620005aa576200059e5f826200056c565b60018101905062000589565b5050565b601f821115620005f957620005c38162000479565b620005ce846200048b565b81016020851015620005de578190505b620005f6620005ed856200048b565b83018262000588565b50505b505050565b5f82821c905092915050565b5f6200061b5f1984600802620005fe565b1980831691505092915050565b5f6200063583836200060a565b9150826002028217905092915050565b6200065082620003e1565b67ffffffffffffffff8111156200066c576200066b620003eb565b5b62000678825462000445565b62000685828285620005ae565b5f60209050601f831160018114620006bb575f8415620006a6578287015190505b620006b2858262000628565b86555062000721565b601f198416620006cb8662000479565b5f5b82811015620006f457848901518255600182019150602085019450602081019050620006cd565b8683101562000714578489015162000710601f8916826200060a565b8355505b6001600288020188555050505b505050505050565b5f73ffffffffffffffffffffffffffffffffffffffff82169050919050565b5f620007548262000729565b9050919050565b620007668162000748565b82525050565b5f602082019050620007815f8301846200075b565b92915050565b613d7f80620007955f395ff3fe608060405234801561000f575f80fd5b5060043610610292575f3560e01c80638720fbef11610165578063aa15833e116100cc578063dd62ed3e11610085578063dd62ed3e146107e3578063e6801ac714610813578063ee4ce2e214610844578063f2fde38b14610862578063f9428f381461087e578063fdd7c4021461089c57610292565b8063aa15833e1461070d578063b06bea9014610729578063c54e44eb14610759578063c98d230914610777578063cb4b4ff914610795578063d6462bb9146107b357610292565b806395d89b411161011e57806395d89b41146106455780639fd6db1214610663578063a1b140b614610681578063a4f4f8af146106a3578063a5125421146106c1578063a9059cbb146106dd57610292565b80638720fbef1461058157806389a302711461059d5780638da5cb5b146105bb5780638eab0751146105d95780638ee573ac146105f7578063902d55a51461062757610292565b80633dd6d533116102095780636ff1c9bc116101c25780636ff1c9bc146104d357806370a08231146104ef578063715018a61461051f5780637e5cd5c1146105295780637ff9b5961461053357806382dc4a051461055157610292565b80633dd6d533146103fe5780633ff82a061461042e578063497aef281461044a578063504cceac1461047a5780635adca659146104965780636a61e5fc146104b757610292565b806318160ddd1161025b57806318160ddd1461033a5780631ead92cc1461035857806323b872dd146103745780632ab91bba146103a4578063313ce567146103c257806333d4f97c146103e057610292565b806257c4e21461029657806304aa3ba4146102b457806306fdde03146102d0578063095ea7b3146102ee5780630e7afec51461031e575b5f80fd5b61029e6108b8565b6040516102ab9190612cd9565b60405180910390f35b6102ce60048036038101906102c99190612d86565b6108c6565b005b6102d8610a23565b6040516102e59190612e4e565b60405180910390f35b61030860048036038101906103039190612e98565b610ab3565b6040516103159190612ef0565b60405180910390f35b61033860048036038101906103339190612e98565b610ad5565b005b610342610cc4565b60405161034f9190612cd9565b60405180910390f35b610372600480360381019061036d9190612e98565b610ccd565b005b61038e60048036038101906103899190612f09565b610e33565b60405161039b9190612ef0565b60405180910390f35b6103ac610e61565b6040516103b99190612ef0565b60405180910390f35b6103ca610e74565b6040516103d79190612f68565b60405180910390f35b6103e8610e7c565b6040516103f59190612cd9565b60405180910390f35b61041860048036038101906104139190612f81565b610e82565b6040516104259190612cd9565b60405180910390f35b61044860048036038101906104439190612e98565b610e97565b005b610464600480360381019061045f9190612f81565b610ffd565b6040516104719190612cd9565b60405180910390f35b610494600480360381019061048f9190612fac565b611012565b005b61049e611513565b6040516104ae9493929190612fea565b60405180910390f35b6104d160048036038101906104cc919061302d565b611585565b005b6104ed60048036038101906104e89190612f81565b611610565b005b61050960048036038101906105049190612f81565b61175d565b6040516105169190612cd9565b60405180910390f35b6105276117a2565b005b6105316117b5565b005b61053b611804565b6040516105489190612cd9565b60405180910390f35b61056b60048036038101906105669190612f81565b61180a565b6040516105789190612ef0565b60405180910390f35b61059b60048036038101906105969190613082565b611827565b005b6105a561187e565b6040516105b291906130bc565b60405180910390f35b6105c3611896565b6040516105d091906130bc565b60405180910390f35b6105e16118be565b6040516105ee9190612cd9565b60405180910390f35b610611600480360381019061060c9190612f81565b6118c4565b60405161061e9190612f68565b60405180910390f35b61062f6118e1565b60405161063c9190612cd9565b60405180910390f35b61064d6118ef565b60405161065a9190612e4e565b60405180910390f35b61066b61197f565b6040516106789190612ef0565b60405180910390f35b610689611991565b60405161069a9594939291906130d5565b60405180910390f35b6106ab611a9f565b6040516106b89190612cd9565b60405180910390f35b6106db60048036038101906106d69190612f81565b611aa5565b005b6106f760048036038101906106f29190612e98565b611b3b565b6040516107049190612ef0565b60405180910390f35b61072760048036038101906107229190613126565b611b5d565b005b610743600480360381019061073e9190612fac565b612058565b6040516107509190612cd9565b60405180910390f35b610761612197565b60405161076e91906130bc565b60405180910390f35b61077f6121af565b60405161078c9190612cd9565b60405180910390f35b61079d6121b5565b6040516107aa9190612cd9565b60405180910390f35b6107cd60048036038101906107c89190612f81565b6121c3565b6040516107da9190612ef0565b60405180910390f35b6107fd60048036038101906107f8919061318a565b612215565b60405161080a9190612cd9565b60405180910390f35b61082d60048036038101906108289190612f81565b612297565b60405161083b9291906131c8565b60405180910390f35b61084c61231e565b6040516108599190612cd9565b60405180910390f35b61087c60048036038101906108779190612f81565b61232c565b005b6108866123b0565b6040516108939190612cd9565b60405180910390f35b6108b660048036038101906108b19190612e98565b6123be565b005b690a968163f0a57b40000081565b6108ce612524565b5f73ffffffffffffffffffffffffffffffffffffffff168273ffffffffffffffffffffffffffffffffffffffff160361093c576040517f08c379a000000000000000000000000000000000000000000000000000000000815260040161093390613239565b60405180910390fd5b600160085f8473ffffffffffffffffffffffffffffffffffffffff1673ffffffffffffffffffffffffffffffffffffffff1681526020019081526020015f205f6101000a81548160ff0219169083151502179055508060095f8473ffffffffffffffffffffffffffffffffffffffff1673ffffffffffffffffffffffffffffffffffffffff1681526020019081526020015f205f6101000a81548160ff021916908360ff1602179055507f4df6f97cdd81bd985d1fcacd50fc7f6cd5d37bc4c591be7b825bb8281032e6ce8282604051610a17929190613257565b60405180910390a15050565b606060038054610a32906132ab565b80601f0160208091040260200160405190810160405280929190818152602001828054610a5e906132ab565b8015610aa95780601f10610a8057610100808354040283529160200191610aa9565b820191905f5260205f20905b815481529060010190602001808311610a8c57829003601f168201915b5050505050905090565b5f80610abd6125ab565b9050610aca8185856125b2565b600191505092915050565b610add612524565b60085f8373ffffffffffffffffffffffffffffffffffffffff1673ffffffffffffffffffffffffffffffffffffffff1681526020019081526020015f205f9054906101000a900460ff1680610b7157507355d398326f99059ff775485246999027b319795573ffffffffffffffffffffffffffffffffffffffff168273ffffffffffffffffffffffffffffffffffffffff16145b80610bbb5750738ac76a51cc950d9822d68b83fe1ad97b32cd580d73ffffffffffffffffffffffffffffffffffffffff168273ffffffffffffffffffffffffffffffffffffffff16145b610bfa576040517f08c379a0000000000000000000000000000000000000000000000000000000008152600401610bf190613325565b60405180910390fd5b5f8290508073ffffffffffffffffffffffffffffffffffffffff1663a9059cbb610c22611896565b846040518363ffffffff1660e01b8152600401610c40929190613343565b6020604051808303815f875af1158015610c5c573d5f803e3d5ffd5b505050506040513d601f19601f82011682018060405250810190610c80919061337e565b610cbf576040517f08c379a0000000000000000000000000000000000000000000000000000000008152600401610cb6906133f3565b60405180910390fd5b505050565b5f600254905090565b610cd5612524565b600e5f9054906101000a900460ff16610d23576040517f08c379a0000000000000000000000000000000000000000000000000000000008152600401610d1a9061345b565b60405180910390fd5b5f8111610d65576040517f08c379a0000000000000000000000000000000000000000000000000000000008152600401610d5c906134c3565b60405180910390fd5b692a5a058fc295ed00000081600c54610d7e919061350e565b1115610dbf576040517f08c379a0000000000000000000000000000000000000000000000000000000008152600401610db69061358b565b60405180910390fd5b80600c5f828254610dd0919061350e565b92505081905550610de182826125c4565b8173ffffffffffffffffffffffffffffffffffffffff167f85719716ac5bd2744ae7ed3d16702129383049b97123b506320e7a5826ebbbba82604051610e279190612cd9565b60405180910390a25050565b5f80610e3d6125ab565b9050610e4a858285612643565b610e558585856126d6565b60019150509392505050565b600e60019054906101000a900460ff1681565b5f6012905090565b600b5481565b600f602052805f5260405f205f915090505481565b610e9f612524565b600e5f9054906101000a900460ff16610eed576040517f08c379a0000000000000000000000000000000000000000000000000000000008152600401610ee49061345b565b60405180910390fd5b5f8111610f2f576040517f08c379a0000000000000000000000000000000000000000000000000000000008152600401610f26906134c3565b60405180910390fd5b690a968163f0a57b40000081600b54610f48919061350e565b1115610f89576040517f08c379a0000000000000000000000000000000000000000000000000000000008152600401610f80906135f3565b60405180910390fd5b80600b5f828254610f9a919061350e565b92505081905550610fab82826125c4565b8173ffffffffffffffffffffffffffffffffffffffff167f62e341b0a7ecc18e21044c8c3d3841a60f7af9656a59993559a6ebd9d35a4c3682604051610ff19190612cd9565b60405180910390a25050565b6010602052805f5260405f205f915090505481565b61101a6127c6565b600e5f9054906101000a900460ff16611068576040517f08c379a000000000000000000000000000000000000000000000000000000000815260040161105f9061345b565b60405180910390fd5b600e60019054906101000a900460ff166110b7576040517f08c379a00000000000000000000000000000000000000000000000000000000081526004016110ae9061365b565b60405180910390fd5b60085f8273ffffffffffffffffffffffffffffffffffffffff1673ffffffffffffffffffffffffffffffffffffffff1681526020019081526020015f205f9054906101000a900460ff16611140576040517f08c379a0000000000000000000000000000000000000000000000000000000008152600401611137906136c3565b60405180910390fd5b670de0b6b3a764000082101561118b576040517f08c379a00000000000000000000000000000000000000000000000000000000081526004016111829061372b565b60405180910390fd5b69021e19e0c9bab24000008211156111d8576040517f08c379a00000000000000000000000000000000000000000000000000000000081526004016111cf90613793565b60405180910390fd5b69943b1377290cbd80000082600d546111f1919061350e565b1115611232576040517f08c379a0000000000000000000000000000000000000000000000000000000008152600401611229906137fb565b60405180910390fd5b5f670de0b6b3a76400006007548461124a9190613819565b6112549190613887565b90505f60095f8473ffffffffffffffffffffffffffffffffffffffff1673ffffffffffffffffffffffffffffffffffffffff1681526020019081526020015f205f9054906101000a900460ff16905060128160ff16146112dc57670de0b6b3a764000081600a6112c491906139e6565b836112cf9190613819565b6112d99190613887565b91505b5f8390508073ffffffffffffffffffffffffffffffffffffffff166323b872dd3330866040518463ffffffff1660e01b815260040161131d93929190613a30565b6020604051808303815f875af1158015611339573d5f803e3d5ffd5b505050506040513d601f19601f8201168201806040525081019061135d919061337e565b61139c576040517f08c379a000000000000000000000000000000000000000000000000000000000815260040161139390613aaf565b60405180910390fd5b84600d5f8282546113ad919061350e565b9250508190555082600f5f3373ffffffffffffffffffffffffffffffffffffffff1673ffffffffffffffffffffffffffffffffffffffff1681526020019081526020015f205f828254611400919061350e565b925050819055508460105f3373ffffffffffffffffffffffffffffffffffffffff1673ffffffffffffffffffffffffffffffffffffffff1681526020019081526020015f205f828254611453919061350e565b9250508190555061146433866125c4565b3373ffffffffffffffffffffffffffffffffffffffff167f343dc9350f5bb85259f22f5829418937b651fe766b7aa92b0be374d1d086ab5a8686866040516114ae93929190613acd565b60405180910390a23373ffffffffffffffffffffffffffffffffffffffff167fab9980fb1d2916bce9017edd1be458e3f56d0899b3367cb3a8be97483fbe069b866040516114fc9190612cd9565b60405180910390a250505061150f61280c565b5050565b5f805f80600a54690a968163f0a57b40000061152f9190613b02565b9350600b54690a968163f0a57b4000006115499190613b02565b9250600c54692a5a058fc295ed0000006115639190613b02565b9150600d5469943b1377290cbd80000061157d9190613b02565b905090919293565b61158d612524565b5f81116115cf576040517f08c379a00000000000000000000000000000000000000000000000000000000081526004016115c690613b7f565b60405180910390fd5b806007819055507f66cbca4f3c64fecf1dcb9ce094abcf7f68c3450a1d4e3a8e917dd621edb4ebe0816040516116059190612cd9565b60405180910390a150565b611618612524565b5f8190505f8173ffffffffffffffffffffffffffffffffffffffff166370a08231306040518263ffffffff1660e01b815260040161165691906130bc565b602060405180830381865afa158015611671573d5f803e3d5ffd5b505050506040513d601f19601f820116820180604052508101906116959190613bb1565b90508173ffffffffffffffffffffffffffffffffffffffff1663a9059cbb6116bb611896565b836040518363ffffffff1660e01b81526004016116d9929190613343565b6020604051808303815f875af11580156116f5573d5f803e3d5ffd5b505050506040513d601f19601f82011682018060405250810190611719919061337e565b611758576040517f08c379a000000000000000000000000000000000000000000000000000000000815260040161174f906133f3565b60405180910390fd5b505050565b5f805f8373ffffffffffffffffffffffffffffffffffffffff1673ffffffffffffffffffffffffffffffffffffffff1681526020019081526020015f20549050919050565b6117aa612524565b6117b35f612816565b565b6117bd612524565b5f600e5f6101000a81548160ff0219169083151502179055507faf79b4370f6af9d950564bbe6b81f7f0834c003c455db9248f4e55e6bf865eb760405160405180910390a1565b60075481565b6008602052805f5260405f205f915054906101000a900460ff1681565b61182f612524565b80600e60016101000a81548160ff0219169083151502179055508061187b577fe2358c1bbbe554882b05ff1e4ddc330a1e04112517fc35c1065c32340f5176ba60405160405180910390a15b50565b738ac76a51cc950d9822d68b83fe1ad97b32cd580d81565b5f60055f9054906101000a900473ffffffffffffffffffffffffffffffffffffffff16905090565b600c5481565b6009602052805f5260405f205f915054906101000a900460ff1681565b69d3c21bcecceda100000081565b6060600480546118fe906132ab565b80601f016020809104026020016040519081016040528092919081815260200182805461192a906132ab565b80156119755780601f1061194c57610100808354040283529160200191611975565b820191905f5260205f20905b81548152906001019060200180831161195857829003601f168201915b5050505050905090565b600e5f9054906101000a900460ff1681565b5f805f805f61199e610cc4565b94505f690a968163f0a57b400000116119b7575f6119dc565b690a968163f0a57b4000006064600a546119d19190613819565b6119db9190613887565b5b93505f690a968163f0a57b400000116119f5575f611a1a565b690a968163f0a57b4000006064600b54611a0f9190613819565b611a199190613887565b5b92505f692a5a058fc295ed00000011611a33575f611a58565b692a5a058fc295ed0000006064600c54611a4d9190613819565b611a579190613887565b5b91505f69943b1377290cbd80000011611a71575f611a96565b69943b1377290cbd8000006064600d54611a8b9190613819565b611a959190613887565b5b90509091929394565b600d5481565b611aad612524565b5f60085f8373ffffffffffffffffffffffffffffffffffffffff1673ffffffffffffffffffffffffffffffffffffffff1681526020019081526020015f205f6101000a81548160ff0219169083151502179055507f85a3e72f8dd6db3794f93109c3c5f5b79d6112f6979431c45f98b26134b42af281604051611b3091906130bc565b60405180910390a150565b5f80611b456125ab565b9050611b528185856126d6565b600191505092915050565b611b65612524565b611b6d6127c6565b600e5f9054906101000a900460ff16611bbb576040517f08c379a0000000000000000000000000000000000000000000000000000000008152600401611bb29061345b565b60405180910390fd5b600e60019054906101000a900460ff16611c0a576040517f08c379a0000000000000000000000000000000000000000000000000000000008152600401611c019061365b565b60405180910390fd5b60085f8373ffffffffffffffffffffffffffffffffffffffff1673ffffffffffffffffffffffffffffffffffffffff1681526020019081526020015f205f9054906101000a900460ff16611c93576040517f08c379a0000000000000000000000000000000000000000000000000000000008152600401611c8a906136c3565b60405180910390fd5b5f73ffffffffffffffffffffffffffffffffffffffff168473ffffffffffffffffffffffffffffffffffffffff1603611d01576040517f08c379a0000000000000000000000000000000000000000000000000000000008152600401611cf890613c26565b60405180910390fd5b670de0b6b3a7640000831015611d4c576040517f08c379a0000000000000000000000000000000000000000000000000000000008152600401611d439061372b565b60405180910390fd5b69021e19e0c9bab2400000831115611d99576040517f08c379a0000000000000000000000000000000000000000000000000000000008152600401611d9090613793565b60405180910390fd5b69943b1377290cbd80000083600d54611db2919061350e565b1115611df3576040517f08c379a0000000000000000000000000000000000000000000000000000000008152600401611dea906137fb565b60405180910390fd5b5f670de0b6b3a764000060075485611e0b9190613819565b611e159190613887565b90505f60095f8573ffffffffffffffffffffffffffffffffffffffff1673ffffffffffffffffffffffffffffffffffffffff1681526020019081526020015f205f9054906101000a900460ff16905060128160ff1614611e9d57670de0b6b3a764000081600a611e8591906139e6565b83611e909190613819565b611e9a9190613887565b91505b81831015611ee0576040517f08c379a0000000000000000000000000000000000000000000000000000000008152600401611ed790613c8e565b60405180910390fd5b84600d5f828254611ef1919061350e565b9250508190555082600f5f8873ffffffffffffffffffffffffffffffffffffffff1673ffffffffffffffffffffffffffffffffffffffff1681526020019081526020015f205f828254611f44919061350e565b925050819055508460105f8873ffffffffffffffffffffffffffffffffffffffff1673ffffffffffffffffffffffffffffffffffffffff1681526020019081526020015f205f828254611f97919061350e565b92505081905550611fa886866125c4565b8573ffffffffffffffffffffffffffffffffffffffff167f343dc9350f5bb85259f22f5829418937b651fe766b7aa92b0be374d1d086ab5a868686604051611ff293929190613acd565b60405180910390a28573ffffffffffffffffffffffffffffffffffffffff167fab9980fb1d2916bce9017edd1be458e3f56d0899b3367cb3a8be97483fbe069b866040516120409190612cd9565b60405180910390a2505061205261280c565b50505050565b5f60085f8373ffffffffffffffffffffffffffffffffffffffff1673ffffffffffffffffffffffffffffffffffffffff1681526020019081526020015f205f9054906101000a900460ff166120e2576040517f08c379a00000000000000000000000000000000000000000000000000000000081526004016120d9906136c3565b60405180910390fd5b5f670de0b6b3a7640000600754856120fa9190613819565b6121049190613887565b90505f60095f8573ffffffffffffffffffffffffffffffffffffffff1673ffffffffffffffffffffffffffffffffffffffff1681526020019081526020015f205f9054906101000a900460ff16905060128160ff161461218c57670de0b6b3a764000081600a61217491906139e6565b8361217f9190613819565b6121899190613887565b91505b819250505092915050565b7355d398326f99059ff775485246999027b319795581565b600a5481565b690a968163f0a57b40000081565b5f60085f8373ffffffffffffffffffffffffffffffffffffffff1673ffffffffffffffffffffffffffffffffffffffff1681526020019081526020015f205f9054906101000a900460ff169050919050565b5f60015f8473ffffffffffffffffffffffffffffffffffffffff1673ffffffffffffffffffffffffffffffffffffffff1681526020019081526020015f205f8373ffffffffffffffffffffffffffffffffffffffff1673ffffffffffffffffffffffffffffffffffffffff1681526020019081526020015f2054905092915050565b5f8060105f8473ffffffffffffffffffffffffffffffffffffffff1673ffffffffffffffffffffffffffffffffffffffff1681526020019081526020015f20549150600f5f8473ffffffffffffffffffffffffffffffffffffffff1673ffffffffffffffffffffffffffffffffffffffff1681526020019081526020015f20549050915091565b69943b1377290cbd80000081565b612334612524565b5f73ffffffffffffffffffffffffffffffffffffffff168173ffffffffffffffffffffffffffffffffffffffff16036123a4575f6040517f1e4fbdf700000000000000000000000000000000000000000000000000000000815260040161239b91906130bc565b60405180910390fd5b6123ad81612816565b50565b692a5a058fc295ed00000081565b6123c6612524565b600e5f9054906101000a900460ff16612414576040517f08c379a000000000000000000000000000000000000000000000000000000000815260040161240b9061345b565b60405180910390fd5b5f8111612456576040517f08c379a000000000000000000000000000000000000000000000000000000000815260040161244d906134c3565b60405180910390fd5b690a968163f0a57b40000081600a5461246f919061350e565b11156124b0576040517f08c379a00000000000000000000000000000000000000000000000000000000081526004016124a790613cf6565b60405180910390fd5b80600a5f8282546124c1919061350e565b925050819055506124d282826125c4565b8173ffffffffffffffffffffffffffffffffffffffff167fef1585cd9743b170e77a247f0c35cd842dbb8b59cb1981becbc26f7ec1a7fc56826040516125189190612cd9565b60405180910390a25050565b61252c6125ab565b73ffffffffffffffffffffffffffffffffffffffff1661254a611896565b73ffffffffffffffffffffffffffffffffffffffff16146125a95761256d6125ab565b6040517f118cdaa70000000000000000000000000000000000000000000000000000000081526004016125a091906130bc565b60405180910390fd5b565b5f33905090565b6125bf83838360016128d9565b505050565b5f73ffffffffffffffffffffffffffffffffffffffff168273ffffffffffffffffffffffffffffffffffffffff1603612634575f6040517fec442f0500000000000000000000000000000000000000000000000000000000815260040161262b91906130bc565b60405180910390fd5b61263f5f8383612aa8565b5050565b5f61264e8484612215565b90507fffffffffffffffffffffffffffffffffffffffffffffffffffffffffffffffff8110156126d057818110156126c1578281836040517ffb8f41b20000000000000000000000000000000000000000000000000000000081526004016126b893929190613d14565b60405180910390fd5b6126cf84848484035f6128d9565b5b50505050565b5f73ffffffffffffffffffffffffffffffffffffffff168373ffffffffffffffffffffffffffffffffffffffff1603612746575f6040517f96c6fd1e00000000000000000000000000000000000000000000000000000000815260040161273d91906130bc565b60405180910390fd5b5f73ffffffffffffffffffffffffffffffffffffffff168273ffffffffffffffffffffffffffffffffffffffff16036127b6575f6040517fec442f050000000000000000000000000000000000000000000000000000000081526004016127ad91906130bc565b60405180910390fd5b6127c1838383612aa8565b505050565b600260065403612802576040517f3ee5aeb500000000000000000000000000000000000000000000000000000000815260040160405180910390fd5b6002600681905550565b6001600681905550565b5f60055f9054906101000a900473ffffffffffffffffffffffffffffffffffffffff1690508160055f6101000a81548173ffffffffffffffffffffffffffffffffffffffff021916908373ffffffffffffffffffffffffffffffffffffffff1602179055508173ffffffffffffffffffffffffffffffffffffffff168173ffffffffffffffffffffffffffffffffffffffff167f8be0079c531659141344cd1fd0a4f28419497f9722a3daafe3b4186f6b6457e060405160405180910390a35050565b5f73ffffffffffffffffffffffffffffffffffffffff168473ffffffffffffffffffffffffffffffffffffffff1603612949575f6040517fe602df0500000000000000000000000000000000000000000000000000000000815260040161294091906130bc565b60405180910390fd5b5f73ffffffffffffffffffffffffffffffffffffffff168373ffffffffffffffffffffffffffffffffffffffff16036129b9575f6040517f94280d620000000000000000000000000000000000000000000000000000000081526004016129b091906130bc565b60405180910390fd5b8160015f8673ffffffffffffffffffffffffffffffffffffffff1673ffffffffffffffffffffffffffffffffffffffff1681526020019081526020015f205f8573ffffffffffffffffffffffffffffffffffffffff1673ffffffffffffffffffffffffffffffffffffffff1681526020019081526020015f20819055508015612aa2578273ffffffffffffffffffffffffffffffffffffffff168473ffffffffffffffffffffffffffffffffffffffff167f8c5be1e5ebec7d5bd14f71427d1e84f3dd0314c0f7b2291e5b200ac8c7c3b92584604051612a999190612cd9565b60405180910390a35b50505050565b5f73ffffffffffffffffffffffffffffffffffffffff168373ffffffffffffffffffffffffffffffffffffffff1603612af8578060025f828254612aec919061350e565b92505081905550612bc6565b5f805f8573ffffffffffffffffffffffffffffffffffffffff1673ffffffffffffffffffffffffffffffffffffffff1681526020019081526020015f2054905081811015612b81578381836040517fe450d38c000000000000000000000000000000000000000000000000000000008152600401612b7893929190613d14565b60405180910390fd5b8181035f808673ffffffffffffffffffffffffffffffffffffffff1673ffffffffffffffffffffffffffffffffffffffff1681526020019081526020015f2081905550505b5f73ffffffffffffffffffffffffffffffffffffffff168273ffffffffffffffffffffffffffffffffffffffff1603612c0d578060025f8282540392505081905550612c57565b805f808473ffffffffffffffffffffffffffffffffffffffff1673ffffffffffffffffffffffffffffffffffffffff1681526020019081526020015f205f82825401925050819055505b8173ffffffffffffffffffffffffffffffffffffffff168373ffffffffffffffffffffffffffffffffffffffff167fddf252ad1be2c89b69c2b068fc378daa952ba7f163c4a11628f55a4df523b3ef83604051612cb49190612cd9565b60405180910390a3505050565b5f819050919050565b612cd381612cc1565b82525050565b5f602082019050612cec5f830184612cca565b92915050565b5f80fd5b5f73ffffffffffffffffffffffffffffffffffffffff82169050919050565b5f612d1f82612cf6565b9050919050565b612d2f81612d15565b8114612d39575f80fd5b50565b5f81359050612d4a81612d26565b92915050565b5f60ff82169050919050565b612d6581612d50565b8114612d6f575f80fd5b50565b5f81359050612d8081612d5c565b92915050565b5f8060408385031215612d9c57612d9b612cf2565b5b5f612da985828601612d3c565b9250506020612dba85828601612d72565b9150509250929050565b5f81519050919050565b5f82825260208201905092915050565b5f5b83811015612dfb578082015181840152602081019050612de0565b5f8484015250505050565b5f601f19601f8301169050919050565b5f612e2082612dc4565b612e2a8185612dce565b9350612e3a818560208601612dde565b612e4381612e06565b840191505092915050565b5f6020820190508181035f830152612e668184612e16565b905092915050565b612e7781612cc1565b8114612e81575f80fd5b50565b5f81359050612e9281612e6e565b92915050565b5f8060408385031215612eae57612ead612cf2565b5b5f612ebb85828601612d3c565b9250506020612ecc85828601612e84565b9150509250929050565b5f8115159050919050565b612eea81612ed6565b82525050565b5f602082019050612f035f830184612ee1565b92915050565b5f805f60608486031215612f2057612f1f612cf2565b5b5f612f2d86828701612d3c565b9350506020612f3e86828701612d3c565b9250506040612f4f86828701612e84565b9150509250925092565b612f6281612d50565b82525050565b5f602082019050612f7b5f830184612f59565b92915050565b5f60208284031215612f9657612f95612cf2565b5b5f612fa384828501612d3c565b91505092915050565b5f8060408385031215612fc257612fc1612cf2565b5b5f612fcf85828601612e84565b9250506020612fe085828601612d3c565b9150509250929050565b5f608082019050612ffd5f830187612cca565b61300a6020830186612cca565b6130176040830185612cca565b6130246060830184612cca565b95945050505050565b5f6020828403121561304257613041612cf2565b5b5f61304f84828501612e84565b91505092915050565b61306181612ed6565b811461306b575f80fd5b50565b5f8135905061307c81613058565b92915050565b5f6020828403121561309757613096612cf2565b5b5f6130a48482850161306e565b91505092915050565b6130b681612d15565b82525050565b5f6020820190506130cf5f8301846130ad565b92915050565b5f60a0820190506130e85f830188612cca565b6130f56020830187612cca565b6131026040830186612cca565b61310f6060830185612cca565b61311c6080830184612cca565b9695505050505050565b5f805f806080858703121561313e5761313d612cf2565b5b5f61314b87828801612d3c565b945050602061315c87828801612e84565b935050604061316d87828801612d3c565b925050606061317e87828801612e84565b91505092959194509250565b5f80604083850312156131a05761319f612cf2565b5b5f6131ad85828601612d3c565b92505060206131be85828601612d3c565b9150509250929050565b5f6040820190506131db5f830185612cca565b6131e86020830184612cca565b9392505050565b7f496e76616c696420746f6b656e206164647265737300000000000000000000005f82015250565b5f613223601583612dce565b915061322e826131ef565b602082019050919050565b5f6020820190508181035f83015261325081613217565b9050919050565b5f60408201905061326a5f8301856130ad565b6132776020830184612f59565b9392505050565b7f4e487b71000000000000000000000000000000000000000000000000000000005f52602260045260245ffd5b5f60028204905060018216806132c257607f821691505b6020821081036132d5576132d461327e565b5b50919050565b7f496e76616c696420746f6b656e000000000000000000000000000000000000005f82015250565b5f61330f600d83612dce565b915061331a826132db565b602082019050919050565b5f6020820190508181035f83015261333c81613303565b9050919050565b5f6040820190506133565f8301856130ad565b6133636020830184612cca565b9392505050565b5f8151905061337881613058565b92915050565b5f6020828403121561339357613392612cf2565b5b5f6133a08482850161336a565b91505092915050565b7f5472616e73666572206661696c656400000000000000000000000000000000005f82015250565b5f6133dd600f83612dce565b91506133e8826133a9565b602082019050919050565b5f6020820190508181035f83015261340a816133d1565b9050919050565b7f4d696e74696e672064697361626c6564000000000000000000000000000000005f82015250565b5f613445601083612dce565b915061345082613411565b602082019050919050565b5f6020820190508181035f83015261347281613439565b9050919050565b7f416d6f756e74206d757374206265203e203000000000000000000000000000005f82015250565b5f6134ad601283612dce565b91506134b882613479565b602082019050919050565b5f6020820190508181035f8301526134da816134a1565b9050919050565b7f4e487b71000000000000000000000000000000000000000000000000000000005f52601160045260245ffd5b5f61351882612cc1565b915061352383612cc1565b925082820190508082111561353b5761353a6134e1565b5b92915050565b7f45786365656473206c697175696469747920616c6c6f636174696f6e000000005f82015250565b5f613575601c83612dce565b915061358082613541565b602082019050919050565b5f6020820190508181035f8301526135a281613569565b9050919050565b7f45786365656473204241594320616c6c6f636174696f6e0000000000000000005f82015250565b5f6135dd601783612dce565b91506135e8826135a9565b602082019050919050565b5f6020820190508181035f83015261360a816135d1565b9050919050565b7f5075626c69632073616c652064697361626c65640000000000000000000000005f82015250565b5f613645601483612dce565b915061365082613611565b602082019050919050565b5f6020820190508181035f83015261367281613639565b9050919050565b7f5061796d656e7420746f6b656e206e6f742061636365707465640000000000005f82015250565b5f6136ad601a83612dce565b91506136b882613679565b602082019050919050565b5f6020820190508181035f8301526136da816136a1565b9050919050565b7f4d696e203120746f6b656e0000000000000000000000000000000000000000005f82015250565b5f613715600b83612dce565b9150613720826136e1565b602082019050919050565b5f6020820190508181035f83015261374281613709565b9050919050565b7f4d61782031302c30303020746f6b656e732070657220707572636861736500005f82015250565b5f61377d601e83612dce565b915061378882613749565b602082019050919050565b5f6020820190508181035f8301526137aa81613771565b9050919050565b7f45786365656473207075626c6963206d696e7420616c6c6f636174696f6e00005f82015250565b5f6137e5601e83612dce565b91506137f0826137b1565b602082019050919050565b5f6020820190508181035f830152613812816137d9565b9050919050565b5f61382382612cc1565b915061382e83612cc1565b925082820261383c81612cc1565b91508282048414831517613853576138526134e1565b5b5092915050565b7f4e487b71000000000000000000000000000000000000000000000000000000005f52601260045260245ffd5b5f61389182612cc1565b915061389c83612cc1565b9250826138ac576138ab61385a565b5b828204905092915050565b5f8160011c9050919050565b5f808291508390505b600185111561390c578086048111156138e8576138e76134e1565b5b60018516156138f75780820291505b8081029050613905856138b7565b94506138cc565b94509492505050565b5f8261392457600190506139df565b81613931575f90506139df565b8160018114613947576002811461395157613980565b60019150506139df565b60ff841115613963576139626134e1565b5b8360020a91508482111561397a576139796134e1565b5b506139df565b5060208310610133831016604e8410600b84101617156139b55782820a9050838111156139b0576139af6134e1565b5b6139df565b6139c284848460016138c3565b925090508184048111156139d9576139d86134e1565b5b81810290505b9392505050565b5f6139f082612cc1565b91506139fb83612d50565b9250613a287fffffffffffffffffffffffffffffffffffffffffffffffffffffffffffffffff8484613915565b905092915050565b5f606082019050613a435f8301866130ad565b613a5060208301856130ad565b613a5d6040830184612cca565b949350505050565b7f5061796d656e74207472616e73666572206661696c65640000000000000000005f82015250565b5f613a99601783612dce565b9150613aa482613a65565b602082019050919050565b5f6020820190508181035f830152613ac681613a8d565b9050919050565b5f606082019050613ae05f830186612cca565b613aed60208301856130ad565b613afa6040830184612cca565b949350505050565b5f613b0c82612cc1565b9150613b1783612cc1565b9250828203905081811115613b2f57613b2e6134e1565b5b92915050565b7f5072696365206d757374206265203e20300000000000000000000000000000005f82015250565b5f613b69601183612dce565b9150613b7482613b35565b602082019050919050565b5f6020820190508181035f830152613b9681613b5d565b9050919050565b5f81519050613bab81612e6e565b92915050565b5f60208284031215613bc657613bc5612cf2565b5b5f613bd384828501613b9d565b91505092915050565b7f496e76616c6964206275796572206164647265737300000000000000000000005f82015250565b5f613c10601583612dce565b9150613c1b82613bdc565b602082019050919050565b5f6020820190508181035f830152613c3d81613c04565b9050919050565b7f496e73756666696369656e74207061796d656e7420616d6f756e7400000000005f82015250565b5f613c78601b83612dce565b9150613c8382613c44565b602082019050919050565b5f6020820190508181035f830152613ca581613c6c565b9050919050565b7f457863656564732061697264726f7020616c6c6f636174696f6e0000000000005f82015250565b5f613ce0601a83612dce565b9150613ceb82613cac565b602082019050919050565b5f6020820190508181035f830152613d0d81613cd4565b9050919050565b5f606082019050613d275f8301866130ad565b613d346020830185612cca565b613d416040830184612cca565b94935050505056fea2646970667358221220f2e1f61e712c63a368bd992abfe56882048f64e480e406e61021082bf0d5d50464736f6c63430008180033",
			"opcodes": "PUSH1 0x80 PUSH1 0x40 MSTORE PUSH8 0xDE0B6B3A7640000 PUSH1 0x7 SSTORE PUSH1 0x1 PUSH1 0xE PUSH0 PUSH2 0x100 EXP DUP2 SLOAD DUP2 PUSH1 0xFF MUL NOT AND SWAP1 DUP4 ISZERO ISZERO MUL OR SWAP1 SSTORE POP PUSH1 0x1 PUSH1 0xE PUSH1 0x1 PUSH2 0x100 EXP DUP2 SLOAD DUP2 PUSH1 0xFF MUL NOT AND SWAP1 DUP4 ISZERO ISZERO MUL OR SWAP1 SSTORE POP CALLVALUE DUP1 ISZERO PUSH3 0x51 JUMPI PUSH0 DUP1 REVERT JUMPDEST POP CALLER PUSH1 0x40 MLOAD DUP1 PUSH1 0x40 ADD PUSH1 0x40 MSTORE DUP1 PUSH1 0x7 DUP2 MSTORE PUSH1 0x20 ADD PUSH32 0x4D79546F6B656E00000000000000000000000000000000000000000000000000 DUP2 MSTORE POP PUSH1 0x40 MLOAD DUP1 PUSH1 0x40 ADD PUSH1 0x40 MSTORE DUP1 PUSH1 0x3 DUP2 MSTORE PUSH1 0x20 ADD PUSH32 0x4D544B0000000000000000000000000000000000000000000000000000000000 DUP2 MSTORE POP DUP2 PUSH1 0x3 SWAP1 DUP2 PUSH3 0xD0 SWAP2 SWAP1 PUSH3 0x645 JUMP JUMPDEST POP DUP1 PUSH1 0x4 SWAP1 DUP2 PUSH3 0xE2 SWAP2 SWAP1 PUSH3 0x645 JUMP JUMPDEST POP POP POP PUSH0 PUSH20 0xFFFFFFFFFFFFFFFFFFFFFFFFFFFFFFFFFFFFFFFF AND DUP2 PUSH20 0xFFFFFFFFFFFFFFFFFFFFFFFFFFFFFFFFFFFFFFFF AND SUB PUSH3 0x158 JUMPI PUSH0 PUSH1 0x40 MLOAD PUSH32 0x1E4FBDF700000000000000000000000000000000000000000000000000000000 DUP2 MSTORE PUSH1 0x4 ADD PUSH3 0x14F SWAP2 SWAP1 PUSH3 0x76C JUMP JUMPDEST PUSH1 0x40 MLOAD DUP1 SWAP2 SUB SWAP1 REVERT JUMPDEST PUSH3 0x169 DUP2 PUSH3 0x31E PUSH1 0x20 SHL PUSH1 0x20 SHR JUMP JUMPDEST POP PUSH1 0x1 PUSH1 0x6 DUP2 SWAP1 SSTORE POP PUSH1 0x1 PUSH1 0x8 PUSH0 PUSH20 0x55D398326F99059FF775485246999027B3197955 PUSH20 0xFFFFFFFFFFFFFFFFFFFFFFFFFFFFFFFFFFFFFFFF AND PUSH20 0xFFFFFFFFFFFFFFFFFFFFFFFFFFFFFFFFFFFFFFFF AND DUP2 MSTORE PUSH1 0x20 ADD SWAP1 DUP2 MSTORE PUSH1 0x20 ADD PUSH0 KECCAK256 PUSH0 PUSH2 0x100 EXP DUP2 SLOAD DUP2 PUSH1 0xFF MUL NOT AND SWAP1 DUP4 ISZERO ISZERO MUL OR SWAP1 SSTORE POP PUSH1 0x1 PUSH1 0x8 PUSH0 PUSH20 0x8AC76A51CC950D9822D68B83FE1AD97B32CD580D PUSH20 0xFFFFFFFFFFFFFFFFFFFFFFFFFFFFFFFFFFFFFFFF AND PUSH20 0xFFFFFFFFFFFFFFFFFFFFFFFFFFFFFFFFFFFFFFFF AND DUP2 MSTORE PUSH1 0x20 ADD SWAP1 DUP2 MSTORE PUSH1 0x20 ADD PUSH0 KECCAK256 PUSH0 PUSH2 0x100 EXP DUP2 SLOAD DUP2 PUSH1 0xFF MUL NOT AND SWAP1 DUP4 ISZERO ISZERO MUL OR SWAP1 SSTORE POP PUSH1 0x12 PUSH1 0x9 PUSH0 PUSH20 0x55D398326F99059FF775485246999027B3197955 PUSH20 0xFFFFFFFFFFFFFFFFFFFFFFFFFFFFFFFFFFFFFFFF AND PUSH20 0xFFFFFFFFFFFFFFFFFFFFFFFFFFFFFFFFFFFFFFFF AND DUP2 MSTORE PUSH1 0x20 ADD SWAP1 DUP2 MSTORE PUSH1 0x20 ADD PUSH0 KECCAK256 PUSH0 PUSH2 0x100 EXP DUP2 SLOAD DUP2 PUSH1 0xFF MUL NOT AND SWAP1 DUP4 PUSH1 0xFF AND MUL OR SWAP1 SSTORE POP PUSH1 0x12 PUSH1 0x9 PUSH0 PUSH20 0x8AC76A51CC950D9822D68B83FE1AD97B32CD580D PUSH20 0xFFFFFFFFFFFFFFFFFFFFFFFFFFFFFFFFFFFFFFFF AND PUSH20 0xFFFFFFFFFFFFFFFFFFFFFFFFFFFFFFFFFFFFFFFF AND DUP2 MSTORE PUSH1 0x20 ADD SWAP1 DUP2 MSTORE PUSH1 0x20 ADD PUSH0 KECCAK256 PUSH0 PUSH2 0x100 EXP DUP2 SLOAD DUP2 PUSH1 0xFF MUL NOT AND SWAP1 DUP4 PUSH1 0xFF AND MUL OR SWAP1 SSTORE POP PUSH3 0x787 JUMP JUMPDEST PUSH0 PUSH1 0x5 PUSH0 SWAP1 SLOAD SWAP1 PUSH2 0x100 EXP SWAP1 DIV PUSH20 0xFFFFFFFFFFFFFFFFFFFFFFFFFFFFFFFFFFFFFFFF AND SWAP1 POP DUP2 PUSH1 0x5 PUSH0 PUSH2 0x100 EXP DUP2 SLOAD DUP2 PUSH20 0xFFFFFFFFFFFFFFFFFFFFFFFFFFFFFFFFFFFFFFFF MUL NOT AND SWAP1 DUP4 PUSH20 0xFFFFFFFFFFFFFFFFFFFFFFFFFFFFFFFFFFFFFFFF AND MUL OR SWAP1 SSTORE POP DUP2 PUSH20 0xFFFFFFFFFFFFFFFFFFFFFFFFFFFFFFFFFFFFFFFF AND DUP2 PUSH20 0xFFFFFFFFFFFFFFFFFFFFFFFFFFFFFFFFFFFFFFFF AND PUSH32 0x8BE0079C531659141344CD1FD0A4F28419497F9722A3DAAFE3B4186F6B6457E0 PUSH1 0x40 MLOAD PUSH1 0x40 MLOAD DUP1 SWAP2 SUB SWAP1 LOG3 POP POP JUMP JUMPDEST PUSH0 DUP2 MLOAD SWAP1 POP SWAP2 SWAP1 POP JUMP JUMPDEST PUSH32 0x4E487B7100000000000000000000000000000000000000000000000000000000 PUSH0 MSTORE PUSH1 0x41 PUSH1 0x4 MSTORE PUSH1 0x24 PUSH0 REVERT JUMPDEST PUSH32 0x4E487B7100000000000000000000000000000000000000000000000000000000 PUSH0 MSTORE PUSH1 0x22 PUSH1 0x4 MSTORE PUSH1 0x24 PUSH0 REVERT JUMPDEST PUSH0 PUSH1 0x2 DUP3 DIV SWAP1 POP PUSH1 0x1 DUP3 AND DUP1 PUSH3 0x45D JUMPI PUSH1 0x7F DUP3 AND SWAP2 POP JUMPDEST PUSH1 0x20 DUP3 LT DUP2 SUB PUSH3 0x473 JUMPI PUSH3 0x472 PUSH3 0x418 JUMP JUMPDEST JUMPDEST POP SWAP2 SWAP1 POP JUMP JUMPDEST PUSH0 DUP2 SWAP1 POP DUP2 PUSH0 MSTORE PUSH1 0x20 PUSH0 KECCAK256 SWAP1 POP SWAP2 SWAP1 POP JUMP JUMPDEST PUSH0 PUSH1 0x20 PUSH1 0x1F DUP4 ADD DIV SWAP1 POP SWAP2 SWAP1 POP JUMP JUMPDEST PUSH0 DUP3 DUP3 SHL SWAP1 POP SWAP3 SWAP2 POP POP JUMP JUMPDEST PUSH0 PUSH1 0x8 DUP4 MUL PUSH3 0x4D7 PUSH32 0xFFFFFFFFFFFFFFFFFFFFFFFFFFFFFFFFFFFFFFFFFFFFFFFFFFFFFFFFFFFFFFFF DUP3 PUSH3 0x49A JUMP JUMPDEST PUSH3 0x4E3 DUP7 DUP4 PUSH3 0x49A JUMP JUMPDEST SWAP6 POP DUP1 NOT DUP5 AND SWAP4 POP DUP1 DUP7 AND DUP5 OR SWAP3 POP POP POP SWAP4 SWAP3 POP POP POP JUMP JUMPDEST PUSH0 DUP2 SWAP1 POP SWAP2 SWAP1 POP JUMP JUMPDEST PUSH0 DUP2 SWAP1 POP SWAP2 SWAP1 POP JUMP JUMPDEST PUSH0 PUSH3 0x52D PUSH3 0x527 PUSH3 0x521 DUP5 PUSH3 0x4FB JUMP JUMPDEST PUSH3 0x504 JUMP JUMPDEST PUSH3 0x4FB JUMP JUMPDEST SWAP1 POP SWAP2 SWAP1 POP JUMP JUMPDEST PUSH0 DUP2 SWAP1 POP SWAP2 SWAP1 POP JUMP JUMPDEST PUSH3 0x548 DUP4 PUSH3 0x50D JUMP JUMPDEST PUSH3 0x560 PUSH3 0x557 DUP3 PUSH3 0x534 JUMP JUMPDEST DUP5 DUP5 SLOAD PUSH3 0x4A6 JUMP JUMPDEST DUP3 SSTORE POP POP POP POP JUMP JUMPDEST PUSH0 SWAP1 JUMP JUMPDEST PUSH3 0x576 PUSH3 0x568 JUMP JUMPDEST PUSH3 0x583 DUP2 DUP5 DUP5 PUSH3 0x53D JUMP JUMPDEST POP POP POP JUMP JUMPDEST JUMPDEST DUP2 DUP2 LT ISZERO PUSH3 0x5AA JUMPI PUSH3 0x59E PUSH0 DUP3 PUSH3 0x56C JUMP JUMPDEST PUSH1 0x1 DUP2 ADD SWAP1 POP PUSH3 0x589 JUMP JUMPDEST POP POP JUMP JUMPDEST PUSH1 0x1F DUP3 GT ISZERO PUSH3 0x5F9 JUMPI PUSH3 0x5C3 DUP2 PUSH3 0x479 JUMP JUMPDEST PUSH3 0x5CE DUP5 PUSH3 0x48B JUMP JUMPDEST DUP2 ADD PUSH1 0x20 DUP6 LT ISZERO PUSH3 0x5DE JUMPI DUP2 SWAP1 POP JUMPDEST PUSH3 0x5F6 PUSH3 0x5ED DUP6 PUSH3 0x48B JUMP JUMPDEST DUP4 ADD DUP3 PUSH3 0x588 JUMP JUMPDEST POP POP JUMPDEST POP POP POP JUMP JUMPDEST PUSH0 DUP3 DUP3 SHR SWAP1 POP SWAP3 SWAP2 POP POP JUMP JUMPDEST PUSH0 PUSH3 0x61B PUSH0 NOT DUP5 PUSH1 0x8 MUL PUSH3 0x5FE JUMP JUMPDEST NOT DUP1 DUP4 AND SWAP2 POP POP SWAP3 SWAP2 POP POP JUMP JUMPDEST PUSH0 PUSH3 0x635 DUP4 DUP4 PUSH3 0x60A JUMP JUMPDEST SWAP2 POP DUP3 PUSH1 0x2 MUL DUP3 OR SWAP1 POP SWAP3 SWAP2 POP POP JUMP JUMPDEST PUSH3 0x650 DUP3 PUSH3 0x3E1 JUMP JUMPDEST PUSH8 0xFFFFFFFFFFFFFFFF DUP2 GT ISZERO PUSH3 0x66C JUMPI PUSH3 0x66B PUSH3 0x3EB JUMP JUMPDEST JUMPDEST PUSH3 0x678 DUP3 SLOAD PUSH3 0x445 JUMP JUMPDEST PUSH3 0x685 DUP3 DUP3 DUP6 PUSH3 0x5AE JUMP JUMPDEST PUSH0 PUSH1 0x20 SWAP1 POP PUSH1 0x1F DUP4 GT PUSH1 0x1 DUP2 EQ PUSH3 0x6BB JUMPI PUSH0 DUP5 ISZERO PUSH3 0x6A6 JUMPI DUP3 DUP8 ADD MLOAD SWAP1 POP JUMPDEST PUSH3 0x6B2 DUP6 DUP3 PUSH3 0x628 JUMP JUMPDEST DUP7 SSTORE POP PUSH3 0x721 JUMP JUMPDEST PUSH1 0x1F NOT DUP5 AND PUSH3 0x6CB DUP7 PUSH3 0x479 JUMP JUMPDEST PUSH0 JUMPDEST DUP3 DUP2 LT ISZERO PUSH3 0x6F4 JUMPI DUP5 DUP10 ADD MLOAD DUP3 SSTORE PUSH1 0x1 DUP3 ADD SWAP2 POP PUSH1 0x20 DUP6 ADD SWAP5 POP PUSH1 0x20 DUP2 ADD SWAP1 POP PUSH3 0x6CD JUMP JUMPDEST DUP7 DUP4 LT ISZERO PUSH3 0x714 JUMPI DUP5 DUP10 ADD MLOAD PUSH3 0x710 PUSH1 0x1F DUP10 AND DUP3 PUSH3 0x60A JUMP JUMPDEST DUP4 SSTORE POP JUMPDEST PUSH1 0x1 PUSH1 0x2 DUP9 MUL ADD DUP9 SSTORE POP POP POP JUMPDEST POP POP POP POP POP POP JUMP JUMPDEST PUSH0 PUSH20 0xFFFFFFFFFFFFFFFFFFFFFFFFFFFFFFFFFFFFFFFF DUP3 AND SWAP1 POP SWAP2 SWAP1 POP JUMP JUMPDEST PUSH0 PUSH3 0x754 DUP3 PUSH3 0x729 JUMP JUMPDEST SWAP1 POP SWAP2 SWAP1 POP JUMP JUMPDEST PUSH3 0x766 DUP2 PUSH3 0x748 JUMP JUMPDEST DUP3 MSTORE POP POP JUMP JUMPDEST PUSH0 PUSH1 0x20 DUP3 ADD SWAP1 POP PUSH3 0x781 PUSH0 DUP4 ADD DUP5 PUSH3 0x75B JUMP JUMPDEST SWAP3 SWAP2 POP POP JUMP JUMPDEST PUSH2 0x3D7F DUP1 PUSH3 0x795 PUSH0 CODECOPY PUSH0 RETURN INVALID PUSH1 0x80 PUSH1 0x40 MSTORE CALLVALUE DUP1 ISZERO PUSH2 0xF JUMPI PUSH0 DUP1 REVERT JUMPDEST POP PUSH1 0x4 CALLDATASIZE LT PUSH2 0x292 JUMPI PUSH0 CALLDATALOAD PUSH1 0xE0 SHR DUP1 PUSH4 0x8720FBEF GT PUSH2 0x165 JUMPI DUP1 PUSH4 0xAA15833E GT PUSH2 0xCC JUMPI DUP1 PUSH4 0xDD62ED3E GT PUSH2 0x85 JUMPI DUP1 PUSH4 0xDD62ED3E EQ PUSH2 0x7E3 JUMPI DUP1 PUSH4 0xE6801AC7 EQ PUSH2 0x813 JUMPI DUP1 PUSH4 0xEE4CE2E2 EQ PUSH2 0x844 JUMPI DUP1 PUSH4 0xF2FDE38B EQ PUSH2 0x862 JUMPI DUP1 PUSH4 0xF9428F38 EQ PUSH2 0x87E JUMPI DUP1 PUSH4 0xFDD7C402 EQ PUSH2 0x89C JUMPI PUSH2 0x292 JUMP JUMPDEST DUP1 PUSH4 0xAA15833E EQ PUSH2 0x70D JUMPI DUP1 PUSH4 0xB06BEA90 EQ PUSH2 0x729 JUMPI DUP1 PUSH4 0xC54E44EB EQ PUSH2 0x759 JUMPI DUP1 PUSH4 0xC98D2309 EQ PUSH2 0x777 JUMPI DUP1 PUSH4 0xCB4B4FF9 EQ PUSH2 0x795 JUMPI DUP1 PUSH4 0xD6462BB9 EQ PUSH2 0x7B3 JUMPI PUSH2 0x292 JUMP JUMPDEST DUP1 PUSH4 0x95D89B41 GT PUSH2 0x11E JUMPI DUP1 PUSH4 0x95D89B41 EQ PUSH2 0x645 JUMPI DUP1 PUSH4 0x9FD6DB12 EQ PUSH2 0x663 JUMPI DUP1 PUSH4 0xA1B140B6 EQ PUSH2 0x681 JUMPI DUP1 PUSH4 0xA4F4F8AF EQ PUSH2 0x6A3 JUMPI DUP1 PUSH4 0xA5125421 EQ PUSH2 0x6C1 JUMPI DUP1 PUSH4 0xA9059CBB EQ PUSH2 0x6DD JUMPI PUSH2 0x292 JUMP JUMPDEST DUP1 PUSH4 0x8720FBEF EQ PUSH2 0x581 JUMPI DUP1 PUSH4 0x89A30271 EQ PUSH2 0x59D JUMPI DUP1 PUSH4 0x8DA5CB5B EQ PUSH2 0x5BB JUMPI DUP1 PUSH4 0x8EAB0751 EQ PUSH2 0x5D9 JUMPI DUP1 PUSH4 0x8EE573AC EQ PUSH2 0x5F7 JUMPI DUP1 PUSH4 0x902D55A5 EQ PUSH2 0x627 JUMPI PUSH2 0x292 JUMP JUMPDEST DUP1 PUSH4 0x3DD6D533 GT PUSH2 0x209 JUMPI DUP1 PUSH4 0x6FF1C9BC GT PUSH2 0x1C2 JUMPI DUP1 PUSH4 0x6FF1C9BC EQ PUSH2 0x4D3 JUMPI DUP1 PUSH4 0x70A08231 EQ PUSH2 0x4EF JUMPI DUP1 PUSH4 0x715018A6 EQ PUSH2 0x51F JUMPI DUP1 PUSH4 0x7E5CD5C1 EQ PUSH2 0x529 JUMPI DUP1 PUSH4 0x7FF9B596 EQ PUSH2 0x533 JUMPI DUP1 PUSH4 0x82DC4A05 EQ PUSH2 0x551 JUMPI PUSH2 0x292 JUMP JUMPDEST DUP1 PUSH4 0x3DD6D533 EQ PUSH2 0x3FE JUMPI DUP1 PUSH4 0x3FF82A06 EQ PUSH2 0x42E JUMPI DUP1 PUSH4 0x497AEF28 EQ PUSH2 0x44A JUMPI DUP1 PUSH4 0x504CCEAC EQ PUSH2 0x47A JUMPI DUP1 PUSH4 0x5ADCA659 EQ PUSH2 0x496 JUMPI DUP1 PUSH4 0x6A61E5FC EQ PUSH2 0x4B7 JUMPI PUSH2 0x292 JUMP JUMPDEST DUP1 PUSH4 0x18160DDD GT PUSH2 0x25B JUMPI DUP1 PUSH4 0x18160DDD EQ PUSH2 0x33A JUMPI DUP1 PUSH4 0x1EAD92CC EQ PUSH2 0x358 JUMPI DUP1 PUSH4 0x23B872DD EQ PUSH2 0x374 JUMPI DUP1 PUSH4 0x2AB91BBA EQ PUSH2 0x3A4 JUMPI DUP1 PUSH4 0x313CE567 EQ PUSH2 0x3C2 JUMPI DUP1 PUSH4 0x33D4F97C EQ PUSH2 0x3E0 JUMPI PUSH2 0x292 JUMP JUMPDEST DUP1 PUSH3 0x57C4E2 EQ PUSH2 0x296 JUMPI DUP1 PUSH4 0x4AA3BA4 EQ PUSH2 0x2B4 JUMPI DUP1 PUSH4 0x6FDDE03 EQ PUSH2 0x2D0 JUMPI DUP1 PUSH4 0x95EA7B3 EQ PUSH2 0x2EE JUMPI DUP1 PUSH4 0xE7AFEC5 EQ PUSH2 0x31E JUMPI JUMPDEST PUSH0 DUP1 REVERT JUMPDEST PUSH2 0x29E PUSH2 0x8B8 JUMP JUMPDEST PUSH1 0x40 MLOAD PUSH2 0x2AB SWAP2 SWAP1 PUSH2 0x2CD9 JUMP JUMPDEST PUSH1 0x40 MLOAD DUP1 SWAP2 SUB SWAP1 RETURN JUMPDEST PUSH2 0x2CE PUSH1 0x4 DUP1 CALLDATASIZE SUB DUP2 ADD SWAP1 PUSH2 0x2C9 SWAP2 SWAP1 PUSH2 0x2D86 JUMP JUMPDEST PUSH2 0x8C6 JUMP JUMPDEST STOP JUMPDEST PUSH2 0x2D8 PUSH2 0xA23 JUMP JUMPDEST PUSH1 0x40 MLOAD PUSH2 0x2E5 SWAP2 SWAP1 PUSH2 0x2E4E JUMP JUMPDEST PUSH1 0x40 MLOAD DUP1 SWAP2 SUB SWAP1 RETURN JUMPDEST PUSH2 0x308 PUSH1 0x4 DUP1 CALLDATASIZE SUB DUP2 ADD SWAP1 PUSH2 0x303 SWAP2 SWAP1 PUSH2 0x2E98 JUMP JUMPDEST PUSH2 0xAB3 JUMP JUMPDEST PUSH1 0x40 MLOAD PUSH2 0x315 SWAP2 SWAP1 PUSH2 0x2EF0 JUMP JUMPDEST PUSH1 0x40 MLOAD DUP1 SWAP2 SUB SWAP1 RETURN JUMPDEST PUSH2 0x338 PUSH1 0x4 DUP1 CALLDATASIZE SUB DUP2 ADD SWAP1 PUSH2 0x333 SWAP2 SWAP1 PUSH2 0x2E98 JUMP JUMPDEST PUSH2 0xAD5 JUMP JUMPDEST STOP JUMPDEST PUSH2 0x342 PUSH2 0xCC4 JUMP JUMPDEST PUSH1 0x40 MLOAD PUSH2 0x34F SWAP2 SWAP1 PUSH2 0x2CD9 JUMP JUMPDEST PUSH1 0x40 MLOAD DUP1 SWAP2 SUB SWAP1 RETURN JUMPDEST PUSH2 0x372 PUSH1 0x4 DUP1 CALLDATASIZE SUB DUP2 ADD SWAP1 PUSH2 0x36D SWAP2 SWAP1 PUSH2 0x2E98 JUMP JUMPDEST PUSH2 0xCCD JUMP JUMPDEST STOP JUMPDEST PUSH2 0x38E PUSH1 0x4 DUP1 CALLDATASIZE SUB DUP2 ADD SWAP1 PUSH2 0x389 SWAP2 SWAP1 PUSH2 0x2F09 JUMP JUMPDEST PUSH2 0xE33 JUMP JUMPDEST PUSH1 0x40 MLOAD PUSH2 0x39B SWAP2 SWAP1 PUSH2 0x2EF0 JUMP JUMPDEST PUSH1 0x40 MLOAD DUP1 SWAP2 SUB SWAP1 RETURN JUMPDEST PUSH2 0x3AC PUSH2 0xE61 JUMP JUMPDEST PUSH1 0x40 MLOAD PUSH2 0x3B9 SWAP2 SWAP1 PUSH2 0x2EF0 JUMP JUMPDEST PUSH1 0x40 MLOAD DUP1 SWAP2 SUB SWAP1 RETURN JUMPDEST PUSH2 0x3CA PUSH2 0xE74 JUMP JUMPDEST PUSH1 0x40 MLOAD PUSH2 0x3D7 SWAP2 SWAP1 PUSH2 0x2F68 JUMP JUMPDEST PUSH1 0x40 MLOAD DUP1 SWAP2 SUB SWAP1 RETURN JUMPDEST PUSH2 0x3E8 PUSH2 0xE7C JUMP JUMPDEST PUSH1 0x40 MLOAD PUSH2 0x3F5 SWAP2 SWAP1 PUSH2 0x2CD9 JUMP JUMPDEST PUSH1 0x40 MLOAD DUP1 SWAP2 SUB SWAP1 RETURN JUMPDEST PUSH2 0x418 PUSH1 0x4 DUP1 CALLDATASIZE SUB DUP2 ADD SWAP1 PUSH2 0x413 SWAP2 SWAP1 PUSH2 0x2F81 JUMP JUMPDEST PUSH2 0xE82 JUMP JUMPDEST PUSH1 0x40 MLOAD PUSH2 0x425 SWAP2 SWAP1 PUSH2 0x2CD9 JUMP JUMPDEST PUSH1 0x40 MLOAD DUP1 SWAP2 SUB SWAP1 RETURN JUMPDEST PUSH2 0x448 PUSH1 0x4 DUP1 CALLDATASIZE SUB DUP2 ADD SWAP1 PUSH2 0x443 SWAP2 SWAP1 PUSH2 0x2E98 JUMP JUMPDEST PUSH2 0xE97 JUMP JUMPDEST STOP JUMPDEST PUSH2 0x464 PUSH1 0x4 DUP1 CALLDATASIZE SUB DUP2 ADD SWAP1 PUSH2 0x45F SWAP2 SWAP1 PUSH2 0x2F81 JUMP JUMPDEST PUSH2 0xFFD JUMP JUMPDEST PUSH1 0x40 MLOAD PUSH2 0x471 SWAP2 SWAP1 PUSH2 0x2CD9 JUMP JUMPDEST PUSH1 0x40 MLOAD DUP1 SWAP2 SUB SWAP1 RETURN JUMPDEST PUSH2 0x494 PUSH1 0x4 DUP1 CALLDATASIZE SUB DUP2 ADD SWAP1 PUSH2 0x48F SWAP2 SWAP1 PUSH2 0x2FAC JUMP JUMPDEST PUSH2 0x1012 JUMP JUMPDEST STOP JUMPDEST PUSH2 0x49E PUSH2 0x1513 JUMP JUMPDEST PUSH1 0x40 MLOAD PUSH2 0x4AE SWAP5 SWAP4 SWAP3 SWAP2 SWAP1 PUSH2 0x2FEA JUMP JUMPDEST PUSH1 0x40 MLOAD DUP1 SWAP2 SUB SWAP1 RETURN JUMPDEST PUSH2 0x4D1 PUSH1 0x4 DUP1 CALLDATASIZE SUB DUP2 ADD SWAP1 PUSH2 0x4CC SWAP2 SWAP1 PUSH2 0x302D JUMP JUMPDEST PUSH2 0x1585 JUMP JUMPDEST STOP JUMPDEST PUSH2 0x4ED PUSH1 0x4 DUP1 CALLDATASIZE SUB DUP2 ADD SWAP1 PUSH2 0x4E8 SWAP2 SWAP1 PUSH2 0x2F81 JUMP JUMPDEST PUSH2 0x1610 JUMP JUMPDEST STOP JUMPDEST PUSH2 0x509 PUSH1 0x4 DUP1 CALLDATASIZE SUB DUP2 ADD SWAP1 PUSH2 0x504 SWAP2 SWAP1 PUSH2 0x2F81 JUMP JUMPDEST PUSH2 0x175D JUMP JUMPDEST PUSH1 0x40 MLOAD PUSH2 0x516 SWAP2 SWAP1 PUSH2 0x2CD9 JUMP JUMPDEST PUSH1 0x40 MLOAD DUP1 SWAP2 SUB SWAP1 RETURN JUMPDEST PUSH2 0x527 PUSH2 0x17A2 JUMP JUMPDEST STOP JUMPDEST PUSH2 0x531 PUSH2 0x17B5 JUMP JUMPDEST STOP JUMPDEST PUSH2 0x53B PUSH2 0x1804 JUMP JUMPDEST PUSH1 0x40 MLOAD PUSH2 0x548 SWAP2 SWAP1 PUSH2 0x2CD9 JUMP JUMPDEST PUSH1 0x40 MLOAD DUP1 SWAP2 SUB SWAP1 RETURN JUMPDEST PUSH2 0x56B PUSH1 0x4 DUP1 CALLDATASIZE SUB DUP2 ADD SWAP1 PUSH2 0x566 SWAP2 SWAP1 PUSH2 0x2F81 JUMP JUMPDEST PUSH2 0x180A JUMP JUMPDEST PUSH1 0x40 MLOAD PUSH2 0x578 SWAP2 SWAP1 PUSH2 0x2EF0 JUMP JUMPDEST PUSH1 0x40 MLOAD DUP1 SWAP2 SUB SWAP1 RETURN JUMPDEST PUSH2 0x59B PUSH1 0x4 DUP1 CALLDATASIZE SUB DUP2 ADD SWAP1 PUSH2 0x596 SWAP2 SWAP1 PUSH2 0x3082 JUMP JUMPDEST PUSH2 0x1827 JUMP JUMPDEST STOP JUMPDEST PUSH2 0x5A5 PUSH2 0x187E JUMP JUMPDEST PUSH1 0x40 MLOAD PUSH2 0x5B2 SWAP2 SWAP1 PUSH2 0x30BC JUMP JUMPDEST PUSH1 0x40 MLOAD DUP1 SWAP2 SUB SWAP1 RETURN JUMPDEST PUSH2 0x5C3 PUSH2 0x1896 JUMP JUMPDEST PUSH1 0x40 MLOAD PUSH2 0x5D0 SWAP2 SWAP1 PUSH2 0x30BC JUMP JUMPDEST PUSH1 0x40 MLOAD DUP1 SWAP2 SUB SWAP1 RETURN JUMPDEST PUSH2 0x5E1 PUSH2 0x18BE JUMP JUMPDEST PUSH1 0x40 MLOAD PUSH2 0x5EE SWAP2 SWAP1 PUSH2 0x2CD9 JUMP JUMPDEST PUSH1 0x40 MLOAD DUP1 SWAP2 SUB SWAP1 RETURN JUMPDEST PUSH2 0x611 PUSH1 0x4 DUP1 CALLDATASIZE SUB DUP2 ADD SWAP1 PUSH2 0x60C SWAP2 SWAP1 PUSH2 0x2F81 JUMP JUMPDEST PUSH2 0x18C4 JUMP JUMPDEST PUSH1 0x40 MLOAD PUSH2 0x61E SWAP2 SWAP1 PUSH2 0x2F68 JUMP JUMPDEST PUSH1 0x40 MLOAD DUP1 SWAP2 SUB SWAP1 RETURN JUMPDEST PUSH2 0x62F PUSH2 0x18E1 JUMP JUMPDEST PUSH1 0x40 MLOAD PUSH2 0x63C SWAP2 SWAP1 PUSH2 0x2CD9 JUMP JUMPDEST PUSH1 0x40 MLOAD DUP1 SWAP2 SUB SWAP1 RETURN JUMPDEST PUSH2 0x64D PUSH2 0x18EF JUMP JUMPDEST PUSH1 0x40 MLOAD PUSH2 0x65A SWAP2 SWAP1 PUSH2 0x2E4E JUMP JUMPDEST PUSH1 0x40 MLOAD DUP1 SWAP2 SUB SWAP1 RETURN JUMPDEST PUSH2 0x66B PUSH2 0x197F JUMP JUMPDEST PUSH1 0x40 MLOAD PUSH2 0x678 SWAP2 SWAP1 PUSH2 0x2EF0 JUMP JUMPDEST PUSH1 0x40 MLOAD DUP1 SWAP2 SUB SWAP1 RETURN JUMPDEST PUSH2 0x689 PUSH2 0x1991 JUMP JUMPDEST PUSH1 0x40 MLOAD PUSH2 0x69A SWAP6 SWAP5 SWAP4 SWAP3 SWAP2 SWAP1 PUSH2 0x30D5 JUMP JUMPDEST PUSH1 0x40 MLOAD DUP1 SWAP2 SUB SWAP1 RETURN JUMPDEST PUSH2 0x6AB PUSH2 0x1A9F JUMP JUMPDEST PUSH1 0x40 MLOAD PUSH2 0x6B8 SWAP2 SWAP1 PUSH2 0x2CD9 JUMP JUMPDEST PUSH1 0x40 MLOAD DUP1 SWAP2 SUB SWAP1 RETURN JUMPDEST PUSH2 0x6DB PUSH1 0x4 DUP1 CALLDATASIZE SUB DUP2 ADD SWAP1 PUSH2 0x6D6 SWAP2 SWAP1 PUSH2 0x2F81 JUMP JUMPDEST PUSH2 0x1AA5 JUMP JUMPDEST STOP JUMPDEST PUSH2 0x6F7 PUSH1 0x4 DUP1 CALLDATASIZE SUB DUP2 ADD SWAP1 PUSH2 0x6F2 SWAP2 SWAP1 PUSH2 0x2E98 JUMP JUMPDEST PUSH2 0x1B3B JUMP JUMPDEST PUSH1 0x40 MLOAD PUSH2 0x704 SWAP2 SWAP1 PUSH2 0x2EF0 JUMP JUMPDEST PUSH1 0x40 MLOAD DUP1 SWAP2 SUB SWAP1 RETURN JUMPDEST PUSH2 0x727 PUSH1 0x4 DUP1 CALLDATASIZE SUB DUP2 ADD SWAP1 PUSH2 0x722 SWAP2 SWAP1 PUSH2 0x3126 JUMP JUMPDEST PUSH2 0x1B5D JUMP JUMPDEST STOP JUMPDEST PUSH2 0x743 PUSH1 0x4 DUP1 CALLDATASIZE SUB DUP2 ADD SWAP1 PUSH2 0x73E SWAP2 SWAP1 PUSH2 0x2FAC JUMP JUMPDEST PUSH2 0x2058 JUMP JUMPDEST PUSH1 0x40 MLOAD PUSH2 0x750 SWAP2 SWAP1 PUSH2 0x2CD9 JUMP JUMPDEST PUSH1 0x40 MLOAD DUP1 SWAP2 SUB SWAP1 RETURN JUMPDEST PUSH2 0x761 PUSH2 0x2197 JUMP JUMPDEST PUSH1 0x40 MLOAD PUSH2 0x76E SWAP2 SWAP1 PUSH2 0x30BC JUMP JUMPDEST PUSH1 0x40 MLOAD DUP1 SWAP2 SUB SWAP1 RETURN JUMPDEST PUSH2 0x77F PUSH2 0x21AF JUMP JUMPDEST PUSH1 0x40 MLOAD PUSH2 0x78C SWAP2 SWAP1 PUSH2 0x2CD9 JUMP JUMPDEST PUSH1 0x40 MLOAD DUP1 SWAP2 SUB SWAP1 RETURN JUMPDEST PUSH2 0x79D PUSH2 0x21B5 JUMP JUMPDEST PUSH1 0x40 MLOAD PUSH2 0x7AA SWAP2 SWAP1 PUSH2 0x2CD9 JUMP JUMPDEST PUSH1 0x40 MLOAD DUP1 SWAP2 SUB SWAP1 RETURN JUMPDEST PUSH2 0x7CD PUSH1 0x4 DUP1 CALLDATASIZE SUB DUP2 ADD SWAP1 PUSH2 0x7C8 SWAP2 SWAP1 PUSH2 0x2F81 JUMP JUMPDEST PUSH2 0x21C3 JUMP JUMPDEST PUSH1 0x40 MLOAD PUSH2 0x7DA SWAP2 SWAP1 PUSH2 0x2EF0 JUMP JUMPDEST PUSH1 0x40 MLOAD DUP1 SWAP2 SUB SWAP1 RETURN JUMPDEST PUSH2 0x7FD PUSH1 0x4 DUP1 CALLDATASIZE SUB DUP2 ADD SWAP1 PUSH2 0x7F8 SWAP2 SWAP1 PUSH2 0x318A JUMP JUMPDEST PUSH2 0x2215 JUMP JUMPDEST PUSH1 0x40 MLOAD PUSH2 0x80A SWAP2 SWAP1 PUSH2 0x2CD9 JUMP JUMPDEST PUSH1 0x40 MLOAD DUP1 SWAP2 SUB SWAP1 RETURN JUMPDEST PUSH2 0x82D PUSH1 0x4 DUP1 CALLDATASIZE SUB DUP2 ADD SWAP1 PUSH2 0x828 SWAP2 SWAP1 PUSH2 0x2F81 JUMP JUMPDEST PUSH2 0x2297 JUMP JUMPDEST PUSH1 0x40 MLOAD PUSH2 0x83B SWAP3 SWAP2 SWAP1 PUSH2 0x31C8 JUMP JUMPDEST PUSH1 0x40 MLOAD DUP1 SWAP2 SUB SWAP1 RETURN JUMPDEST PUSH2 0x84C PUSH2 0x231E JUMP JUMPDEST PUSH1 0x40 MLOAD PUSH2 0x859 SWAP2 SWAP1 PUSH2 0x2CD9 JUMP JUMPDEST PUSH1 0x40 MLOAD DUP1 SWAP2 SUB SWAP1 RETURN JUMPDEST PUSH2 0x87C PUSH1 0x4 DUP1 CALLDATASIZE SUB DUP2 ADD SWAP1 PUSH2 0x877 SWAP2 SWAP1 PUSH2 0x2F81 JUMP JUMPDEST PUSH2 0x232C JUMP JUMPDEST STOP JUMPDEST PUSH2 0x886 PUSH2 0x23B0 JUMP JUMPDEST PUSH1 0x40 MLOAD PUSH2 0x893 SWAP2 SWAP1 PUSH2 0x2CD9 JUMP JUMPDEST PUSH1 0x40 MLOAD DUP1 SWAP2 SUB SWAP1 RETURN JUMPDEST PUSH2 0x8B6 PUSH1 0x4 DUP1 CALLDATASIZE SUB DUP2 ADD SWAP1 PUSH2 0x8B1 SWAP2 SWAP1 PUSH2 0x2E98 JUMP JUMPDEST PUSH2 0x23BE JUMP JUMPDEST STOP JUMPDEST PUSH10 0xA968163F0A57B400000 DUP2 JUMP JUMPDEST PUSH2 0x8CE PUSH2 0x2524 JUMP JUMPDEST PUSH0 PUSH20 0xFFFFFFFFFFFFFFFFFFFFFFFFFFFFFFFFFFFFFFFF AND DUP3 PUSH20 0xFFFFFFFFFFFFFFFFFFFFFFFFFFFFFFFFFFFFFFFF AND SUB PUSH2 0x93C JUMPI PUSH1 0x40 MLOAD PUSH32 0x8C379A000000000000000000000000000000000000000000000000000000000 DUP2 MSTORE PUSH1 0x4 ADD PUSH2 0x933 SWAP1 PUSH2 0x3239 JUMP JUMPDEST PUSH1 0x40 MLOAD DUP1 SWAP2 SUB SWAP1 REVERT JUMPDEST PUSH1 0x1 PUSH1 0x8 PUSH0 DUP5 PUSH20 0xFFFFFFFFFFFFFFFFFFFFFFFFFFFFFFFFFFFFFFFF AND PUSH20 0xFFFFFFFFFFFFFFFFFFFFFFFFFFFFFFFFFFFFFFFF AND DUP2 MSTORE PUSH1 0x20 ADD SWAP1 DUP2 MSTORE PUSH1 0x20 ADD PUSH0 KECCAK256 PUSH0 PUSH2 0x100 EXP DUP2 SLOAD DUP2 PUSH1 0xFF MUL NOT AND SWAP1 DUP4 ISZERO ISZERO MUL OR SWAP1 SSTORE POP DUP1 PUSH1 0x9 PUSH0 DUP5 PUSH20 0xFFFFFFFFFFFFFFFFFFFFFFFFFFFFFFFFFFFFFFFF AND PUSH20 0xFFFFFFFFFFFFFFFFFFFFFFFFFFFFFFFFFFFFFFFF AND DUP2 MSTORE PUSH1 0x20 ADD SWAP1 DUP2 MSTORE PUSH1 0x20 ADD PUSH0 KECCAK256 PUSH0 PUSH2 0x100 EXP DUP2 SLOAD DUP2 PUSH1 0xFF MUL NOT AND SWAP1 DUP4 PUSH1 0xFF AND MUL OR SWAP1 SSTORE POP PUSH32 0x4DF6F97CDD81BD985D1FCACD50FC7F6CD5D37BC4C591BE7B825BB8281032E6CE DUP3 DUP3 PUSH1 0x40 MLOAD PUSH2 0xA17 SWAP3 SWAP2 SWAP1 PUSH2 0x3257 JUMP JUMPDEST PUSH1 0x40 MLOAD DUP1 SWAP2 SUB SWAP1 LOG1 POP POP JUMP JUMPDEST PUSH1 0x60 PUSH1 0x3 DUP1 SLOAD PUSH2 0xA32 SWAP1 PUSH2 0x32AB JUMP JUMPDEST DUP1 PUSH1 0x1F ADD PUSH1 0x20 DUP1 SWAP2 DIV MUL PUSH1 0x20 ADD PUSH1 0x40 MLOAD SWAP1 DUP2 ADD PUSH1 0x40 MSTORE DUP1 SWAP3 SWAP2 SWAP1 DUP2 DUP2 MSTORE PUSH1 0x20 ADD DUP3 DUP1 SLOAD PUSH2 0xA5E SWAP1 PUSH2 0x32AB JUMP JUMPDEST DUP1 ISZERO PUSH2 0xAA9 JUMPI DUP1 PUSH1 0x1F LT PUSH2 0xA80 JUMPI PUSH2 0x100 DUP1 DUP4 SLOAD DIV MUL DUP4 MSTORE SWAP2 PUSH1 0x20 ADD SWAP2 PUSH2 0xAA9 JUMP JUMPDEST DUP3 ADD SWAP2 SWAP1 PUSH0 MSTORE PUSH1 0x20 PUSH0 KECCAK256 SWAP1 JUMPDEST DUP2 SLOAD DUP2 MSTORE SWAP1 PUSH1 0x1 ADD SWAP1 PUSH1 0x20 ADD DUP1 DUP4 GT PUSH2 0xA8C JUMPI DUP3 SWAP1 SUB PUSH1 0x1F AND DUP3 ADD SWAP2 JUMPDEST POP POP POP POP POP SWAP1 POP SWAP1 JUMP JUMPDEST PUSH0 DUP1 PUSH2 0xABD PUSH2 0x25AB JUMP JUMPDEST SWAP1 POP PUSH2 0xACA DUP2 DUP6 DUP6 PUSH2 0x25B2 JUMP JUMPDEST PUSH1 0x1 SWAP2 POP POP SWAP3 SWAP2 POP POP JUMP JUMPDEST PUSH2 0xADD PUSH2 0x2524 JUMP JUMPDEST PUSH1 0x8 PUSH0 DUP4 PUSH20 0xFFFFFFFFFFFFFFFFFFFFFFFFFFFFFFFFFFFFFFFF AND PUSH20 0xFFFFFFFFFFFFFFFFFFFFFFFFFFFFFFFFFFFFFFFF AND DUP2 MSTORE PUSH1 0x20 ADD SWAP1 DUP2 MSTORE PUSH1 0x20 ADD PUSH0 KECCAK256 PUSH0 SWAP1 SLOAD SWAP1 PUSH2 0x100 EXP SWAP1 DIV PUSH1 0xFF AND DUP1 PUSH2 0xB71 JUMPI POP PUSH20 0x55D398326F99059FF775485246999027B3197955 PUSH20 0xFFFFFFFFFFFFFFFFFFFFFFFFFFFFFFFFFFFFFFFF AND DUP3 PUSH20 0xFFFFFFFFFFFFFFFFFFFFFFFFFFFFFFFFFFFFFFFF AND EQ JUMPDEST DUP1 PUSH2 0xBBB JUMPI POP PUSH20 0x8AC76A51CC950D9822D68B83FE1AD97B32CD580D PUSH20 0xFFFFFFFFFFFFFFFFFFFFFFFFFFFFFFFFFFFFFFFF AND DUP3 PUSH20 0xFFFFFFFFFFFFFFFFFFFFFFFFFFFFFFFFFFFFFFFF AND EQ JUMPDEST PUSH2 0xBFA JUMPI PUSH1 0x40 MLOAD PUSH32 0x8C379A000000000000000000000000000000000000000000000000000000000 DUP2 MSTORE PUSH1 0x4 ADD PUSH2 0xBF1 SWAP1 PUSH2 0x3325 JUMP JUMPDEST PUSH1 0x40 MLOAD DUP1 SWAP2 SUB SWAP1 REVERT JUMPDEST PUSH0 DUP3 SWAP1 POP DUP1 PUSH20 0xFFFFFFFFFFFFFFFFFFFFFFFFFFFFFFFFFFFFFFFF AND PUSH4 0xA9059CBB PUSH2 0xC22 PUSH2 0x1896 JUMP JUMPDEST DUP5 PUSH1 0x40 MLOAD DUP4 PUSH4 0xFFFFFFFF AND PUSH1 0xE0 SHL DUP2 MSTORE PUSH1 0x4 ADD PUSH2 0xC40 SWAP3 SWAP2 SWAP1 PUSH2 0x3343 JUMP JUMPDEST PUSH1 0x20 PUSH1 0x40 MLOAD DUP1 DUP4 SUB DUP2 PUSH0 DUP8 GAS CALL ISZERO DUP1 ISZERO PUSH2 0xC5C JUMPI RETURNDATASIZE PUSH0 DUP1 RETURNDATACOPY RETURNDATASIZE PUSH0 REVERT JUMPDEST POP POP POP POP PUSH1 0x40 MLOAD RETURNDATASIZE PUSH1 0x1F NOT PUSH1 0x1F DUP3 ADD AND DUP3 ADD DUP1 PUSH1 0x40 MSTORE POP DUP2 ADD SWAP1 PUSH2 0xC80 SWAP2 SWAP1 PUSH2 0x337E JUMP JUMPDEST PUSH2 0xCBF JUMPI PUSH1 0x40 MLOAD PUSH32 0x8C379A000000000000000000000000000000000000000000000000000000000 DUP2 MSTORE PUSH1 0x4 ADD PUSH2 0xCB6 SWAP1 PUSH2 0x33F3 JUMP JUMPDEST PUSH1 0x40 MLOAD DUP1 SWAP2 SUB SWAP1 REVERT JUMPDEST POP POP POP JUMP JUMPDEST PUSH0 PUSH1 0x2 SLOAD SWAP1 POP SWAP1 JUMP JUMPDEST PUSH2 0xCD5 PUSH2 0x2524 JUMP JUMPDEST PUSH1 0xE PUSH0 SWAP1 SLOAD SWAP1 PUSH2 0x100 EXP SWAP1 DIV PUSH1 0xFF AND PUSH2 0xD23 JUMPI PUSH1 0x40 MLOAD PUSH32 0x8C379A000000000000000000000000000000000000000000000000000000000 DUP2 MSTORE PUSH1 0x4 ADD PUSH2 0xD1A SWAP1 PUSH2 0x345B JUMP JUMPDEST PUSH1 0x40 MLOAD DUP1 SWAP2 SUB SWAP1 REVERT JUMPDEST PUSH0 DUP2 GT PUSH2 0xD65 JUMPI PUSH1 0x40 MLOAD PUSH32 0x8C379A000000000000000000000000000000000000000000000000000000000 DUP2 MSTORE PUSH1 0x4 ADD PUSH2 0xD5C SWAP1 PUSH2 0x34C3 JUMP JUMPDEST PUSH1 0x40 MLOAD DUP1 SWAP2 SUB SWAP1 REVERT JUMPDEST PUSH10 0x2A5A058FC295ED000000 DUP2 PUSH1 0xC SLOAD PUSH2 0xD7E SWAP2 SWAP1 PUSH2 0x350E JUMP JUMPDEST GT ISZERO PUSH2 0xDBF JUMPI PUSH1 0x40 MLOAD PUSH32 0x8C379A000000000000000000000000000000000000000000000000000000000 DUP2 MSTORE PUSH1 0x4 ADD PUSH2 0xDB6 SWAP1 PUSH2 0x358B JUMP JUMPDEST PUSH1 0x40 MLOAD DUP1 SWAP2 SUB SWAP1 REVERT JUMPDEST DUP1 PUSH1 0xC PUSH0 DUP3 DUP3 SLOAD PUSH2 0xDD0 SWAP2 SWAP1 PUSH2 0x350E JUMP JUMPDEST SWAP3 POP POP DUP2 SWAP1 SSTORE POP PUSH2 0xDE1 DUP3 DUP3 PUSH2 0x25C4 JUMP JUMPDEST DUP2 PUSH20 0xFFFFFFFFFFFFFFFFFFFFFFFFFFFFFFFFFFFFFFFF AND PUSH32 0x85719716AC5BD2744AE7ED3D16702129383049B97123B506320E7A5826EBBBBA DUP3 PUSH1 0x40 MLOAD PUSH2 0xE27 SWAP2 SWAP1 PUSH2 0x2CD9 JUMP JUMPDEST PUSH1 0x40 MLOAD DUP1 SWAP2 SUB SWAP1 LOG2 POP POP JUMP JUMPDEST PUSH0 DUP1 PUSH2 0xE3D PUSH2 0x25AB JUMP JUMPDEST SWAP1 POP PUSH2 0xE4A DUP6 DUP3 DUP6 PUSH2 0x2643 JUMP JUMPDEST PUSH2 0xE55 DUP6 DUP6 DUP6 PUSH2 0x26D6 JUMP JUMPDEST PUSH1 0x1 SWAP2 POP POP SWAP4 SWAP3 POP POP POP JUMP JUMPDEST PUSH1 0xE PUSH1 0x1 SWAP1 SLOAD SWAP1 PUSH2 0x100 EXP SWAP1 DIV PUSH1 0xFF AND DUP2 JUMP JUMPDEST PUSH0 PUSH1 0x12 SWAP1 POP SWAP1 JUMP JUMPDEST PUSH1 0xB SLOAD DUP2 JUMP JUMPDEST PUSH1 0xF PUSH1 0x20 MSTORE DUP1 PUSH0 MSTORE PUSH1 0x40 PUSH0 KECCAK256 PUSH0 SWAP2 POP SWAP1 POP SLOAD DUP2 JUMP JUMPDEST PUSH2 0xE9F PUSH2 0x2524 JUMP JUMPDEST PUSH1 0xE PUSH0 SWAP1 SLOAD SWAP1 PUSH2 0x100 EXP SWAP1 DIV PUSH1 0xFF AND PUSH2 0xEED JUMPI PUSH1 0x40 MLOAD PUSH32 0x8C379A000000000000000000000000000000000000000000000000000000000 DUP2 MSTORE PUSH1 0x4 ADD PUSH2 0xEE4 SWAP1 PUSH2 0x345B JUMP JUMPDEST PUSH1 0x40 MLOAD DUP1 SWAP2 SUB SWAP1 REVERT JUMPDEST PUSH0 DUP2 GT PUSH2 0xF2F JUMPI PUSH1 0x40 MLOAD PUSH32 0x8C379A000000000000000000000000000000000000000000000000000000000 DUP2 MSTORE PUSH1 0x4 ADD PUSH2 0xF26 SWAP1 PUSH2 0x34C3 JUMP JUMPDEST PUSH1 0x40 MLOAD DUP1 SWAP2 SUB SWAP1 REVERT JUMPDEST PUSH10 0xA968163F0A57B400000 DUP2 PUSH1 0xB SLOAD PUSH2 0xF48 SWAP2 SWAP1 PUSH2 0x350E JUMP JUMPDEST GT ISZERO PUSH2 0xF89 JUMPI PUSH1 0x40 MLOAD PUSH32 0x8C379A000000000000000000000000000000000000000000000000000000000 DUP2 MSTORE PUSH1 0x4 ADD PUSH2 0xF80 SWAP1 PUSH2 0x35F3 JUMP JUMPDEST PUSH1 0x40 MLOAD DUP1 SWAP2 SUB SWAP1 REVERT JUMPDEST DUP1 PUSH1 0xB PUSH0 DUP3 DUP3 SLOAD PUSH2 0xF9A SWAP2 SWAP1 PUSH2 0x350E JUMP JUMPDEST SWAP3 POP POP DUP2 SWAP1 SSTORE POP PUSH2 0xFAB DUP3 DUP3 PUSH2 0x25C4 JUMP JUMPDEST DUP2 PUSH20 0xFFFFFFFFFFFFFFFFFFFFFFFFFFFFFFFFFFFFFFFF AND PUSH32 0x62E341B0A7ECC18E21044C8C3D3841A60F7AF9656A59993559A6EBD9D35A4C36 DUP3 PUSH1 0x40 MLOAD PUSH2 0xFF1 SWAP2 SWAP1 PUSH2 0x2CD9 JUMP JUMPDEST PUSH1 0x40 MLOAD DUP1 SWAP2 SUB SWAP1 LOG2 POP POP JUMP JUMPDEST PUSH1 0x10 PUSH1 0x20 MSTORE DUP1 PUSH0 MSTORE PUSH1 0x40 PUSH0 KECCAK256 PUSH0 SWAP2 POP SWAP1 POP SLOAD DUP2 JUMP JUMPDEST PUSH2 0x101A PUSH2 0x27C6 JUMP JUMPDEST PUSH1 0xE PUSH0 SWAP1 SLOAD SWAP1 PUSH2 0x100 EXP SWAP1 DIV PUSH1 0xFF AND PUSH2 0x1068 JUMPI PUSH1 0x40 MLOAD PUSH32 0x8C379A000000000000000000000000000000000000000000000000000000000 DUP2 MSTORE PUSH1 0x4 ADD PUSH2 0x105F SWAP1 PUSH2 0x345B JUMP JUMPDEST PUSH1 0x40 MLOAD DUP1 SWAP2 SUB SWAP1 REVERT JUMPDEST PUSH1 0xE PUSH1 0x1 SWAP1 SLOAD SWAP1 PUSH2 0x100 EXP SWAP1 DIV PUSH1 0xFF AND PUSH2 0x10B7 JUMPI PUSH1 0x40 MLOAD PUSH32 0x8C379A000000000000000000000000000000000000000000000000000000000 DUP2 MSTORE PUSH1 0x4 ADD PUSH2 0x10AE SWAP1 PUSH2 0x365B JUMP JUMPDEST PUSH1 0x40 MLOAD DUP1 SWAP2 SUB SWAP1 REVERT JUMPDEST PUSH1 0x8 PUSH0 DUP3 PUSH20 0xFFFFFFFFFFFFFFFFFFFFFFFFFFFFFFFFFFFFFFFF AND PUSH20 0xFFFFFFFFFFFFFFFFFFFFFFFFFFFFFFFFFFFFFFFF AND DUP2 MSTORE PUSH1 0x20 ADD SWAP1 DUP2 MSTORE PUSH1 0x20 ADD PUSH0 KECCAK256 PUSH0 SWAP1 SLOAD SWAP1 PUSH2 0x100 EXP SWAP1 DIV PUSH1 0xFF AND PUSH2 0x1140 JUMPI PUSH1 0x40 MLOAD PUSH32 0x8C379A000000000000000000000000000000000000000000000000000000000 DUP2 MSTORE PUSH1 0x4 ADD PUSH2 0x1137 SWAP1 PUSH2 0x36C3 JUMP JUMPDEST PUSH1 0x40 MLOAD DUP1 SWAP2 SUB SWAP1 REVERT JUMPDEST PUSH8 0xDE0B6B3A7640000 DUP3 LT ISZERO PUSH2 0x118B JUMPI PUSH1 0x40 MLOAD PUSH32 0x8C379A000000000000000000000000000000000000000000000000000000000 DUP2 MSTORE PUSH1 0x4 ADD PUSH2 0x1182 SWAP1 PUSH2 0x372B JUMP JUMPDEST PUSH1 0x40 MLOAD DUP1 SWAP2 SUB SWAP1 REVERT JUMPDEST PUSH10 0x21E19E0C9BAB2400000 DUP3 GT ISZERO PUSH2 0x11D8 JUMPI PUSH1 0x40 MLOAD PUSH32 0x8C379A000000000000000000000000000000000000000000000000000000000 DUP2 MSTORE PUSH1 0x4 ADD PUSH2 0x11CF SWAP1 PUSH2 0x3793 JUMP JUMPDEST PUSH1 0x40 MLOAD DUP1 SWAP2 SUB SWAP1 REVERT JUMPDEST PUSH10 0x943B1377290CBD800000 DUP3 PUSH1 0xD SLOAD PUSH2 0x11F1 SWAP2 SWAP1 PUSH2 0x350E JUMP JUMPDEST GT ISZERO PUSH2 0x1232 JUMPI PUSH1 0x40 MLOAD PUSH32 0x8C379A000000000000000000000000000000000000000000000000000000000 DUP2 MSTORE PUSH1 0x4 ADD PUSH2 0x1229 SWAP1 PUSH2 0x37FB JUMP JUMPDEST PUSH1 0x40 MLOAD DUP1 SWAP2 SUB SWAP1 REVERT JUMPDEST PUSH0 PUSH8 0xDE0B6B3A7640000 PUSH1 0x7 SLOAD DUP5 PUSH2 0x124A SWAP2 SWAP1 PUSH2 0x3819 JUMP JUMPDEST PUSH2 0x1254 SWAP2 SWAP1 PUSH2 0x3887 JUMP JUMPDEST SWAP1 POP PUSH0 PUSH1 0x9 PUSH0 DUP5 PUSH20 0xFFFFFFFFFFFFFFFFFFFFFFFFFFFFFFFFFFFFFFFF AND PUSH20 0xFFFFFFFFFFFFFFFFFFFFFFFFFFFFFFFFFFFFFFFF AND DUP2 MSTORE PUSH1 0x20 ADD SWAP1 DUP2 MSTORE PUSH1 0x20 ADD PUSH0 KECCAK256 PUSH0 SWAP1 SLOAD SWAP1 PUSH2 0x100 EXP SWAP1 DIV PUSH1 0xFF AND SWAP1 POP PUSH1 0x12 DUP2 PUSH1 0xFF AND EQ PUSH2 0x12DC JUMPI PUSH8 0xDE0B6B3A7640000 DUP2 PUSH1 0xA PUSH2 0x12C4 SWAP2 SWAP1 PUSH2 0x39E6 JUMP JUMPDEST DUP4 PUSH2 0x12CF SWAP2 SWAP1 PUSH2 0x3819 JUMP JUMPDEST PUSH2 0x12D9 SWAP2 SWAP1 PUSH2 0x3887 JUMP JUMPDEST SWAP2 POP JUMPDEST PUSH0 DUP4 SWAP1 POP DUP1 PUSH20 0xFFFFFFFFFFFFFFFFFFFFFFFFFFFFFFFFFFFFFFFF AND PUSH4 0x23B872DD CALLER ADDRESS DUP7 PUSH1 0x40 MLOAD DUP5 PUSH4 0xFFFFFFFF AND PUSH1 0xE0 SHL DUP2 MSTORE PUSH1 0x4 ADD PUSH2 0x131D SWAP4 SWAP3 SWAP2 SWAP1 PUSH2 0x3A30 JUMP JUMPDEST PUSH1 0x20 PUSH1 0x40 MLOAD DUP1 DUP4 SUB DUP2 PUSH0 DUP8 GAS CALL ISZERO DUP1 ISZERO PUSH2 0x1339 JUMPI RETURNDATASIZE PUSH0 DUP1 RETURNDATACOPY RETURNDATASIZE PUSH0 REVERT JUMPDEST POP POP POP POP PUSH1 0x40 MLOAD RETURNDATASIZE PUSH1 0x1F NOT PUSH1 0x1F DUP3 ADD AND DUP3 ADD DUP1 PUSH1 0x40 MSTORE POP DUP2 ADD SWAP1 PUSH2 0x135D SWAP2 SWAP1 PUSH2 0x337E JUMP JUMPDEST PUSH2 0x139C JUMPI PUSH1 0x40 MLOAD PUSH32 0x8C379A000000000000000000000000000000000000000000000000000000000 DUP2 MSTORE PUSH1 0x4 ADD PUSH2 0x1393 SWAP1 PUSH2 0x3AAF JUMP JUMPDEST PUSH1 0x40 MLOAD DUP1 SWAP2 SUB SWAP1 REVERT JUMPDEST DUP5 PUSH1 0xD PUSH0 DUP3 DUP3 SLOAD PUSH2 0x13AD SWAP2 SWAP1 PUSH2 0x350E JUMP JUMPDEST SWAP3 POP POP DUP2 SWAP1 SSTORE POP DUP3 PUSH1 0xF PUSH0 CALLER PUSH20 0xFFFFFFFFFFFFFFFFFFFFFFFFFFFFFFFFFFFFFFFF AND PUSH20 0xFFFFFFFFFFFFFFFFFFFFFFFFFFFFFFFFFFFFFFFF AND DUP2 MSTORE PUSH1 0x20 ADD SWAP1 DUP2 MSTORE PUSH1 0x20 ADD PUSH0 KECCAK256 PUSH0 DUP3 DUP3 SLOAD PUSH2 0x1400 SWAP2 SWAP1 PUSH2 0x350E JUMP JUMPDEST SWAP3 POP POP DUP2 SWAP1 SSTORE POP DUP5 PUSH1 0x10 PUSH0 CALLER PUSH20 0xFFFFFFFFFFFFFFFFFFFFFFFFFFFFFFFFFFFFFFFF AND PUSH20 0xFFFFFFFFFFFFFFFFFFFFFFFFFFFFFFFFFFFFFFFF AND DUP2 MSTORE PUSH1 0x20 ADD SWAP1 DUP2 MSTORE PUSH1 0x20 ADD PUSH0 KECCAK256 PUSH0 DUP3 DUP3 SLOAD PUSH2 0x1453 SWAP2 SWAP1 PUSH2 0x350E JUMP JUMPDEST SWAP3 POP POP DUP2 SWAP1 SSTORE POP PUSH2 0x1464 CALLER DUP7 PUSH2 0x25C4 JUMP JUMPDEST CALLER PUSH20 0xFFFFFFFFFFFFFFFFFFFFFFFFFFFFFFFFFFFFFFFF AND PUSH32 0x343DC9350F5BB85259F22F5829418937B651FE766B7AA92B0BE374D1D086AB5A DUP7 DUP7 DUP7 PUSH1 0x40 MLOAD PUSH2 0x14AE SWAP4 SWAP3 SWAP2 SWAP1 PUSH2 0x3ACD JUMP JUMPDEST PUSH1 0x40 MLOAD DUP1 SWAP2 SUB SWAP1 LOG2 CALLER PUSH20 0xFFFFFFFFFFFFFFFFFFFFFFFFFFFFFFFFFFFFFFFF AND PUSH32 0xAB9980FB1D2916BCE9017EDD1BE458E3F56D0899B3367CB3A8BE97483FBE069B DUP7 PUSH1 0x40 MLOAD PUSH2 0x14FC SWAP2 SWAP1 PUSH2 0x2CD9 JUMP JUMPDEST PUSH1 0x40 MLOAD DUP1 SWAP2 SUB SWAP1 LOG2 POP POP POP PUSH2 0x150F PUSH2 0x280C JUMP JUMPDEST POP POP JUMP JUMPDEST PUSH0 DUP1 PUSH0 DUP1 PUSH1 0xA SLOAD PUSH10 0xA968163F0A57B400000 PUSH2 0x152F SWAP2 SWAP1 PUSH2 0x3B02 JUMP JUMPDEST SWAP4 POP PUSH1 0xB SLOAD PUSH10 0xA968163F0A57B400000 PUSH2 0x1549 SWAP2 SWAP1 PUSH2 0x3B02 JUMP JUMPDEST SWAP3 POP PUSH1 0xC SLOAD PUSH10 0x2A5A058FC295ED000000 PUSH2 0x1563 SWAP2 SWAP1 PUSH2 0x3B02 JUMP JUMPDEST SWAP2 POP PUSH1 0xD SLOAD PUSH10 0x943B1377290CBD800000 PUSH2 0x157D SWAP2 SWAP1 PUSH2 0x3B02 JUMP JUMPDEST SWAP1 POP SWAP1 SWAP2 SWAP3 SWAP4 JUMP JUMPDEST PUSH2 0x158D PUSH2 0x2524 JUMP JUMPDEST PUSH0 DUP2 GT PUSH2 0x15CF JUMPI PUSH1 0x40 MLOAD PUSH32 0x8C379A000000000000000000000000000000000000000000000000000000000 DUP2 MSTORE PUSH1 0x4 ADD PUSH2 0x15C6 SWAP1 PUSH2 0x3B7F JUMP JUMPDEST PUSH1 0x40 MLOAD DUP1 SWAP2 SUB SWAP1 REVERT JUMPDEST DUP1 PUSH1 0x7 DUP2 SWAP1 SSTORE POP PUSH32 0x66CBCA4F3C64FECF1DCB9CE094ABCF7F68C3450A1D4E3A8E917DD621EDB4EBE0 DUP2 PUSH1 0x40 MLOAD PUSH2 0x1605 SWAP2 SWAP1 PUSH2 0x2CD9 JUMP JUMPDEST PUSH1 0x40 MLOAD DUP1 SWAP2 SUB SWAP1 LOG1 POP JUMP JUMPDEST PUSH2 0x1618 PUSH2 0x2524 JUMP JUMPDEST PUSH0 DUP2 SWAP1 POP PUSH0 DUP2 PUSH20 0xFFFFFFFFFFFFFFFFFFFFFFFFFFFFFFFFFFFFFFFF AND PUSH4 0x70A08231 ADDRESS PUSH1 0x40 MLOAD DUP3 PUSH4 0xFFFFFFFF AND PUSH1 0xE0 SHL DUP2 MSTORE PUSH1 0x4 ADD PUSH2 0x1656 SWAP2 SWAP1 PUSH2 0x30BC JUMP JUMPDEST PUSH1 0x20 PUSH1 0x40 MLOAD DUP1 DUP4 SUB DUP2 DUP7 GAS STATICCALL ISZERO DUP1 ISZERO PUSH2 0x1671 JUMPI RETURNDATASIZE PUSH0 DUP1 RETURNDATACOPY RETURNDATASIZE PUSH0 REVERT JUMPDEST POP POP POP POP PUSH1 0x40 MLOAD RETURNDATASIZE PUSH1 0x1F NOT PUSH1 0x1F DUP3 ADD AND DUP3 ADD DUP1 PUSH1 0x40 MSTORE POP DUP2 ADD SWAP1 PUSH2 0x1695 SWAP2 SWAP1 PUSH2 0x3BB1 JUMP JUMPDEST SWAP1 POP DUP2 PUSH20 0xFFFFFFFFFFFFFFFFFFFFFFFFFFFFFFFFFFFFFFFF AND PUSH4 0xA9059CBB PUSH2 0x16BB PUSH2 0x1896 JUMP JUMPDEST DUP4 PUSH1 0x40 MLOAD DUP4 PUSH4 0xFFFFFFFF AND PUSH1 0xE0 SHL DUP2 MSTORE PUSH1 0x4 ADD PUSH2 0x16D9 SWAP3 SWAP2 SWAP1 PUSH2 0x3343 JUMP JUMPDEST PUSH1 0x20 PUSH1 0x40 MLOAD DUP1 DUP4 SUB DUP2 PUSH0 DUP8 GAS CALL ISZERO DUP1 ISZERO PUSH2 0x16F5 JUMPI RETURNDATASIZE PUSH0 DUP1 RETURNDATACOPY RETURNDATASIZE PUSH0 REVERT JUMPDEST POP POP POP POP PUSH1 0x40 MLOAD RETURNDATASIZE PUSH1 0x1F NOT PUSH1 0x1F DUP3 ADD AND DUP3 ADD DUP1 PUSH1 0x40 MSTORE POP DUP2 ADD SWAP1 PUSH2 0x1719 SWAP2 SWAP1 PUSH2 0x337E JUMP JUMPDEST PUSH2 0x1758 JUMPI PUSH1 0x40 MLOAD PUSH32 0x8C379A000000000000000000000000000000000000000000000000000000000 DUP2 MSTORE PUSH1 0x4 ADD PUSH2 0x174F SWAP1 PUSH2 0x33F3 JUMP JUMPDEST PUSH1 0x40 MLOAD DUP1 SWAP2 SUB SWAP1 REVERT JUMPDEST POP POP POP JUMP JUMPDEST PUSH0 DUP1 PUSH0 DUP4 PUSH20 0xFFFFFFFFFFFFFFFFFFFFFFFFFFFFFFFFFFFFFFFF AND PUSH20 0xFFFFFFFFFFFFFFFFFFFFFFFFFFFFFFFFFFFFFFFF AND DUP2 MSTORE PUSH1 0x20 ADD SWAP1 DUP2 MSTORE PUSH1 0x20 ADD PUSH0 KECCAK256 SLOAD SWAP1 POP SWAP2 SWAP1 POP JUMP JUMPDEST PUSH2 0x17AA PUSH2 0x2524 JUMP JUMPDEST PUSH2 0x17B3 PUSH0 PUSH2 0x2816 JUMP JUMPDEST JUMP JUMPDEST PUSH2 0x17BD PUSH2 0x2524 JUMP JUMPDEST PUSH0 PUSH1 0xE PUSH0 PUSH2 0x100 EXP DUP2 SLOAD DUP2 PUSH1 0xFF MUL NOT AND SWAP1 DUP4 ISZERO ISZERO MUL OR SWAP1 SSTORE POP PUSH32 0xAF79B4370F6AF9D950564BBE6B81F7F0834C003C455DB9248F4E55E6BF865EB7 PUSH1 0x40 MLOAD PUSH1 0x40 MLOAD DUP1 SWAP2 SUB SWAP1 LOG1 JUMP JUMPDEST PUSH1 0x7 SLOAD DUP2 JUMP JUMPDEST PUSH1 0x8 PUSH1 0x20 MSTORE DUP1 PUSH0 MSTORE PUSH1 0x40 PUSH0 KECCAK256 PUSH0 SWAP2 POP SLOAD SWAP1 PUSH2 0x100 EXP SWAP1 DIV PUSH1 0xFF AND DUP2 JUMP JUMPDEST PUSH2 0x182F PUSH2 0x2524 JUMP JUMPDEST DUP1 PUSH1 0xE PUSH1 0x1 PUSH2 0x100 EXP DUP2 SLOAD DUP2 PUSH1 0xFF MUL NOT AND SWAP1 DUP4 ISZERO ISZERO MUL OR SWAP1 SSTORE POP DUP1 PUSH2 0x187B JUMPI PUSH32 0xE2358C1BBBE554882B05FF1E4DDC330A1E04112517FC35C1065C32340F5176BA PUSH1 0x40 MLOAD PUSH1 0x40 MLOAD DUP1 SWAP2 SUB SWAP1 LOG1 JUMPDEST POP JUMP JUMPDEST PUSH20 0x8AC76A51CC950D9822D68B83FE1AD97B32CD580D DUP2 JUMP JUMPDEST PUSH0 PUSH1 0x5 PUSH0 SWAP1 SLOAD SWAP1 PUSH2 0x100 EXP SWAP1 DIV PUSH20 0xFFFFFFFFFFFFFFFFFFFFFFFFFFFFFFFFFFFFFFFF AND SWAP1 POP SWAP1 JUMP JUMPDEST PUSH1 0xC SLOAD DUP2 JUMP JUMPDEST PUSH1 0x9 PUSH1 0x20 MSTORE DUP1 PUSH0 MSTORE PUSH1 0x40 PUSH0 KECCAK256 PUSH0 SWAP2 POP SLOAD SWAP1 PUSH2 0x100 EXP SWAP1 DIV PUSH1 0xFF AND DUP2 JUMP JUMPDEST PUSH10 0xD3C21BCECCEDA1000000 DUP2 JUMP JUMPDEST PUSH1 0x60 PUSH1 0x4 DUP1 SLOAD PUSH2 0x18FE SWAP1 PUSH2 0x32AB JUMP JUMPDEST DUP1 PUSH1 0x1F ADD PUSH1 0x20 DUP1 SWAP2 DIV MUL PUSH1 0x20 ADD PUSH1 0x40 MLOAD SWAP1 DUP2 ADD PUSH1 0x40 MSTORE DUP1 SWAP3 SWAP2 SWAP1 DUP2 DUP2 MSTORE PUSH1 0x20 ADD DUP3 DUP1 SLOAD PUSH2 0x192A SWAP1 PUSH2 0x32AB JUMP JUMPDEST DUP1 ISZERO PUSH2 0x1975 JUMPI DUP1 PUSH1 0x1F LT PUSH2 0x194C JUMPI PUSH2 0x100 DUP1 DUP4 SLOAD DIV MUL DUP4 MSTORE SWAP2 PUSH1 0x20 ADD SWAP2 PUSH2 0x1975 JUMP JUMPDEST DUP3 ADD SWAP2 SWAP1 PUSH0 MSTORE PUSH1 0x20 PUSH0 KECCAK256 SWAP1 JUMPDEST DUP2 SLOAD DUP2 MSTORE SWAP1 PUSH1 0x1 ADD SWAP1 PUSH1 0x20 ADD DUP1 DUP4 GT PUSH2 0x1958 JUMPI DUP3 SWAP1 SUB PUSH1 0x1F AND DUP3 ADD SWAP2 JUMPDEST POP POP POP POP POP SWAP1 POP SWAP1 JUMP JUMPDEST PUSH1 0xE PUSH0 SWAP1 SLOAD SWAP1 PUSH2 0x100 EXP SWAP1 DIV PUSH1 0xFF AND DUP2 JUMP JUMPDEST PUSH0 DUP1 PUSH0 DUP1 PUSH0 PUSH2 0x199E PUSH2 0xCC4 JUMP JUMPDEST SWAP5 POP PUSH0 PUSH10 0xA968163F0A57B400000 GT PUSH2 0x19B7 JUMPI PUSH0 PUSH2 0x19DC JUMP JUMPDEST PUSH10 0xA968163F0A57B400000 PUSH1 0x64 PUSH1 0xA SLOAD PUSH2 0x19D1 SWAP2 SWAP1 PUSH2 0x3819 JUMP JUMPDEST PUSH2 0x19DB SWAP2 SWAP1 PUSH2 0x3887 JUMP JUMPDEST JUMPDEST SWAP4 POP PUSH0 PUSH10 0xA968163F0A57B400000 GT PUSH2 0x19F5 JUMPI PUSH0 PUSH2 0x1A1A JUMP JUMPDEST PUSH10 0xA968163F0A57B400000 PUSH1 0x64 PUSH1 0xB SLOAD PUSH2 0x1A0F SWAP2 SWAP1 PUSH2 0x3819 JUMP JUMPDEST PUSH2 0x1A19 SWAP2 SWAP1 PUSH2 0x3887 JUMP JUMPDEST JUMPDEST SWAP3 POP PUSH0 PUSH10 0x2A5A058FC295ED000000 GT PUSH2 0x1A33 JUMPI PUSH0 PUSH2 0x1A58 JUMP JUMPDEST PUSH10 0x2A5A058FC295ED000000 PUSH1 0x64 PUSH1 0xC SLOAD PUSH2 0x1A4D SWAP2 SWAP1 PUSH2 0x3819 JUMP JUMPDEST PUSH2 0x1A57 SWAP2 SWAP1 PUSH2 0x3887 JUMP JUMPDEST JUMPDEST SWAP2 POP PUSH0 PUSH10 0x943B1377290CBD800000 GT PUSH2 0x1A71 JUMPI PUSH0 PUSH2 0x1A96 JUMP JUMPDEST PUSH10 0x943B1377290CBD800000 PUSH1 0x64 PUSH1 0xD SLOAD PUSH2 0x1A8B SWAP2 SWAP1 PUSH2 0x3819 JUMP JUMPDEST PUSH2 0x1A95 SWAP2 SWAP1 PUSH2 0x3887 JUMP JUMPDEST JUMPDEST SWAP1 POP SWAP1 SWAP2 SWAP3 SWAP4 SWAP5 JUMP JUMPDEST PUSH1 0xD SLOAD DUP2 JUMP JUMPDEST PUSH2 0x1AAD PUSH2 0x2524 JUMP JUMPDEST PUSH0 PUSH1 0x8 PUSH0 DUP4 PUSH20 0xFFFFFFFFFFFFFFFFFFFFFFFFFFFFFFFFFFFFFFFF AND PUSH20 0xFFFFFFFFFFFFFFFFFFFFFFFFFFFFFFFFFFFFFFFF AND DUP2 MSTORE PUSH1 0x20 ADD SWAP1 DUP2 MSTORE PUSH1 0x20 ADD PUSH0 KECCAK256 PUSH0 PUSH2 0x100 EXP DUP2 SLOAD DUP2 PUSH1 0xFF MUL NOT AND SWAP1 DUP4 ISZERO ISZERO MUL OR SWAP1 SSTORE POP PUSH32 0x85A3E72F8DD6DB3794F93109C3C5F5B79D6112F6979431C45F98B26134B42AF2 DUP2 PUSH1 0x40 MLOAD PUSH2 0x1B30 SWAP2 SWAP1 PUSH2 0x30BC JUMP JUMPDEST PUSH1 0x40 MLOAD DUP1 SWAP2 SUB SWAP1 LOG1 POP JUMP JUMPDEST PUSH0 DUP1 PUSH2 0x1B45 PUSH2 0x25AB JUMP JUMPDEST SWAP1 POP PUSH2 0x1B52 DUP2 DUP6 DUP6 PUSH2 0x26D6 JUMP JUMPDEST PUSH1 0x1 SWAP2 POP POP SWAP3 SWAP2 POP POP JUMP JUMPDEST PUSH2 0x1B65 PUSH2 0x2524 JUMP JUMPDEST PUSH2 0x1B6D PUSH2 0x27C6 JUMP JUMPDEST PUSH1 0xE PUSH0 SWAP1 SLOAD SWAP1 PUSH2 0x100 EXP SWAP1 DIV PUSH1 0xFF AND PUSH2 0x1BBB JUMPI PUSH1 0x40 MLOAD PUSH32 0x8C379A000000000000000000000000000000000000000000000000000000000 DUP2 MSTORE PUSH1 0x4 ADD PUSH2 0x1BB2 SWAP1 PUSH2 0x345B JUMP JUMPDEST PUSH1 0x40 MLOAD DUP1 SWAP2 SUB SWAP1 REVERT JUMPDEST PUSH1 0xE PUSH1 0x1 SWAP1 SLOAD SWAP1 PUSH2 0x100 EXP SWAP1 DIV PUSH1 0xFF AND PUSH2 0x1C0A JUMPI PUSH1 0x40 MLOAD PUSH32 0x8C379A000000000000000000000000000000000000000000000000000000000 DUP2 MSTORE PUSH1 0x4 ADD PUSH2 0x1C01 SWAP1 PUSH2 0x365B JUMP JUMPDEST PUSH1 0x40 MLOAD DUP1 SWAP2 SUB SWAP1 REVERT JUMPDEST PUSH1 0x8 PUSH0 DUP4 PUSH20 0xFFFFFFFFFFFFFFFFFFFFFFFFFFFFFFFFFFFFFFFF AND PUSH20 0xFFFFFFFFFFFFFFFFFFFFFFFFFFFFFFFFFFFFFFFF AND DUP2 MSTORE PUSH1 0x20 ADD SWAP1 DUP2 MSTORE PUSH1 0x20 ADD PUSH0 KECCAK256 PUSH0 SWAP1 SLOAD SWAP1 PUSH2 0x100 EXP SWAP1 DIV PUSH1 0xFF AND PUSH2 0x1C93 JUMPI PUSH1 0x40 MLOAD PUSH32 0x8C379A000000000000000000000000000000000000000000000000000000000 DUP2 MSTORE PUSH1 0x4 ADD PUSH2 0x1C8A SWAP1 PUSH2 0x36C3 JUMP JUMPDEST PUSH1 0x40 MLOAD DUP1 SWAP2 SUB SWAP1 REVERT JUMPDEST PUSH0 PUSH20 0xFFFFFFFFFFFFFFFFFFFFFFFFFFFFFFFFFFFFFFFF AND DUP5 PUSH20 0xFFFFFFFFFFFFFFFFFFFFFFFFFFFFFFFFFFFFFFFF AND SUB PUSH2 0x1D01 JUMPI PUSH1 0x40 MLOAD PUSH32 0x8C379A000000000000000000000000000000000000000000000000000000000 DUP2 MSTORE PUSH1 0x4 ADD PUSH2 0x1CF8 SWAP1 PUSH2 0x3C26 JUMP JUMPDEST PUSH1 0x40 MLOAD DUP1 SWAP2 SUB SWAP1 REVERT JUMPDEST PUSH8 0xDE0B6B3A7640000 DUP4 LT ISZERO PUSH2 0x1D4C JUMPI PUSH1 0x40 MLOAD PUSH32 0x8C379A000000000000000000000000000000000000000000000000000000000 DUP2 MSTORE PUSH1 0x4 ADD PUSH2 0x1D43 SWAP1 PUSH2 0x372B JUMP JUMPDEST PUSH1 0x40 MLOAD DUP1 SWAP2 SUB SWAP1 REVERT JUMPDEST PUSH10 0x21E19E0C9BAB2400000 DUP4 GT ISZERO PUSH2 0x1D99 JUMPI PUSH1 0x40 MLOAD PUSH32 0x8C379A000000000000000000000000000000000000000000000000000000000 DUP2 MSTORE PUSH1 0x4 ADD PUSH2 0x1D90 SWAP1 PUSH2 0x3793 JUMP JUMPDEST PUSH1 0x40 MLOAD DUP1 SWAP2 SUB SWAP1 REVERT JUMPDEST PUSH10 0x943B1377290CBD800000 DUP4 PUSH1 0xD SLOAD PUSH2 0x1DB2 SWAP2 SWAP1 PUSH2 0x350E JUMP JUMPDEST GT ISZERO PUSH2 0x1DF3 JUMPI PUSH1 0x40 MLOAD PUSH32 0x8C379A000000000000000000000000000000000000000000000000000000000 DUP2 MSTORE PUSH1 0x4 ADD PUSH2 0x1DEA SWAP1 PUSH2 0x37FB JUMP JUMPDEST PUSH1 0x40 MLOAD DUP1 SWAP2 SUB SWAP1 REVERT JUMPDEST PUSH0 PUSH8 0xDE0B6B3A7640000 PUSH1 0x7 SLOAD DUP6 PUSH2 0x1E0B SWAP2 SWAP1 PUSH2 0x3819 JUMP JUMPDEST PUSH2 0x1E15 SWAP2 SWAP1 PUSH2 0x3887 JUMP JUMPDEST SWAP1 POP PUSH0 PUSH1 0x9 PUSH0 DUP6 PUSH20 0xFFFFFFFFFFFFFFFFFFFFFFFFFFFFFFFFFFFFFFFF AND PUSH20 0xFFFFFFFFFFFFFFFFFFFFFFFFFFFFFFFFFFFFFFFF AND DUP2 MSTORE PUSH1 0x20 ADD SWAP1 DUP2 MSTORE PUSH1 0x20 ADD PUSH0 KECCAK256 PUSH0 SWAP1 SLOAD SWAP1 PUSH2 0x100 EXP SWAP1 DIV PUSH1 0xFF AND SWAP1 POP PUSH1 0x12 DUP2 PUSH1 0xFF AND EQ PUSH2 0x1E9D JUMPI PUSH8 0xDE0B6B3A7640000 DUP2 PUSH1 0xA PUSH2 0x1E85 SWAP2 SWAP1 PUSH2 0x39E6 JUMP JUMPDEST DUP4 PUSH2 0x1E90 SWAP2 SWAP1 PUSH2 0x3819 JUMP JUMPDEST PUSH2 0x1E9A SWAP2 SWAP1 PUSH2 0x3887 JUMP JUMPDEST SWAP2 POP JUMPDEST DUP2 DUP4 LT ISZERO PUSH2 0x1EE0 JUMPI PUSH1 0x40 MLOAD PUSH32 0x8C379A000000000000000000000000000000000000000000000000000000000 DUP2 MSTORE PUSH1 0x4 ADD PUSH2 0x1ED7 SWAP1 PUSH2 0x3C8E JUMP JUMPDEST PUSH1 0x40 MLOAD DUP1 SWAP2 SUB SWAP1 REVERT JUMPDEST DUP5 PUSH1 0xD PUSH0 DUP3 DUP3 SLOAD PUSH2 0x1EF1 SWAP2 SWAP1 PUSH2 0x350E JUMP JUMPDEST SWAP3 POP POP DUP2 SWAP1 SSTORE POP DUP3 PUSH1 0xF PUSH0 DUP9 PUSH20 0xFFFFFFFFFFFFFFFFFFFFFFFFFFFFFFFFFFFFFFFF AND PUSH20 0xFFFFFFFFFFFFFFFFFFFFFFFFFFFFFFFFFFFFFFFF AND DUP2 MSTORE PUSH1 0x20 ADD SWAP1 DUP2 MSTORE PUSH1 0x20 ADD PUSH0 KECCAK256 PUSH0 DUP3 DUP3 SLOAD PUSH2 0x1F44 SWAP2 SWAP1 PUSH2 0x350E JUMP JUMPDEST SWAP3 POP POP DUP2 SWAP1 SSTORE POP DUP5 PUSH1 0x10 PUSH0 DUP9 PUSH20 0xFFFFFFFFFFFFFFFFFFFFFFFFFFFFFFFFFFFFFFFF AND PUSH20 0xFFFFFFFFFFFFFFFFFFFFFFFFFFFFFFFFFFFFFFFF AND DUP2 MSTORE PUSH1 0x20 ADD SWAP1 DUP2 MSTORE PUSH1 0x20 ADD PUSH0 KECCAK256 PUSH0 DUP3 DUP3 SLOAD PUSH2 0x1F97 SWAP2 SWAP1 PUSH2 0x350E JUMP JUMPDEST SWAP3 POP POP DUP2 SWAP1 SSTORE POP PUSH2 0x1FA8 DUP7 DUP7 PUSH2 0x25C4 JUMP JUMPDEST DUP6 PUSH20 0xFFFFFFFFFFFFFFFFFFFFFFFFFFFFFFFFFFFFFFFF AND PUSH32 0x343DC9350F5BB85259F22F5829418937B651FE766B7AA92B0BE374D1D086AB5A DUP7 DUP7 DUP7 PUSH1 0x40 MLOAD PUSH2 0x1FF2 SWAP4 SWAP3 SWAP2 SWAP1 PUSH2 0x3ACD JUMP JUMPDEST PUSH1 0x40 MLOAD DUP1 SWAP2 SUB SWAP1 LOG2 DUP6 PUSH20 0xFFFFFFFFFFFFFFFFFFFFFFFFFFFFFFFFFFFFFFFF AND PUSH32 0xAB9980FB1D2916BCE9017EDD1BE458E3F56D0899B3367CB3A8BE97483FBE069B DUP7 PUSH1 0x40 MLOAD PUSH2 0x2040 SWAP2 SWAP1 PUSH2 0x2CD9 JUMP JUMPDEST PUSH1 0x40 MLOAD DUP1 SWAP2 SUB SWAP1 LOG2 POP POP PUSH2 0x2052 PUSH2 0x280C JUMP JUMPDEST POP POP POP POP JUMP JUMPDEST PUSH0 PUSH1 0x8 PUSH0 DUP4 PUSH20 0xFFFFFFFFFFFFFFFFFFFFFFFFFFFFFFFFFFFFFFFF AND PUSH20 0xFFFFFFFFFFFFFFFFFFFFFFFFFFFFFFFFFFFFFFFF AND DUP2 MSTORE PUSH1 0x20 ADD SWAP1 DUP2 MSTORE PUSH1 0x20 ADD PUSH0 KECCAK256 PUSH0 SWAP1 SLOAD SWAP1 PUSH2 0x100 EXP SWAP1 DIV PUSH1 0xFF AND PUSH2 0x20E2 JUMPI PUSH1 0x40 MLOAD PUSH32 0x8C379A000000000000000000000000000000000000000000000000000000000 DUP2 MSTORE PUSH1 0x4 ADD PUSH2 0x20D9 SWAP1 PUSH2 0x36C3 JUMP JUMPDEST PUSH1 0x40 MLOAD DUP1 SWAP2 SUB SWAP1 REVERT JUMPDEST PUSH0 PUSH8 0xDE0B6B3A7640000 PUSH1 0x7 SLOAD DUP6 PUSH2 0x20FA SWAP2 SWAP1 PUSH2 0x3819 JUMP JUMPDEST PUSH2 0x2104 SWAP2 SWAP1 PUSH2 0x3887 JUMP JUMPDEST SWAP1 POP PUSH0 PUSH1 0x9 PUSH0 DUP6 PUSH20 0xFFFFFFFFFFFFFFFFFFFFFFFFFFFFFFFFFFFFFFFF AND PUSH20 0xFFFFFFFFFFFFFFFFFFFFFFFFFFFFFFFFFFFFFFFF AND DUP2 MSTORE PUSH1 0x20 ADD SWAP1 DUP2 MSTORE PUSH1 0x20 ADD PUSH0 KECCAK256 PUSH0 SWAP1 SLOAD SWAP1 PUSH2 0x100 EXP SWAP1 DIV PUSH1 0xFF AND SWAP1 POP PUSH1 0x12 DUP2 PUSH1 0xFF AND EQ PUSH2 0x218C JUMPI PUSH8 0xDE0B6B3A7640000 DUP2 PUSH1 0xA PUSH2 0x2174 SWAP2 SWAP1 PUSH2 0x39E6 JUMP JUMPDEST DUP4 PUSH2 0x217F SWAP2 SWAP1 PUSH2 0x3819 JUMP JUMPDEST PUSH2 0x2189 SWAP2 SWAP1 PUSH2 0x3887 JUMP JUMPDEST SWAP2 POP JUMPDEST DUP2 SWAP3 POP POP POP SWAP3 SWAP2 POP POP JUMP JUMPDEST PUSH20 0x55D398326F99059FF775485246999027B3197955 DUP2 JUMP JUMPDEST PUSH1 0xA SLOAD DUP2 JUMP JUMPDEST PUSH10 0xA968163F0A57B400000 DUP2 JUMP JUMPDEST PUSH0 PUSH1 0x8 PUSH0 DUP4 PUSH20 0xFFFFFFFFFFFFFFFFFFFFFFFFFFFFFFFFFFFFFFFF AND PUSH20 0xFFFFFFFFFFFFFFFFFFFFFFFFFFFFFFFFFFFFFFFF AND DUP2 MSTORE PUSH1 0x20 ADD SWAP1 DUP2 MSTORE PUSH1 0x20 ADD PUSH0 KECCAK256 PUSH0 SWAP1 SLOAD SWAP1 PUSH2 0x100 EXP SWAP1 DIV PUSH1 0xFF AND SWAP1 POP SWAP2 SWAP1 POP JUMP JUMPDEST PUSH0 PUSH1 0x1 PUSH0 DUP5 PUSH20 0xFFFFFFFFFFFFFFFFFFFFFFFFFFFFFFFFFFFFFFFF AND PUSH20 0xFFFFFFFFFFFFFFFFFFFFFFFFFFFFFFFFFFFFFFFF AND DUP2 MSTORE PUSH1 0x20 ADD SWAP1 DUP2 MSTORE PUSH1 0x20 ADD PUSH0 KECCAK256 PUSH0 DUP4 PUSH20 0xFFFFFFFFFFFFFFFFFFFFFFFFFFFFFFFFFFFFFFFF AND PUSH20 0xFFFFFFFFFFFFFFFFFFFFFFFFFFFFFFFFFFFFFFFF AND DUP2 MSTORE PUSH1 0x20 ADD SWAP1 DUP2 MSTORE PUSH1 0x20 ADD PUSH0 KECCAK256 SLOAD SWAP1 POP SWAP3 SWAP2 POP POP JUMP JUMPDEST PUSH0 DUP1 PUSH1 0x10 PUSH0 DUP5 PUSH20 0xFFFFFFFFFFFFFFFFFFFFFFFFFFFFFFFFFFFFFFFF AND PUSH20 0xFFFFFFFFFFFFFFFFFFFFFFFFFFFFFFFFFFFFFFFF AND DUP2 MSTORE PUSH1 0x20 ADD SWAP1 DUP2 MSTORE PUSH1 0x20 ADD PUSH0 KECCAK256 SLOAD SWAP2 POP PUSH1 0xF PUSH0 DUP5 PUSH20 0xFFFFFFFFFFFFFFFFFFFFFFFFFFFFFFFFFFFFFFFF AND PUSH20 0xFFFFFFFFFFFFFFFFFFFFFFFFFFFFFFFFFFFFFFFF AND DUP2 MSTORE PUSH1 0x20 ADD SWAP1 DUP2 MSTORE PUSH1 0x20 ADD PUSH0 KECCAK256 SLOAD SWAP1 POP SWAP2 POP SWAP2 JUMP JUMPDEST PUSH10 0x943B1377290CBD800000 DUP2 JUMP JUMPDEST PUSH2 0x2334 PUSH2 0x2524 JUMP JUMPDEST PUSH0 PUSH20 0xFFFFFFFFFFFFFFFFFFFFFFFFFFFFFFFFFFFFFFFF AND DUP2 PUSH20 0xFFFFFFFFFFFFFFFFFFFFFFFFFFFFFFFFFFFFFFFF AND SUB PUSH2 0x23A4 JUMPI PUSH0 PUSH1 0x40 MLOAD PUSH32 0x1E4FBDF700000000000000000000000000000000000000000000000000000000 DUP2 MSTORE PUSH1 0x4 ADD PUSH2 0x239B SWAP2 SWAP1 PUSH2 0x30BC JUMP JUMPDEST PUSH1 0x40 MLOAD DUP1 SWAP2 SUB SWAP1 REVERT JUMPDEST PUSH2 0x23AD DUP2 PUSH2 0x2816 JUMP JUMPDEST POP JUMP JUMPDEST PUSH10 0x2A5A058FC295ED000000 DUP2 JUMP JUMPDEST PUSH2 0x23C6 PUSH2 0x2524 JUMP JUMPDEST PUSH1 0xE PUSH0 SWAP1 SLOAD SWAP1 PUSH2 0x100 EXP SWAP1 DIV PUSH1 0xFF AND PUSH2 0x2414 JUMPI PUSH1 0x40 MLOAD PUSH32 0x8C379A000000000000000000000000000000000000000000000000000000000 DUP2 MSTORE PUSH1 0x4 ADD PUSH2 0x240B SWAP1 PUSH2 0x345B JUMP JUMPDEST PUSH1 0x40 MLOAD DUP1 SWAP2 SUB SWAP1 REVERT JUMPDEST PUSH0 DUP2 GT PUSH2 0x2456 JUMPI PUSH1 0x40 MLOAD PUSH32 0x8C379A000000000000000000000000000000000000000000000000000000000 DUP2 MSTORE PUSH1 0x4 ADD PUSH2 0x244D SWAP1 PUSH2 0x34C3 JUMP JUMPDEST PUSH1 0x40 MLOAD DUP1 SWAP2 SUB SWAP1 REVERT JUMPDEST PUSH10 0xA968163F0A57B400000 DUP2 PUSH1 0xA SLOAD PUSH2 0x246F SWAP2 SWAP1 PUSH2 0x350E JUMP JUMPDEST GT ISZERO PUSH2 0x24B0 JUMPI PUSH1 0x40 MLOAD PUSH32 0x8C379A000000000000000000000000000000000000000000000000000000000 DUP2 MSTORE PUSH1 0x4 ADD PUSH2 0x24A7 SWAP1 PUSH2 0x3CF6 JUMP JUMPDEST PUSH1 0x40 MLOAD DUP1 SWAP2 SUB SWAP1 REVERT JUMPDEST DUP1 PUSH1 0xA PUSH0 DUP3 DUP3 SLOAD PUSH2 0x24C1 SWAP2 SWAP1 PUSH2 0x350E JUMP JUMPDEST SWAP3 POP POP DUP2 SWAP1 SSTORE POP PUSH2 0x24D2 DUP3 DUP3 PUSH2 0x25C4 JUMP JUMPDEST DUP2 PUSH20 0xFFFFFFFFFFFFFFFFFFFFFFFFFFFFFFFFFFFFFFFF AND PUSH32 0xEF1585CD9743B170E77A247F0C35CD842DBB8B59CB1981BECBC26F7EC1A7FC56 DUP3 PUSH1 0x40 MLOAD PUSH2 0x2518 SWAP2 SWAP1 PUSH2 0x2CD9 JUMP JUMPDEST PUSH1 0x40 MLOAD DUP1 SWAP2 SUB SWAP1 LOG2 POP POP JUMP JUMPDEST PUSH2 0x252C PUSH2 0x25AB JUMP JUMPDEST PUSH20 0xFFFFFFFFFFFFFFFFFFFFFFFFFFFFFFFFFFFFFFFF AND PUSH2 0x254A PUSH2 0x1896 JUMP JUMPDEST PUSH20 0xFFFFFFFFFFFFFFFFFFFFFFFFFFFFFFFFFFFFFFFF AND EQ PUSH2 0x25A9 JUMPI PUSH2 0x256D PUSH2 0x25AB JUMP JUMPDEST PUSH1 0x40 MLOAD PUSH32 0x118CDAA700000000000000000000000000000000000000000000000000000000 DUP2 MSTORE PUSH1 0x4 ADD PUSH2 0x25A0 SWAP2 SWAP1 PUSH2 0x30BC JUMP JUMPDEST PUSH1 0x40 MLOAD DUP1 SWAP2 SUB SWAP1 REVERT JUMPDEST JUMP JUMPDEST PUSH0 CALLER SWAP1 POP SWAP1 JUMP JUMPDEST PUSH2 0x25BF DUP4 DUP4 DUP4 PUSH1 0x1 PUSH2 0x28D9 JUMP JUMPDEST POP POP POP JUMP JUMPDEST PUSH0 PUSH20 0xFFFFFFFFFFFFFFFFFFFFFFFFFFFFFFFFFFFFFFFF AND DUP3 PUSH20 0xFFFFFFFFFFFFFFFFFFFFFFFFFFFFFFFFFFFFFFFF AND SUB PUSH2 0x2634 JUMPI PUSH0 PUSH1 0x40 MLOAD PUSH32 0xEC442F0500000000000000000000000000000000000000000000000000000000 DUP2 MSTORE PUSH1 0x4 ADD PUSH2 0x262B SWAP2 SWAP1 PUSH2 0x30BC JUMP JUMPDEST PUSH1 0x40 MLOAD DUP1 SWAP2 SUB SWAP1 REVERT JUMPDEST PUSH2 0x263F PUSH0 DUP4 DUP4 PUSH2 0x2AA8 JUMP JUMPDEST POP POP JUMP JUMPDEST PUSH0 PUSH2 0x264E DUP5 DUP5 PUSH2 0x2215 JUMP JUMPDEST SWAP1 POP PUSH32 0xFFFFFFFFFFFFFFFFFFFFFFFFFFFFFFFFFFFFFFFFFFFFFFFFFFFFFFFFFFFFFFFF DUP2 LT ISZERO PUSH2 0x26D0 JUMPI DUP2 DUP2 LT ISZERO PUSH2 0x26C1 JUMPI DUP3 DUP2 DUP4 PUSH1 0x40 MLOAD PUSH32 0xFB8F41B200000000000000000000000000000000000000000000000000000000 DUP2 MSTORE PUSH1 0x4 ADD PUSH2 0x26B8 SWAP4 SWAP3 SWAP2 SWAP1 PUSH2 0x3D14 JUMP JUMPDEST PUSH1 0x40 MLOAD DUP1 SWAP2 SUB SWAP1 REVERT JUMPDEST PUSH2 0x26CF DUP5 DUP5 DUP5 DUP5 SUB PUSH0 PUSH2 0x28D9 JUMP JUMPDEST JUMPDEST POP POP POP POP JUMP JUMPDEST PUSH0 PUSH20 0xFFFFFFFFFFFFFFFFFFFFFFFFFFFFFFFFFFFFFFFF AND DUP4 PUSH20 0xFFFFFFFFFFFFFFFFFFFFFFFFFFFFFFFFFFFFFFFF AND SUB PUSH2 0x2746 JUMPI PUSH0 PUSH1 0x40 MLOAD PUSH32 0x96C6FD1E00000000000000000000000000000000000000000000000000000000 DUP2 MSTORE PUSH1 0x4 ADD PUSH2 0x273D SWAP2 SWAP1 PUSH2 0x30BC JUMP JUMPDEST PUSH1 0x40 MLOAD DUP1 SWAP2 SUB SWAP1 REVERT JUMPDEST PUSH0 PUSH20 0xFFFFFFFFFFFFFFFFFFFFFFFFFFFFFFFFFFFFFFFF AND DUP3 PUSH20 0xFFFFFFFFFFFFFFFFFFFFFFFFFFFFFFFFFFFFFFFF AND SUB PUSH2 0x27B6 JUMPI PUSH0 PUSH1 0x40 MLOAD PUSH32 0xEC442F0500000000000000000000000000000000000000000000000000000000 DUP2 MSTORE PUSH1 0x4 ADD PUSH2 0x27AD SWAP2 SWAP1 PUSH2 0x30BC JUMP JUMPDEST PUSH1 0x40 MLOAD DUP1 SWAP2 SUB SWAP1 REVERT JUMPDEST PUSH2 0x27C1 DUP4 DUP4 DUP4 PUSH2 0x2AA8 JUMP JUMPDEST POP POP POP JUMP JUMPDEST PUSH1 0x2 PUSH1 0x6 SLOAD SUB PUSH2 0x2802 JUMPI PUSH1 0x40 MLOAD PUSH32 0x3EE5AEB500000000000000000000000000000000000000000000000000000000 DUP2 MSTORE PUSH1 0x4 ADD PUSH1 0x40 MLOAD DUP1 SWAP2 SUB SWAP1 REVERT JUMPDEST PUSH1 0x2 PUSH1 0x6 DUP2 SWAP1 SSTORE POP JUMP JUMPDEST PUSH1 0x1 PUSH1 0x6 DUP2 SWAP1 SSTORE POP JUMP JUMPDEST PUSH0 PUSH1 0x5 PUSH0 SWAP1 SLOAD SWAP1 PUSH2 0x100 EXP SWAP1 DIV PUSH20 0xFFFFFFFFFFFFFFFFFFFFFFFFFFFFFFFFFFFFFFFF AND SWAP1 POP DUP2 PUSH1 0x5 PUSH0 PUSH2 0x100 EXP DUP2 SLOAD DUP2 PUSH20 0xFFFFFFFFFFFFFFFFFFFFFFFFFFFFFFFFFFFFFFFF MUL NOT AND SWAP1 DUP4 PUSH20 0xFFFFFFFFFFFFFFFFFFFFFFFFFFFFFFFFFFFFFFFF AND MUL OR SWAP1 SSTORE POP DUP2 PUSH20 0xFFFFFFFFFFFFFFFFFFFFFFFFFFFFFFFFFFFFFFFF AND DUP2 PUSH20 0xFFFFFFFFFFFFFFFFFFFFFFFFFFFFFFFFFFFFFFFF AND PUSH32 0x8BE0079C531659141344CD1FD0A4F28419497F9722A3DAAFE3B4186F6B6457E0 PUSH1 0x40 MLOAD PUSH1 0x40 MLOAD DUP1 SWAP2 SUB SWAP1 LOG3 POP POP JUMP JUMPDEST PUSH0 PUSH20 0xFFFFFFFFFFFFFFFFFFFFFFFFFFFFFFFFFFFFFFFF AND DUP5 PUSH20 0xFFFFFFFFFFFFFFFFFFFFFFFFFFFFFFFFFFFFFFFF AND SUB PUSH2 0x2949 JUMPI PUSH0 PUSH1 0x40 MLOAD PUSH32 0xE602DF0500000000000000000000000000000000000000000000000000000000 DUP2 MSTORE PUSH1 0x4 ADD PUSH2 0x2940 SWAP2 SWAP1 PUSH2 0x30BC JUMP JUMPDEST PUSH1 0x40 MLOAD DUP1 SWAP2 SUB SWAP1 REVERT JUMPDEST PUSH0 PUSH20 0xFFFFFFFFFFFFFFFFFFFFFFFFFFFFFFFFFFFFFFFF AND DUP4 PUSH20 0xFFFFFFFFFFFFFFFFFFFFFFFFFFFFFFFFFFFFFFFF AND SUB PUSH2 0x29B9 JUMPI PUSH0 PUSH1 0x40 MLOAD PUSH32 0x94280D6200000000000000000000000000000000000000000000000000000000 DUP2 MSTORE PUSH1 0x4 ADD PUSH2 0x29B0 SWAP2 SWAP1 PUSH2 0x30BC JUMP JUMPDEST PUSH1 0x40 MLOAD DUP1 SWAP2 SUB SWAP1 REVERT JUMPDEST DUP2 PUSH1 0x1 PUSH0 DUP7 PUSH20 0xFFFFFFFFFFFFFFFFFFFFFFFFFFFFFFFFFFFFFFFF AND PUSH20 0xFFFFFFFFFFFFFFFFFFFFFFFFFFFFFFFFFFFFFFFF AND DUP2 MSTORE PUSH1 0x20 ADD SWAP1 DUP2 MSTORE PUSH1 0x20 ADD PUSH0 KECCAK256 PUSH0 DUP6 PUSH20 0xFFFFFFFFFFFFFFFFFFFFFFFFFFFFFFFFFFFFFFFF AND PUSH20 0xFFFFFFFFFFFFFFFFFFFFFFFFFFFFFFFFFFFFFFFF AND DUP2 MSTORE PUSH1 0x20 ADD SWAP1 DUP2 MSTORE PUSH1 0x20 ADD PUSH0 KECCAK256 DUP2 SWAP1 SSTORE POP DUP1 ISZERO PUSH2 0x2AA2 JUMPI DUP3 PUSH20 0xFFFFFFFFFFFFFFFFFFFFFFFFFFFFFFFFFFFFFFFF AND DUP5 PUSH20 0xFFFFFFFFFFFFFFFFFFFFFFFFFFFFFFFFFFFFFFFF AND PUSH32 0x8C5BE1E5EBEC7D5BD14F71427D1E84F3DD0314C0F7B2291E5B200AC8C7C3B925 DUP5 PUSH1 0x40 MLOAD PUSH2 0x2A99 SWAP2 SWAP1 PUSH2 0x2CD9 JUMP JUMPDEST PUSH1 0x40 MLOAD DUP1 SWAP2 SUB SWAP1 LOG3 JUMPDEST POP POP POP POP JUMP JUMPDEST PUSH0 PUSH20 0xFFFFFFFFFFFFFFFFFFFFFFFFFFFFFFFFFFFFFFFF AND DUP4 PUSH20 0xFFFFFFFFFFFFFFFFFFFFFFFFFFFFFFFFFFFFFFFF AND SUB PUSH2 0x2AF8 JUMPI DUP1 PUSH1 0x2 PUSH0 DUP3 DUP3 SLOAD PUSH2 0x2AEC SWAP2 SWAP1 PUSH2 0x350E JUMP JUMPDEST SWAP3 POP POP DUP2 SWAP1 SSTORE POP PUSH2 0x2BC6 JUMP JUMPDEST PUSH0 DUP1 PUSH0 DUP6 PUSH20 0xFFFFFFFFFFFFFFFFFFFFFFFFFFFFFFFFFFFFFFFF AND PUSH20 0xFFFFFFFFFFFFFFFFFFFFFFFFFFFFFFFFFFFFFFFF AND DUP2 MSTORE PUSH1 0x20 ADD SWAP1 DUP2 MSTORE PUSH1 0x20 ADD PUSH0 KECCAK256 SLOAD SWAP1 POP DUP2 DUP2 LT ISZERO PUSH2 0x2B81 JUMPI DUP4 DUP2 DUP4 PUSH1 0x40 MLOAD PUSH32 0xE450D38C00000000000000000000000000000000000000000000000000000000 DUP2 MSTORE PUSH1 0x4 ADD PUSH2 0x2B78 SWAP4 SWAP3 SWAP2 SWAP1 PUSH2 0x3D14 JUMP JUMPDEST PUSH1 0x40 MLOAD DUP1 SWAP2 SUB SWAP1 REVERT JUMPDEST DUP2 DUP2 SUB PUSH0 DUP1 DUP7 PUSH20 0xFFFFFFFFFFFFFFFFFFFFFFFFFFFFFFFFFFFFFFFF AND PUSH20 0xFFFFFFFFFFFFFFFFFFFFFFFFFFFFFFFFFFFFFFFF AND DUP2 MSTORE PUSH1 0x20 ADD SWAP1 DUP2 MSTORE PUSH1 0x20 ADD PUSH0 KECCAK256 DUP2 SWAP1 SSTORE POP POP JUMPDEST PUSH0 PUSH20 0xFFFFFFFFFFFFFFFFFFFFFFFFFFFFFFFFFFFFFFFF AND DUP3 PUSH20 0xFFFFFFFFFFFFFFFFFFFFFFFFFFFFFFFFFFFFFFFF AND SUB PUSH2 0x2C0D JUMPI DUP1 PUSH1 0x2 PUSH0 DUP3 DUP3 SLOAD SUB SWAP3 POP POP DUP2 SWAP1 SSTORE POP PUSH2 0x2C57 JUMP JUMPDEST DUP1 PUSH0 DUP1 DUP5 PUSH20 0xFFFFFFFFFFFFFFFFFFFFFFFFFFFFFFFFFFFFFFFF AND PUSH20 0xFFFFFFFFFFFFFFFFFFFFFFFFFFFFFFFFFFFFFFFF AND DUP2 MSTORE PUSH1 0x20 ADD SWAP1 DUP2 MSTORE PUSH1 0x20 ADD PUSH0 KECCAK256 PUSH0 DUP3 DUP3 SLOAD ADD SWAP3 POP POP DUP2 SWAP1 SSTORE POP JUMPDEST DUP2 PUSH20 0xFFFFFFFFFFFFFFFFFFFFFFFFFFFFFFFFFFFFFFFF AND DUP4 PUSH20 0xFFFFFFFFFFFFFFFFFFFFFFFFFFFFFFFFFFFFFFFF AND PUSH32 0xDDF252AD1BE2C89B69C2B068FC378DAA952BA7F163C4A11628F55A4DF523B3EF DUP4 PUSH1 0x40 MLOAD PUSH2 0x2CB4 SWAP2 SWAP1 PUSH2 0x2CD9 JUMP JUMPDEST PUSH1 0x40 MLOAD DUP1 SWAP2 SUB SWAP1 LOG3 POP POP POP JUMP JUMPDEST PUSH0 DUP2 SWAP1 POP SWAP2 SWAP1 POP JUMP JUMPDEST PUSH2 0x2CD3 DUP2 PUSH2 0x2CC1 JUMP JUMPDEST DUP3 MSTORE POP POP JUMP JUMPDEST PUSH0 PUSH1 0x20 DUP3 ADD SWAP1 POP PUSH2 0x2CEC PUSH0 DUP4 ADD DUP5 PUSH2 0x2CCA JUMP JUMPDEST SWAP3 SWAP2 POP POP JUMP JUMPDEST PUSH0 DUP1 REVERT JUMPDEST PUSH0 PUSH20 0xFFFFFFFFFFFFFFFFFFFFFFFFFFFFFFFFFFFFFFFF DUP3 AND SWAP1 POP SWAP2 SWAP1 POP JUMP JUMPDEST PUSH0 PUSH2 0x2D1F DUP3 PUSH2 0x2CF6 JUMP JUMPDEST SWAP1 POP SWAP2 SWAP1 POP JUMP JUMPDEST PUSH2 0x2D2F DUP2 PUSH2 0x2D15 JUMP JUMPDEST DUP2 EQ PUSH2 0x2D39 JUMPI PUSH0 DUP1 REVERT JUMPDEST POP JUMP JUMPDEST PUSH0 DUP2 CALLDATALOAD SWAP1 POP PUSH2 0x2D4A DUP2 PUSH2 0x2D26 JUMP JUMPDEST SWAP3 SWAP2 POP POP JUMP JUMPDEST PUSH0 PUSH1 0xFF DUP3 AND SWAP1 POP SWAP2 SWAP1 POP JUMP JUMPDEST PUSH2 0x2D65 DUP2 PUSH2 0x2D50 JUMP JUMPDEST DUP2 EQ PUSH2 0x2D6F JUMPI PUSH0 DUP1 REVERT JUMPDEST POP JUMP JUMPDEST PUSH0 DUP2 CALLDATALOAD SWAP1 POP PUSH2 0x2D80 DUP2 PUSH2 0x2D5C JUMP JUMPDEST SWAP3 SWAP2 POP POP JUMP JUMPDEST PUSH0 DUP1 PUSH1 0x40 DUP4 DUP6 SUB SLT ISZERO PUSH2 0x2D9C JUMPI PUSH2 0x2D9B PUSH2 0x2CF2 JUMP JUMPDEST JUMPDEST PUSH0 PUSH2 0x2DA9 DUP6 DUP3 DUP7 ADD PUSH2 0x2D3C JUMP JUMPDEST SWAP3 POP POP PUSH1 0x20 PUSH2 0x2DBA DUP6 DUP3 DUP7 ADD PUSH2 0x2D72 JUMP JUMPDEST SWAP2 POP POP SWAP3 POP SWAP3 SWAP1 POP JUMP JUMPDEST PUSH0 DUP2 MLOAD SWAP1 POP SWAP2 SWAP1 POP JUMP JUMPDEST PUSH0 DUP3 DUP3 MSTORE PUSH1 0x20 DUP3 ADD SWAP1 POP SWAP3 SWAP2 POP POP JUMP JUMPDEST PUSH0 JUMPDEST DUP4 DUP2 LT ISZERO PUSH2 0x2DFB JUMPI DUP1 DUP3 ADD MLOAD DUP2 DUP5 ADD MSTORE PUSH1 0x20 DUP2 ADD SWAP1 POP PUSH2 0x2DE0 JUMP JUMPDEST PUSH0 DUP5 DUP5 ADD MSTORE POP POP POP POP JUMP JUMPDEST PUSH0 PUSH1 0x1F NOT PUSH1 0x1F DUP4 ADD AND SWAP1 POP SWAP2 SWAP1 POP JUMP JUMPDEST PUSH0 PUSH2 0x2E20 DUP3 PUSH2 0x2DC4 JUMP JUMPDEST PUSH2 0x2E2A DUP2 DUP6 PUSH2 0x2DCE JUMP JUMPDEST SWAP4 POP PUSH2 0x2E3A DUP2 DUP6 PUSH1 0x20 DUP7 ADD PUSH2 0x2DDE JUMP JUMPDEST PUSH2 0x2E43 DUP2 PUSH2 0x2E06 JUMP JUMPDEST DUP5 ADD SWAP2 POP POP SWAP3 SWAP2 POP POP JUMP JUMPDEST PUSH0 PUSH1 0x20 DUP3 ADD SWAP1 POP DUP2 DUP2 SUB PUSH0 DUP4 ADD MSTORE PUSH2 0x2E66 DUP2 DUP5 PUSH2 0x2E16 JUMP JUMPDEST SWAP1 POP SWAP3 SWAP2 POP POP JUMP JUMPDEST PUSH2 0x2E77 DUP2 PUSH2 0x2CC1 JUMP JUMPDEST DUP2 EQ PUSH2 0x2E81 JUMPI PUSH0 DUP1 REVERT JUMPDEST POP JUMP JUMPDEST PUSH0 DUP2 CALLDATALOAD SWAP1 POP PUSH2 0x2E92 DUP2 PUSH2 0x2E6E JUMP JUMPDEST SWAP3 SWAP2 POP POP JUMP JUMPDEST PUSH0 DUP1 PUSH1 0x40 DUP4 DUP6 SUB SLT ISZERO PUSH2 0x2EAE JUMPI PUSH2 0x2EAD PUSH2 0x2CF2 JUMP JUMPDEST JUMPDEST PUSH0 PUSH2 0x2EBB DUP6 DUP3 DUP7 ADD PUSH2 0x2D3C JUMP JUMPDEST SWAP3 POP POP PUSH1 0x20 PUSH2 0x2ECC DUP6 DUP3 DUP7 ADD PUSH2 0x2E84 JUMP JUMPDEST SWAP2 POP POP SWAP3 POP SWAP3 SWAP1 POP JUMP JUMPDEST PUSH0 DUP2 ISZERO ISZERO SWAP1 POP SWAP2 SWAP1 POP JUMP JUMPDEST PUSH2 0x2EEA DUP2 PUSH2 0x2ED6 JUMP JUMPDEST DUP3 MSTORE POP POP JUMP JUMPDEST PUSH0 PUSH1 0x20 DUP3 ADD SWAP1 POP PUSH2 0x2F03 PUSH0 DUP4 ADD DUP5 PUSH2 0x2EE1 JUMP JUMPDEST SWAP3 SWAP2 POP POP JUMP JUMPDEST PUSH0 DUP1 PUSH0 PUSH1 0x60 DUP5 DUP7 SUB SLT ISZERO PUSH2 0x2F20 JUMPI PUSH2 0x2F1F PUSH2 0x2CF2 JUMP JUMPDEST JUMPDEST PUSH0 PUSH2 0x2F2D DUP7 DUP3 DUP8 ADD PUSH2 0x2D3C JUMP JUMPDEST SWAP4 POP POP PUSH1 0x20 PUSH2 0x2F3E DUP7 DUP3 DUP8 ADD PUSH2 0x2D3C JUMP JUMPDEST SWAP3 POP POP PUSH1 0x40 PUSH2 0x2F4F DUP7 DUP3 DUP8 ADD PUSH2 0x2E84 JUMP JUMPDEST SWAP2 POP POP SWAP3 POP SWAP3 POP SWAP3 JUMP JUMPDEST PUSH2 0x2F62 DUP2 PUSH2 0x2D50 JUMP JUMPDEST DUP3 MSTORE POP POP JUMP JUMPDEST PUSH0 PUSH1 0x20 DUP3 ADD SWAP1 POP PUSH2 0x2F7B PUSH0 DUP4 ADD DUP5 PUSH2 0x2F59 JUMP JUMPDEST SWAP3 SWAP2 POP POP JUMP JUMPDEST PUSH0 PUSH1 0x20 DUP3 DUP5 SUB SLT ISZERO PUSH2 0x2F96 JUMPI PUSH2 0x2F95 PUSH2 0x2CF2 JUMP JUMPDEST JUMPDEST PUSH0 PUSH2 0x2FA3 DUP5 DUP3 DUP6 ADD PUSH2 0x2D3C JUMP JUMPDEST SWAP2 POP POP SWAP3 SWAP2 POP POP JUMP JUMPDEST PUSH0 DUP1 PUSH1 0x40 DUP4 DUP6 SUB SLT ISZERO PUSH2 0x2FC2 JUMPI PUSH2 0x2FC1 PUSH2 0x2CF2 JUMP JUMPDEST JUMPDEST PUSH0 PUSH2 0x2FCF DUP6 DUP3 DUP7 ADD PUSH2 0x2E84 JUMP JUMPDEST SWAP3 POP POP PUSH1 0x20 PUSH2 0x2FE0 DUP6 DUP3 DUP7 ADD PUSH2 0x2D3C JUMP JUMPDEST SWAP2 POP POP SWAP3 POP SWAP3 SWAP1 POP JUMP JUMPDEST PUSH0 PUSH1 0x80 DUP3 ADD SWAP1 POP PUSH2 0x2FFD PUSH0 DUP4 ADD DUP8 PUSH2 0x2CCA JUMP JUMPDEST PUSH2 0x300A PUSH1 0x20 DUP4 ADD DUP7 PUSH2 0x2CCA JUMP JUMPDEST PUSH2 0x3017 PUSH1 0x40 DUP4 ADD DUP6 PUSH2 0x2CCA JUMP JUMPDEST PUSH2 0x3024 PUSH1 0x60 DUP4 ADD DUP5 PUSH2 0x2CCA JUMP JUMPDEST SWAP6 SWAP5 POP POP POP POP POP JUMP JUMPDEST PUSH0 PUSH1 0x20 DUP3 DUP5 SUB SLT ISZERO PUSH2 0x3042 JUMPI PUSH2 0x3041 PUSH2 0x2CF2 JUMP JUMPDEST JUMPDEST PUSH0 PUSH2 0x304F DUP5 DUP3 DUP6 ADD PUSH2 0x2E84 JUMP JUMPDEST SWAP2 POP POP SWAP3 SWAP2 POP POP JUMP JUMPDEST PUSH2 0x3061 DUP2 PUSH2 0x2ED6 JUMP JUMPDEST DUP2 EQ PUSH2 0x306B JUMPI PUSH0 DUP1 REVERT JUMPDEST POP JUMP JUMPDEST PUSH0 DUP2 CALLDATALOAD SWAP1 POP PUSH2 0x307C DUP2 PUSH2 0x3058 JUMP JUMPDEST SWAP3 SWAP2 POP POP JUMP JUMPDEST PUSH0 PUSH1 0x20 DUP3 DUP5 SUB SLT ISZERO PUSH2 0x3097 JUMPI PUSH2 0x3096 PUSH2 0x2CF2 JUMP JUMPDEST JUMPDEST PUSH0 PUSH2 0x30A4 DUP5 DUP3 DUP6 ADD PUSH2 0x306E JUMP JUMPDEST SWAP2 POP POP SWAP3 SWAP2 POP POP JUMP JUMPDEST PUSH2 0x30B6 DUP2 PUSH2 0x2D15 JUMP JUMPDEST DUP3 MSTORE POP POP JUMP JUMPDEST PUSH0 PUSH1 0x20 DUP3 ADD SWAP1 POP PUSH2 0x30CF PUSH0 DUP4 ADD DUP5 PUSH2 0x30AD JUMP JUMPDEST SWAP3 SWAP2 POP POP JUMP JUMPDEST PUSH0 PUSH1 0xA0 DUP3 ADD SWAP1 POP PUSH2 0x30E8 PUSH0 DUP4 ADD DUP9 PUSH2 0x2CCA JUMP JUMPDEST PUSH2 0x30F5 PUSH1 0x20 DUP4 ADD DUP8 PUSH2 0x2CCA JUMP JUMPDEST PUSH2 0x3102 PUSH1 0x40 DUP4 ADD DUP7 PUSH2 0x2CCA JUMP JUMPDEST PUSH2 0x310F PUSH1 0x60 DUP4 ADD DUP6 PUSH2 0x2CCA JUMP JUMPDEST PUSH2 0x311C PUSH1 0x80 DUP4 ADD DUP5 PUSH2 0x2CCA JUMP JUMPDEST SWAP7 SWAP6 POP POP POP POP POP POP JUMP JUMPDEST PUSH0 DUP1 PUSH0 DUP1 PUSH1 0x80 DUP6 DUP8 SUB SLT ISZERO PUSH2 0x313E JUMPI PUSH2 0x313D PUSH2 0x2CF2 JUMP JUMPDEST JUMPDEST PUSH0 PUSH2 0x314B DUP8 DUP3 DUP9 ADD PUSH2 0x2D3C JUMP JUMPDEST SWAP5 POP POP PUSH1 0x20 PUSH2 0x315C DUP8 DUP3 DUP9 ADD PUSH2 0x2E84 JUMP JUMPDEST SWAP4 POP POP PUSH1 0x40 PUSH2 0x316D DUP8 DUP3 DUP9 ADD PUSH2 0x2D3C JUMP JUMPDEST SWAP3 POP POP PUSH1 0x60 PUSH2 0x317E DUP8 DUP3 DUP9 ADD PUSH2 0x2E84 JUMP JUMPDEST SWAP2 POP POP SWAP3 SWAP6 SWAP2 SWAP5 POP SWAP3 POP JUMP JUMPDEST PUSH0 DUP1 PUSH1 0x40 DUP4 DUP6 SUB SLT ISZERO PUSH2 0x31A0 JUMPI PUSH2 0x319F PUSH2 0x2CF2 JUMP JUMPDEST JUMPDEST PUSH0 PUSH2 0x31AD DUP6 DUP3 DUP7 ADD PUSH2 0x2D3C JUMP JUMPDEST SWAP3 POP POP PUSH1 0x20 PUSH2 0x31BE DUP6 DUP3 DUP7 ADD PUSH2 0x2D3C JUMP JUMPDEST SWAP2 POP POP SWAP3 POP SWAP3 SWAP1 POP JUMP JUMPDEST PUSH0 PUSH1 0x40 DUP3 ADD SWAP1 POP PUSH2 0x31DB PUSH0 DUP4 ADD DUP6 PUSH2 0x2CCA JUMP JUMPDEST PUSH2 0x31E8 PUSH1 0x20 DUP4 ADD DUP5 PUSH2 0x2CCA JUMP JUMPDEST SWAP4 SWAP3 POP POP POP JUMP JUMPDEST PUSH32 0x496E76616C696420746F6B656E20616464726573730000000000000000000000 PUSH0 DUP3 ADD MSTORE POP JUMP JUMPDEST PUSH0 PUSH2 0x3223 PUSH1 0x15 DUP4 PUSH2 0x2DCE JUMP JUMPDEST SWAP2 POP PUSH2 0x322E DUP3 PUSH2 0x31EF JUMP JUMPDEST PUSH1 0x20 DUP3 ADD SWAP1 POP SWAP2 SWAP1 POP JUMP JUMPDEST PUSH0 PUSH1 0x20 DUP3 ADD SWAP1 POP DUP2 DUP2 SUB PUSH0 DUP4 ADD MSTORE PUSH2 0x3250 DUP2 PUSH2 0x3217 JUMP JUMPDEST SWAP1 POP SWAP2 SWAP1 POP JUMP JUMPDEST PUSH0 PUSH1 0x40 DUP3 ADD SWAP1 POP PUSH2 0x326A PUSH0 DUP4 ADD DUP6 PUSH2 0x30AD JUMP JUMPDEST PUSH2 0x3277 PUSH1 0x20 DUP4 ADD DUP5 PUSH2 0x2F59 JUMP JUMPDEST SWAP4 SWAP3 POP POP POP JUMP JUMPDEST PUSH32 0x4E487B7100000000000000000000000000000000000000000000000000000000 PUSH0 MSTORE PUSH1 0x22 PUSH1 0x4 MSTORE PUSH1 0x24 PUSH0 REVERT JUMPDEST PUSH0 PUSH1 0x2 DUP3 DIV SWAP1 POP PUSH1 0x1 DUP3 AND DUP1 PUSH2 0x32C2 JUMPI PUSH1 0x7F DUP3 AND SWAP2 POP JUMPDEST PUSH1 0x20 DUP3 LT DUP2 SUB PUSH2 0x32D5 JUMPI PUSH2 0x32D4 PUSH2 0x327E JUMP JUMPDEST JUMPDEST POP SWAP2 SWAP1 POP JUMP JUMPDEST PUSH32 0x496E76616C696420746F6B656E00000000000000000000000000000000000000 PUSH0 DUP3 ADD MSTORE POP JUMP JUMPDEST PUSH0 PUSH2 0x330F PUSH1 0xD DUP4 PUSH2 0x2DCE JUMP JUMPDEST SWAP2 POP PUSH2 0x331A DUP3 PUSH2 0x32DB JUMP JUMPDEST PUSH1 0x20 DUP3 ADD SWAP1 POP SWAP2 SWAP1 POP JUMP JUMPDEST PUSH0 PUSH1 0x20 DUP3 ADD SWAP1 POP DUP2 DUP2 SUB PUSH0 DUP4 ADD MSTORE PUSH2 0x333C DUP2 PUSH2 0x3303 JUMP JUMPDEST SWAP1 POP SWAP2 SWAP1 POP JUMP JUMPDEST PUSH0 PUSH1 0x40 DUP3 ADD SWAP1 POP PUSH2 0x3356 PUSH0 DUP4 ADD DUP6 PUSH2 0x30AD JUMP JUMPDEST PUSH2 0x3363 PUSH1 0x20 DUP4 ADD DUP5 PUSH2 0x2CCA JUMP JUMPDEST SWAP4 SWAP3 POP POP POP JUMP JUMPDEST PUSH0 DUP2 MLOAD SWAP1 POP PUSH2 0x3378 DUP2 PUSH2 0x3058 JUMP JUMPDEST SWAP3 SWAP2 POP POP JUMP JUMPDEST PUSH0 PUSH1 0x20 DUP3 DUP5 SUB SLT ISZERO PUSH2 0x3393 JUMPI PUSH2 0x3392 PUSH2 0x2CF2 JUMP JUMPDEST JUMPDEST PUSH0 PUSH2 0x33A0 DUP5 DUP3 DUP6 ADD PUSH2 0x336A JUMP JUMPDEST SWAP2 POP POP SWAP3 SWAP2 POP POP JUMP JUMPDEST PUSH32 0x5472616E73666572206661696C65640000000000000000000000000000000000 PUSH0 DUP3 ADD MSTORE POP JUMP JUMPDEST PUSH0 PUSH2 0x33DD PUSH1 0xF DUP4 PUSH2 0x2DCE JUMP JUMPDEST SWAP2 POP PUSH2 0x33E8 DUP3 PUSH2 0x33A9 JUMP JUMPDEST PUSH1 0x20 DUP3 ADD SWAP1 POP SWAP2 SWAP1 POP JUMP JUMPDEST PUSH0 PUSH1 0x20 DUP3 ADD SWAP1 POP DUP2 DUP2 SUB PUSH0 DUP4 ADD MSTORE PUSH2 0x340A DUP2 PUSH2 0x33D1 JUMP JUMPDEST SWAP1 POP SWAP2 SWAP1 POP JUMP JUMPDEST PUSH32 0x4D696E74696E672064697361626C656400000000000000000000000000000000 PUSH0 DUP3 ADD MSTORE POP JUMP JUMPDEST PUSH0 PUSH2 0x3445 PUSH1 0x10 DUP4 PUSH2 0x2DCE JUMP JUMPDEST SWAP2 POP PUSH2 0x3450 DUP3 PUSH2 0x3411 JUMP JUMPDEST PUSH1 0x20 DUP3 ADD SWAP1 POP SWAP2 SWAP1 POP JUMP JUMPDEST PUSH0 PUSH1 0x20 DUP3 ADD SWAP1 POP DUP2 DUP2 SUB PUSH0 DUP4 ADD MSTORE PUSH2 0x3472 DUP2 PUSH2 0x3439 JUMP JUMPDEST SWAP1 POP SWAP2 SWAP1 POP JUMP JUMPDEST PUSH32 0x416D6F756E74206D757374206265203E20300000000000000000000000000000 PUSH0 DUP3 ADD MSTORE POP JUMP JUMPDEST PUSH0 PUSH2 0x34AD PUSH1 0x12 DUP4 PUSH2 0x2DCE JUMP JUMPDEST SWAP2 POP PUSH2 0x34B8 DUP3 PUSH2 0x3479 JUMP JUMPDEST PUSH1 0x20 DUP3 ADD SWAP1 POP SWAP2 SWAP1 POP JUMP JUMPDEST PUSH0 PUSH1 0x20 DUP3 ADD SWAP1 POP DUP2 DUP2 SUB PUSH0 DUP4 ADD MSTORE PUSH2 0x34DA DUP2 PUSH2 0x34A1 JUMP JUMPDEST SWAP1 POP SWAP2 SWAP1 POP JUMP JUMPDEST PUSH32 0x4E487B7100000000000000000000000000000000000000000000000000000000 PUSH0 MSTORE PUSH1 0x11 PUSH1 0x4 MSTORE PUSH1 0x24 PUSH0 REVERT JUMPDEST PUSH0 PUSH2 0x3518 DUP3 PUSH2 0x2CC1 JUMP JUMPDEST SWAP2 POP PUSH2 0x3523 DUP4 PUSH2 0x2CC1 JUMP JUMPDEST SWAP3 POP DUP3 DUP3 ADD SWAP1 POP DUP1 DUP3 GT ISZERO PUSH2 0x353B JUMPI PUSH2 0x353A PUSH2 0x34E1 JUMP JUMPDEST JUMPDEST SWAP3 SWAP2 POP POP JUMP JUMPDEST PUSH32 0x45786365656473206C697175696469747920616C6C6F636174696F6E00000000 PUSH0 DUP3 ADD MSTORE POP JUMP JUMPDEST PUSH0 PUSH2 0x3575 PUSH1 0x1C DUP4 PUSH2 0x2DCE JUMP JUMPDEST SWAP2 POP PUSH2 0x3580 DUP3 PUSH2 0x3541 JUMP JUMPDEST PUSH1 0x20 DUP3 ADD SWAP1 POP SWAP2 SWAP1 POP JUMP JUMPDEST PUSH0 PUSH1 0x20 DUP3 ADD SWAP1 POP DUP2 DUP2 SUB PUSH0 DUP4 ADD MSTORE PUSH2 0x35A2 DUP2 PUSH2 0x3569 JUMP JUMPDEST SWAP1 POP SWAP2 SWAP1 POP JUMP JUMPDEST PUSH32 0x45786365656473204241594320616C6C6F636174696F6E000000000000000000 PUSH0 DUP3 ADD MSTORE POP JUMP JUMPDEST PUSH0 PUSH2 0x35DD PUSH1 0x17 DUP4 PUSH2 0x2DCE JUMP JUMPDEST SWAP2 POP PUSH2 0x35E8 DUP3 PUSH2 0x35A9 JUMP JUMPDEST PUSH1 0x20 DUP3 ADD SWAP1 POP SWAP2 SWAP1 POP JUMP JUMPDEST PUSH0 PUSH1 0x20 DUP3 ADD SWAP1 POP DUP2 DUP2 SUB PUSH0 DUP4 ADD MSTORE PUSH2 0x360A DUP2 PUSH2 0x35D1 JUMP JUMPDEST SWAP1 POP SWAP2 SWAP1 POP JUMP JUMPDEST PUSH32 0x5075626C69632073616C652064697361626C6564000000000000000000000000 PUSH0 DUP3 ADD MSTORE POP JUMP JUMPDEST PUSH0 PUSH2 0x3645 PUSH1 0x14 DUP4 PUSH2 0x2DCE JUMP JUMPDEST SWAP2 POP PUSH2 0x3650 DUP3 PUSH2 0x3611 JUMP JUMPDEST PUSH1 0x20 DUP3 ADD SWAP1 POP SWAP2 SWAP1 POP JUMP JUMPDEST PUSH0 PUSH1 0x20 DUP3 ADD SWAP1 POP DUP2 DUP2 SUB PUSH0 DUP4 ADD MSTORE PUSH2 0x3672 DUP2 PUSH2 0x3639 JUMP JUMPDEST SWAP1 POP SWAP2 SWAP1 POP JUMP JUMPDEST PUSH32 0x5061796D656E7420746F6B656E206E6F74206163636570746564000000000000 PUSH0 DUP3 ADD MSTORE POP JUMP JUMPDEST PUSH0 PUSH2 0x36AD PUSH1 0x1A DUP4 PUSH2 0x2DCE JUMP JUMPDEST SWAP2 POP PUSH2 0x36B8 DUP3 PUSH2 0x3679 JUMP JUMPDEST PUSH1 0x20 DUP3 ADD SWAP1 POP SWAP2 SWAP1 POP JUMP JUMPDEST PUSH0 PUSH1 0x20 DUP3 ADD SWAP1 POP DUP2 DUP2 SUB PUSH0 DUP4 ADD MSTORE PUSH2 0x36DA DUP2 PUSH2 0x36A1 JUMP JUMPDEST SWAP1 POP SWAP2 SWAP1 POP JUMP JUMPDEST PUSH32 0x4D696E203120746F6B656E000000000000000000000000000000000000000000 PUSH0 DUP3 ADD MSTORE POP JUMP JUMPDEST PUSH0 PUSH2 0x3715 PUSH1 0xB DUP4 PUSH2 0x2DCE JUMP JUMPDEST SWAP2 POP PUSH2 0x3720 DUP3 PUSH2 0x36E1 JUMP JUMPDEST PUSH1 0x20 DUP3 ADD SWAP1 POP SWAP2 SWAP1 POP JUMP JUMPDEST PUSH0 PUSH1 0x20 DUP3 ADD SWAP1 POP DUP2 DUP2 SUB PUSH0 DUP4 ADD MSTORE PUSH2 0x3742 DUP2 PUSH2 0x3709 JUMP JUMPDEST SWAP1 POP SWAP2 SWAP1 POP JUMP JUMPDEST PUSH32 0x4D61782031302C30303020746F6B656E73207065722070757263686173650000 PUSH0 DUP3 ADD MSTORE POP JUMP JUMPDEST PUSH0 PUSH2 0x377D PUSH1 0x1E DUP4 PUSH2 0x2DCE JUMP JUMPDEST SWAP2 POP PUSH2 0x3788 DUP3 PUSH2 0x3749 JUMP JUMPDEST PUSH1 0x20 DUP3 ADD SWAP1 POP SWAP2 SWAP1 POP JUMP JUMPDEST PUSH0 PUSH1 0x20 DUP3 ADD SWAP1 POP DUP2 DUP2 SUB PUSH0 DUP4 ADD MSTORE PUSH2 0x37AA DUP2 PUSH2 0x3771 JUMP JUMPDEST SWAP1 POP SWAP2 SWAP1 POP JUMP JUMPDEST PUSH32 0x45786365656473207075626C6963206D696E7420616C6C6F636174696F6E0000 PUSH0 DUP3 ADD MSTORE POP JUMP JUMPDEST PUSH0 PUSH2 0x37E5 PUSH1 0x1E DUP4 PUSH2 0x2DCE JUMP JUMPDEST SWAP2 POP PUSH2 0x37F0 DUP3 PUSH2 0x37B1 JUMP JUMPDEST PUSH1 0x20 DUP3 ADD SWAP1 POP SWAP2 SWAP1 POP JUMP JUMPDEST PUSH0 PUSH1 0x20 DUP3 ADD SWAP1 POP DUP2 DUP2 SUB PUSH0 DUP4 ADD MSTORE PUSH2 0x3812 DUP2 PUSH2 0x37D9 JUMP JUMPDEST SWAP1 POP SWAP2 SWAP1 POP JUMP JUMPDEST PUSH0 PUSH2 0x3823 DUP3 PUSH2 0x2CC1 JUMP JUMPDEST SWAP2 POP PUSH2 0x382E DUP4 PUSH2 0x2CC1 JUMP JUMPDEST SWAP3 POP DUP3 DUP3 MUL PUSH2 0x383C DUP2 PUSH2 0x2CC1 JUMP JUMPDEST SWAP2 POP DUP3 DUP3 DIV DUP5 EQ DUP4 ISZERO OR PUSH2 0x3853 JUMPI PUSH2 0x3852 PUSH2 0x34E1 JUMP JUMPDEST JUMPDEST POP SWAP3 SWAP2 POP POP JUMP JUMPDEST PUSH32 0x4E487B7100000000000000000000000000000000000000000000000000000000 PUSH0 MSTORE PUSH1 0x12 PUSH1 0x4 MSTORE PUSH1 0x24 PUSH0 REVERT JUMPDEST PUSH0 PUSH2 0x3891 DUP3 PUSH2 0x2CC1 JUMP JUMPDEST SWAP2 POP PUSH2 0x389C DUP4 PUSH2 0x2CC1 JUMP JUMPDEST SWAP3 POP DUP3 PUSH2 0x38AC JUMPI PUSH2 0x38AB PUSH2 0x385A JUMP JUMPDEST JUMPDEST DUP3 DUP3 DIV SWAP1 POP SWAP3 SWAP2 POP POP JUMP JUMPDEST PUSH0 DUP2 PUSH1 0x1 SHR SWAP1 POP SWAP2 SWAP1 POP JUMP JUMPDEST PUSH0 DUP1 DUP3 SWAP2 POP DUP4 SWAP1 POP JUMPDEST PUSH1 0x1 DUP6 GT ISZERO PUSH2 0x390C JUMPI DUP1 DUP7 DIV DUP2 GT ISZERO PUSH2 0x38E8 JUMPI PUSH2 0x38E7 PUSH2 0x34E1 JUMP JUMPDEST JUMPDEST PUSH1 0x1 DUP6 AND ISZERO PUSH2 0x38F7 JUMPI DUP1 DUP3 MUL SWAP2 POP JUMPDEST DUP1 DUP2 MUL SWAP1 POP PUSH2 0x3905 DUP6 PUSH2 0x38B7 JUMP JUMPDEST SWAP5 POP PUSH2 0x38CC JUMP JUMPDEST SWAP5 POP SWAP5 SWAP3 POP POP POP JUMP JUMPDEST PUSH0 DUP3 PUSH2 0x3924 JUMPI PUSH1 0x1 SWAP1 POP PUSH2 0x39DF JUMP JUMPDEST DUP2 PUSH2 0x3931 JUMPI PUSH0 SWAP1 POP PUSH2 0x39DF JUMP JUMPDEST DUP2 PUSH1 0x1 DUP2 EQ PUSH2 0x3947 JUMPI PUSH1 0x2 DUP2 EQ PUSH2 0x3951 JUMPI PUSH2 0x3980 JUMP JUMPDEST PUSH1 0x1 SWAP2 POP POP PUSH2 0x39DF JUMP JUMPDEST PUSH1 0xFF DUP5 GT ISZERO PUSH2 0x3963 JUMPI PUSH2 0x3962 PUSH2 0x34E1 JUMP JUMPDEST JUMPDEST DUP4 PUSH1 0x2 EXP SWAP2 POP DUP5 DUP3 GT ISZERO PUSH2 0x397A JUMPI PUSH2 0x3979 PUSH2 0x34E1 JUMP JUMPDEST JUMPDEST POP PUSH2 0x39DF JUMP JUMPDEST POP PUSH1 0x20 DUP4 LT PUSH2 0x133 DUP4 LT AND PUSH1 0x4E DUP5 LT PUSH1 0xB DUP5 LT AND OR ISZERO PUSH2 0x39B5 JUMPI DUP3 DUP3 EXP SWAP1 POP DUP4 DUP2 GT ISZERO PUSH2 0x39B0 JUMPI PUSH2 0x39AF PUSH2 0x34E1 JUMP JUMPDEST JUMPDEST PUSH2 0x39DF JUMP JUMPDEST PUSH2 0x39C2 DUP5 DUP5 DUP5 PUSH1 0x1 PUSH2 0x38C3 JUMP JUMPDEST SWAP3 POP SWAP1 POP DUP2 DUP5 DIV DUP2 GT ISZERO PUSH2 0x39D9 JUMPI PUSH2 0x39D8 PUSH2 0x34E1 JUMP JUMPDEST JUMPDEST DUP2 DUP2 MUL SWAP1 POP JUMPDEST SWAP4 SWAP3 POP POP POP JUMP JUMPDEST PUSH0 PUSH2 0x39F0 DUP3 PUSH2 0x2CC1 JUMP JUMPDEST SWAP2 POP PUSH2 0x39FB DUP4 PUSH2 0x2D50 JUMP JUMPDEST SWAP3 POP PUSH2 0x3A28 PUSH32 0xFFFFFFFFFFFFFFFFFFFFFFFFFFFFFFFFFFFFFFFFFFFFFFFFFFFFFFFFFFFFFFFF DUP5 DUP5 PUSH2 0x3915 JUMP JUMPDEST SWAP1 POP SWAP3 SWAP2 POP POP JUMP JUMPDEST PUSH0 PUSH1 0x60 DUP3 ADD SWAP1 POP PUSH2 0x3A43 PUSH0 DUP4 ADD DUP7 PUSH2 0x30AD JUMP JUMPDEST PUSH2 0x3A50 PUSH1 0x20 DUP4 ADD DUP6 PUSH2 0x30AD JUMP JUMPDEST PUSH2 0x3A5D PUSH1 0x40 DUP4 ADD DUP5 PUSH2 0x2CCA JUMP JUMPDEST SWAP5 SWAP4 POP POP POP POP JUMP JUMPDEST PUSH32 0x5061796D656E74207472616E73666572206661696C6564000000000000000000 PUSH0 DUP3 ADD MSTORE POP JUMP JUMPDEST PUSH0 PUSH2 0x3A99 PUSH1 0x17 DUP4 PUSH2 0x2DCE JUMP JUMPDEST SWAP2 POP PUSH2 0x3AA4 DUP3 PUSH2 0x3A65 JUMP JUMPDEST PUSH1 0x20 DUP3 ADD SWAP1 POP SWAP2 SWAP1 POP JUMP JUMPDEST PUSH0 PUSH1 0x20 DUP3 ADD SWAP1 POP DUP2 DUP2 SUB PUSH0 DUP4 ADD MSTORE PUSH2 0x3AC6 DUP2 PUSH2 0x3A8D JUMP JUMPDEST SWAP1 POP SWAP2 SWAP1 POP JUMP JUMPDEST PUSH0 PUSH1 0x60 DUP3 ADD SWAP1 POP PUSH2 0x3AE0 PUSH0 DUP4 ADD DUP7 PUSH2 0x2CCA JUMP JUMPDEST PUSH2 0x3AED PUSH1 0x20 DUP4 ADD DUP6 PUSH2 0x30AD JUMP JUMPDEST PUSH2 0x3AFA PUSH1 0x40 DUP4 ADD DUP5 PUSH2 0x2CCA JUMP JUMPDEST SWAP5 SWAP4 POP POP POP POP JUMP JUMPDEST PUSH0 PUSH2 0x3B0C DUP3 PUSH2 0x2CC1 JUMP JUMPDEST SWAP2 POP PUSH2 0x3B17 DUP4 PUSH2 0x2CC1 JUMP JUMPDEST SWAP3 POP DUP3 DUP3 SUB SWAP1 POP DUP2 DUP2 GT ISZERO PUSH2 0x3B2F JUMPI PUSH2 0x3B2E PUSH2 0x34E1 JUMP JUMPDEST JUMPDEST SWAP3 SWAP2 POP POP JUMP JUMPDEST PUSH32 0x5072696365206D757374206265203E2030000000000000000000000000000000 PUSH0 DUP3 ADD MSTORE POP JUMP JUMPDEST PUSH0 PUSH2 0x3B69 PUSH1 0x11 DUP4 PUSH2 0x2DCE JUMP JUMPDEST SWAP2 POP PUSH2 0x3B74 DUP3 PUSH2 0x3B35 JUMP JUMPDEST PUSH1 0x20 DUP3 ADD SWAP1 POP SWAP2 SWAP1 POP JUMP JUMPDEST PUSH0 PUSH1 0x20 DUP3 ADD SWAP1 POP DUP2 DUP2 SUB PUSH0 DUP4 ADD MSTORE PUSH2 0x3B96 DUP2 PUSH2 0x3B5D JUMP JUMPDEST SWAP1 POP SWAP2 SWAP1 POP JUMP JUMPDEST PUSH0 DUP2 MLOAD SWAP1 POP PUSH2 0x3BAB DUP2 PUSH2 0x2E6E JUMP JUMPDEST SWAP3 SWAP2 POP POP JUMP JUMPDEST PUSH0 PUSH1 0x20 DUP3 DUP5 SUB SLT ISZERO PUSH2 0x3BC6 JUMPI PUSH2 0x3BC5 PUSH2 0x2CF2 JUMP JUMPDEST JUMPDEST PUSH0 PUSH2 0x3BD3 DUP5 DUP3 DUP6 ADD PUSH2 0x3B9D JUMP JUMPDEST SWAP2 POP POP SWAP3 SWAP2 POP POP JUMP JUMPDEST PUSH32 0x496E76616C696420627579657220616464726573730000000000000000000000 PUSH0 DUP3 ADD MSTORE POP JUMP JUMPDEST PUSH0 PUSH2 0x3C10 PUSH1 0x15 DUP4 PUSH2 0x2DCE JUMP JUMPDEST SWAP2 POP PUSH2 0x3C1B DUP3 PUSH2 0x3BDC JUMP JUMPDEST PUSH1 0x20 DUP3 ADD SWAP1 POP SWAP2 SWAP1 POP JUMP JUMPDEST PUSH0 PUSH1 0x20 DUP3 ADD SWAP1 POP DUP2 DUP2 SUB PUSH0 DUP4 ADD MSTORE PUSH2 0x3C3D DUP2 PUSH2 0x3C04 JUMP JUMPDEST SWAP1 POP SWAP2 SWAP1 POP JUMP JUMPDEST PUSH32 0x496E73756666696369656E74207061796D656E7420616D6F756E740000000000 PUSH0 DUP3 ADD MSTORE POP JUMP JUMPDEST PUSH0 PUSH2 0x3C78 PUSH1 0x1B DUP4 PUSH2 0x2DCE JUMP JUMPDEST SWAP2 POP PUSH2 0x3C83 DUP3 PUSH2 0x3C44 JUMP JUMPDEST PUSH1 0x20 DUP3 ADD SWAP1 POP SWAP2 SWAP1 POP JUMP JUMPDEST PUSH0 PUSH1 0x20 DUP3 ADD SWAP1 POP DUP2 DUP2 SUB PUSH0 DUP4 ADD MSTORE PUSH2 0x3CA5 DUP2 PUSH2 0x3C6C JUMP JUMPDEST SWAP1 POP SWAP2 SWAP1 POP JUMP JUMPDEST PUSH32 0x457863656564732061697264726F7020616C6C6F636174696F6E000000000000 PUSH0 DUP3 ADD MSTORE POP JUMP JUMPDEST PUSH0 PUSH2 0x3CE0 PUSH1 0x1A DUP4 PUSH2 0x2DCE JUMP JUMPDEST SWAP2 POP PUSH2 0x3CEB DUP3 PUSH2 0x3CAC JUMP JUMPDEST PUSH1 0x20 DUP3 ADD SWAP1 POP SWAP2 SWAP1 POP JUMP JUMPDEST PUSH0 PUSH1 0x20 DUP3 ADD SWAP1 POP DUP2 DUP2 SUB PUSH0 DUP4 ADD MSTORE PUSH2 0x3D0D DUP2 PUSH2 0x3CD4 JUMP JUMPDEST SWAP1 POP SWAP2 SWAP1 POP JUMP JUMPDEST PUSH0 PUSH1 0x60 DUP3 ADD SWAP1 POP PUSH2 0x3D27 PUSH0 DUP4 ADD DUP7 PUSH2 0x30AD JUMP JUMPDEST PUSH2 0x3D34 PUSH1 0x20 DUP4 ADD DUP6 PUSH2 0x2CCA JUMP JUMPDEST PUSH2 0x3D41 PUSH1 0x40 DUP4 ADD DUP5 PUSH2 0x2CCA JUMP JUMPDEST SWAP5 SWAP4 POP POP POP POP JUMP INVALID LOG2 PUSH5 0x6970667358 0x22 SLT KECCAK256 CALLCODE 0xE1 0xF6 0x1E PUSH18 0x2C63A368BD992ABFE56882048F64E480E406 0xE6 LT 0x21 ADDMOD 0x2B CREATE 0xD5 0xD5 DIV PUSH5 0x736F6C6343 STOP ADDMOD XOR STOP CALLER "
		},
		"gasEstimates": {
			"creation": {
				"codeDepositCost": "3148600",
				"executionCost": "infinite",
				"totalCost": "infinite"
			},
			"external": {
				"AIRDROP_ALLOCATION()": "458",
				"BAYC_ALLOCATION()": "372",
				"LIQUIDITY_ALLOCATION()": "457",
				"MINT_ALLOCATION()": "413",
				"TOTAL_SUPPLY()": "481",
				"USDC()": "441",
				"USDT()": "462",
				"acceptedTokens(address)": "2988",
				"addPaymentToken(address,uint8)": "infinite",
				"airdropMinted()": "2536",
				"allowance(address,address)": "infinite",
				"approve(address,uint256)": "infinite",
				"balanceOf(address)": "2896",
				"baycMinted()": "2581",
				"calculatePayment(uint256,address)": "infinite",
				"decimals()": "472",
				"disableMinting()": "infinite",
				"emergencyWithdraw(address)": "infinite",
				"getDistributionStatus()": "infinite",
				"getRemainingAllocations()": "infinite",
				"getUserPurchaseInfo(address)": "infinite",
				"isPaymentTokenAccepted(address)": "3025",
				"liquidityMinted()": "2537",
				"mintAirdrop(address,uint256)": "infinite",
				"mintBayc(address,uint256)": "infinite",
				"mintLiquidity(address,uint256)": "infinite",
				"mintingEnabled()": "2533",
				"name()": "infinite",
				"owner()": "2605",
				"publicMinted()": "2536",
				"publicSaleEnabled()": "2629",
				"purchaseTokens(uint256,address)": "infinite",
				"purchaseTokensGasless(address,uint256,address,uint256)": "infinite",
				"removePaymentToken(address)": "infinite",
				"renounceOwnership()": "infinite",
				"setPublicSaleEnabled(bool)": "infinite",
				"setTokenPrice(uint256)": "infinite",
				"symbol()": "infinite",
				"tokenDecimals(address)": "2967",
				"tokenPrice()": "2558",
				"totalPaid(address)": "2848",
				"totalPurchased(address)": "2892",
				"totalSupply()": "2478",
				"transfer(address,uint256)": "infinite",
				"transferFrom(address,address,uint256)": "infinite",
				"transferOwnership(address)": "infinite",
				"withdrawPayments(address,uint256)": "infinite"
			}
		},
		"methodIdentifiers": {
			"AIRDROP_ALLOCATION()": "cb4b4ff9",
			"BAYC_ALLOCATION()": "0057c4e2",
			"LIQUIDITY_ALLOCATION()": "f9428f38",
			"MINT_ALLOCATION()": "ee4ce2e2",
			"TOTAL_SUPPLY()": "902d55a5",
			"USDC()": "89a30271",
			"USDT()": "c54e44eb",
			"acceptedTokens(address)": "82dc4a05",
			"addPaymentToken(address,uint8)": "04aa3ba4",
			"airdropMinted()": "c98d2309",
			"allowance(address,address)": "dd62ed3e",
			"approve(address,uint256)": "095ea7b3",
			"balanceOf(address)": "70a08231",
			"baycMinted()": "33d4f97c",
			"calculatePayment(uint256,address)": "b06bea90",
			"decimals()": "313ce567",
			"disableMinting()": "7e5cd5c1",
			"emergencyWithdraw(address)": "6ff1c9bc",
			"getDistributionStatus()": "a1b140b6",
			"getRemainingAllocations()": "5adca659",
			"getUserPurchaseInfo(address)": "e6801ac7",
			"isPaymentTokenAccepted(address)": "d6462bb9",
			"liquidityMinted()": "8eab0751",
			"mintAirdrop(address,uint256)": "fdd7c402",
			"mintBayc(address,uint256)": "3ff82a06",
			"mintLiquidity(address,uint256)": "1ead92cc",
			"mintingEnabled()": "9fd6db12",
			"name()": "06fdde03",
			"owner()": "8da5cb5b",
			"publicMinted()": "a4f4f8af",
			"publicSaleEnabled()": "2ab91bba",
			"purchaseTokens(uint256,address)": "504cceac",
			"purchaseTokensGasless(address,uint256,address,uint256)": "aa15833e",
			"removePaymentToken(address)": "a5125421",
			"renounceOwnership()": "715018a6",
			"setPublicSaleEnabled(bool)": "8720fbef",
			"setTokenPrice(uint256)": "6a61e5fc",
			"symbol()": "95d89b41",
			"tokenDecimals(address)": "8ee573ac",
			"tokenPrice()": "7ff9b596",
			"totalPaid(address)": "3dd6d533",
			"totalPurchased(address)": "497aef28",
			"totalSupply()": "18160ddd",
			"transfer(address,uint256)": "a9059cbb",
			"transferFrom(address,address,uint256)": "23b872dd",
			"transferOwnership(address)": "f2fde38b",
			"withdrawPayments(address,uint256)": "0e7afec5"
		}
	},
	"abi": [
		{
			"inputs": [],
			"stateMutability": "nonpayable",
			"type": "constructor"
		},
		{
			"inputs": [
				{
					"internalType": "address",
					"name": "spender",
					"type": "address"
				},
				{
					"internalType": "uint256",
					"name": "allowance",
					"type": "uint256"
				},
				{
					"internalType": "uint256",
					"name": "needed",
					"type": "uint256"
				}
			],
			"name": "ERC20InsufficientAllowance",
			"type": "error"
		},
		{
			"inputs": [
				{
					"internalType": "address",
					"name": "sender",
					"type": "address"
				},
				{
					"internalType": "uint256",
					"name": "balance",
					"type": "uint256"
				},
				{
					"internalType": "uint256",
					"name": "needed",
					"type": "uint256"
				}
			],
			"name": "ERC20InsufficientBalance",
			"type": "error"
		},
		{
			"inputs": [
				{
					"internalType": "address",
					"name": "approver",
					"type": "address"
				}
			],
			"name": "ERC20InvalidApprover",
			"type": "error"
		},
		{
			"inputs": [
				{
					"internalType": "address",
					"name": "receiver",
					"type": "address"
				}
			],
			"name": "ERC20InvalidReceiver",
			"type": "error"
		},
		{
			"inputs": [
				{
					"internalType": "address",
					"name": "sender",
					"type": "address"
				}
			],
			"name": "ERC20InvalidSender",
			"type": "error"
		},
		{
			"inputs": [
				{
					"internalType": "address",
					"name": "spender",
					"type": "address"
				}
			],
			"name": "ERC20InvalidSpender",
			"type": "error"
		},
		{
			"inputs": [
				{
					"internalType": "address",
					"name": "owner",
					"type": "address"
				}
			],
			"name": "OwnableInvalidOwner",
			"type": "error"
		},
		{
			"inputs": [
				{
					"internalType": "address",
					"name": "account",
					"type": "address"
				}
			],
			"name": "OwnableUnauthorizedAccount",
			"type": "error"
		},
		{
			"inputs": [],
			"name": "ReentrancyGuardReentrantCall",
			"type": "error"
		},
		{
			"anonymous": false,
			"inputs": [
				{
					"indexed": true,
					"internalType": "address",
					"name": "to",
					"type": "address"
				},
				{
					"indexed": false,
					"internalType": "uint256",
					"name": "amount",
					"type": "uint256"
				}
			],
			"name": "AirdropMinted",
			"type": "event"
		},
		{
			"anonymous": false,
			"inputs": [
				{
					"indexed": true,
					"internalType": "address",
					"name": "owner",
					"type": "address"
				},
				{
					"indexed": true,
					"internalType": "address",
					"name": "spender",
					"type": "address"
				},
				{
					"indexed": false,
					"internalType": "uint256",
					"name": "value",
					"type": "uint256"
				}
			],
			"name": "Approval",
			"type": "event"
		},
		{
			"anonymous": false,
			"inputs": [
				{
					"indexed": true,
					"internalType": "address",
					"name": "to",
					"type": "address"
				},
				{
					"indexed": false,
					"internalType": "uint256",
					"name": "amount",
					"type": "uint256"
				}
			],
			"name": "BaycMinted",
			"type": "event"
		},
		{
			"anonymous": false,
			"inputs": [
				{
					"indexed": true,
					"internalType": "address",
					"name": "to",
					"type": "address"
				},
				{
					"indexed": false,
					"internalType": "uint256",
					"name": "amount",
					"type": "uint256"
				}
			],
			"name": "LiquidityMinted",
			"type": "event"
		},
		{
			"anonymous": false,
			"inputs": [],
			"name": "MintingDisabled",
			"type": "event"
		},
		{
			"anonymous": false,
			"inputs": [
				{
					"indexed": true,
					"internalType": "address",
					"name": "previousOwner",
					"type": "address"
				},
				{
					"indexed": true,
					"internalType": "address",
					"name": "newOwner",
					"type": "address"
				}
			],
			"name": "OwnershipTransferred",
			"type": "event"
		},
		{
			"anonymous": false,
			"inputs": [
				{
					"indexed": false,
					"internalType": "address",
					"name": "token",
					"type": "address"
				},
				{
					"indexed": false,
					"internalType": "uint8",
					"name": "decimals",
					"type": "uint8"
				}
			],
			"name": "PaymentTokenAdded",
			"type": "event"
		},
		{
			"anonymous": false,
			"inputs": [
				{
					"indexed": false,
					"internalType": "address",
					"name": "token",
					"type": "address"
				}
			],
			"name": "PaymentTokenRemoved",
			"type": "event"
		},
		{
			"anonymous": false,
			"inputs": [
				{
					"indexed": false,
					"internalType": "uint256",
					"name": "newPrice",
					"type": "uint256"
				}
			],
			"name": "PriceUpdated",
			"type": "event"
		},
		{
			"anonymous": false,
			"inputs": [
				{
					"indexed": true,
					"internalType": "address",
					"name": "to",
					"type": "address"
				},
				{
					"indexed": false,
					"internalType": "uint256",
					"name": "amount",
					"type": "uint256"
				}
			],
			"name": "PublicMinted",
			"type": "event"
		},
		{
			"anonymous": false,
			"inputs": [],
			"name": "PublicSaleDisabled",
			"type": "event"
		},
		{
			"anonymous": false,
			"inputs": [
				{
					"indexed": true,
					"internalType": "address",
					"name": "buyer",
					"type": "address"
				},
				{
					"indexed": false,
					"internalType": "uint256",
					"name": "tokenAmount",
					"type": "uint256"
				},
				{
					"indexed": false,
					"internalType": "address",
					"name": "paymentToken",
					"type": "address"
				},
				{
					"indexed": false,
					"internalType": "uint256",
					"name": "paymentAmount",
					"type": "uint256"
				}
			],
			"name": "TokensPurchased",
			"type": "event"
		},
		{
			"anonymous": false,
			"inputs": [
				{
					"indexed": true,
					"internalType": "address",
					"name": "from",
					"type": "address"
				},
				{
					"indexed": true,
					"internalType": "address",
					"name": "to",
					"type": "address"
				},
				{
					"indexed": false,
					"internalType": "uint256",
					"name": "value",
					"type": "uint256"
				}
			],
			"name": "Transfer",
			"type": "event"
		},
		{
			"inputs": [],
			"name": "AIRDROP_ALLOCATION",
			"outputs": [
				{
					"internalType": "uint256",
					"name": "",
					"type": "uint256"
				}
			],
			"stateMutability": "view",
			"type": "function"
		},
		{
			"inputs": [],
			"name": "BAYC_ALLOCATION",
			"outputs": [
				{
					"internalType": "uint256",
					"name": "",
					"type": "uint256"
				}
			],
			"stateMutability": "view",
			"type": "function"
		},
		{
			"inputs": [],
			"name": "LIQUIDITY_ALLOCATION",
			"outputs": [
				{
					"internalType": "uint256",
					"name": "",
					"type": "uint256"
				}
			],
			"stateMutability": "view",
			"type": "function"
		},
		{
			"inputs": [],
			"name": "MINT_ALLOCATION",
			"outputs": [
				{
					"internalType": "uint256",
					"name": "",
					"type": "uint256"
				}
			],
			"stateMutability": "view",
			"type": "function"
		},
		{
			"inputs": [],
			"name": "TOTAL_SUPPLY",
			"outputs": [
				{
					"internalType": "uint256",
					"name": "",
					"type": "uint256"
				}
			],
			"stateMutability": "view",
			"type": "function"
		},
		{
			"inputs": [],
			"name": "USDC",
			"outputs": [
				{
					"internalType": "address",
					"name": "",
					"type": "address"
				}
			],
			"stateMutability": "view",
			"type": "function"
		},
		{
			"inputs": [],
			"name": "USDT",
			"outputs": [
				{
					"internalType": "address",
					"name": "",
					"type": "address"
				}
			],
			"stateMutability": "view",
			"type": "function"
		},
		{
			"inputs": [
				{
					"internalType": "address",
					"name": "",
					"type": "address"
				}
			],
			"name": "acceptedTokens",
			"outputs": [
				{
					"internalType": "bool",
					"name": "",
					"type": "bool"
				}
			],
			"stateMutability": "view",
			"type": "function"
		},
		{
			"inputs": [
				{
					"internalType": "address",
					"name": "token",
					"type": "address"
				},
				{
					"internalType": "uint8",
					"name": "decimals",
					"type": "uint8"
				}
			],
			"name": "addPaymentToken",
			"outputs": [],
			"stateMutability": "nonpayable",
			"type": "function"
		},
		{
			"inputs": [],
			"name": "airdropMinted",
			"outputs": [
				{
					"internalType": "uint256",
					"name": "",
					"type": "uint256"
				}
			],
			"stateMutability": "view",
			"type": "function"
		},
		{
			"inputs": [
				{
					"internalType": "address",
					"name": "owner",
					"type": "address"
				},
				{
					"internalType": "address",
					"name": "spender",
					"type": "address"
				}
			],
			"name": "allowance",
			"outputs": [
				{
					"internalType": "uint256",
					"name": "",
					"type": "uint256"
				}
			],
			"stateMutability": "view",
			"type": "function"
		},
		{
			"inputs": [
				{
					"internalType": "address",
					"name": "spender",
					"type": "address"
				},
				{
					"internalType": "uint256",
					"name": "value",
					"type": "uint256"
				}
			],
			"name": "approve",
			"outputs": [
				{
					"internalType": "bool",
					"name": "",
					"type": "bool"
				}
			],
			"stateMutability": "nonpayable",
			"type": "function"
		},
		{
			"inputs": [
				{
					"internalType": "address",
					"name": "account",
					"type": "address"
				}
			],
			"name": "balanceOf",
			"outputs": [
				{
					"internalType": "uint256",
					"name": "",
					"type": "uint256"
				}
			],
			"stateMutability": "view",
			"type": "function"
		},
		{
			"inputs": [],
			"name": "baycMinted",
			"outputs": [
				{
					"internalType": "uint256",
					"name": "",
					"type": "uint256"
				}
			],
			"stateMutability": "view",
			"type": "function"
		},
		{
			"inputs": [
				{
					"internalType": "uint256",
					"name": "tokenAmount",
					"type": "uint256"
				},
				{
					"internalType": "address",
					"name": "paymentToken",
					"type": "address"
				}
			],
			"name": "calculatePayment",
			"outputs": [
				{
					"internalType": "uint256",
					"name": "",
					"type": "uint256"
				}
			],
			"stateMutability": "view",
			"type": "function"
		},
		{
			"inputs": [],
			"name": "decimals",
			"outputs": [
				{
					"internalType": "uint8",
					"name": "",
					"type": "uint8"
				}
			],
			"stateMutability": "view",
			"type": "function"
		},
		{
			"inputs": [],
			"name": "disableMinting",
			"outputs": [],
			"stateMutability": "nonpayable",
			"type": "function"
		},
		{
			"inputs": [
				{
					"internalType": "address",
					"name": "token",
					"type": "address"
				}
			],
			"name": "emergencyWithdraw",
			"outputs": [],
			"stateMutability": "nonpayable",
			"type": "function"
		},
		{
			"inputs": [],
			"name": "getDistributionStatus",
			"outputs": [
				{
					"internalType": "uint256",
					"name": "totalMinted_",
					"type": "uint256"
				},
				{
					"internalType": "uint256",
					"name": "airdropProgress",
					"type": "uint256"
				},
				{
					"internalType": "uint256",
					"name": "baycProgress",
					"type": "uint256"
				},
				{
					"internalType": "uint256",
					"name": "liquidityProgress",
					"type": "uint256"
				},
				{
					"internalType": "uint256",
					"name": "publicProgress",
					"type": "uint256"
				}
			],
			"stateMutability": "view",
			"type": "function"
		},
		{
			"inputs": [],
			"name": "getRemainingAllocations",
			"outputs": [
				{
					"internalType": "uint256",
					"name": "airdropRemaining",
					"type": "uint256"
				},
				{
					"internalType": "uint256",
					"name": "baycRemaining",
					"type": "uint256"
				},
				{
					"internalType": "uint256",
					"name": "liquidityRemaining",
					"type": "uint256"
				},
				{
					"internalType": "uint256",
					"name": "publicRemaining",
					"type": "uint256"
				}
			],
			"stateMutability": "view",
			"type": "function"
		},
		{
			"inputs": [
				{
					"internalType": "address",
					"name": "user",
					"type": "address"
				}
			],
			"name": "getUserPurchaseInfo",
			"outputs": [
				{
					"internalType": "uint256",
					"name": "totalTokensPurchased",
					"type": "uint256"
				},
				{
					"internalType": "uint256",
					"name": "totalAmountPaid",
					"type": "uint256"
				}
			],
			"stateMutability": "view",
			"type": "function"
		},
		{
			"inputs": [
				{
					"internalType": "address",
					"name": "token",
					"type": "address"
				}
			],
			"name": "isPaymentTokenAccepted",
			"outputs": [
				{
					"internalType": "bool",
					"name": "",
					"type": "bool"
				}
			],
			"stateMutability": "view",
			"type": "function"
		},
		{
			"inputs": [],
			"name": "liquidityMinted",
			"outputs": [
				{
					"internalType": "uint256",
					"name": "",
					"type": "uint256"
				}
			],
			"stateMutability": "view",
			"type": "function"
		},
		{
			"inputs": [
				{
					"internalType": "address",
					"name": "to",
					"type": "address"
				},
				{
					"internalType": "uint256",
					"name": "amount",
					"type": "uint256"
				}
			],
			"name": "mintAirdrop",
			"outputs": [],
			"stateMutability": "nonpayable",
			"type": "function"
		},
		{
			"inputs": [
				{
					"internalType": "address",
					"name": "to",
					"type": "address"
				},
				{
					"internalType": "uint256",
					"name": "amount",
					"type": "uint256"
				}
			],
			"name": "mintBayc",
			"outputs": [],
			"stateMutability": "nonpayable",
			"type": "function"
		},
		{
			"inputs": [
				{
					"internalType": "address",
					"name": "to",
					"type": "address"
				},
				{
					"internalType": "uint256",
					"name": "amount",
					"type": "uint256"
				}
			],
			"name": "mintLiquidity",
			"outputs": [],
			"stateMutability": "nonpayable",
			"type": "function"
		},
		{
			"inputs": [],
			"name": "mintingEnabled",
			"outputs": [
				{
					"internalType": "bool",
					"name": "",
					"type": "bool"
				}
			],
			"stateMutability": "view",
			"type": "function"
		},
		{
			"inputs": [],
			"name": "name",
			"outputs": [
				{
					"internalType": "string",
					"name": "",
					"type": "string"
				}
			],
			"stateMutability": "view",
			"type": "function"
		},
		{
			"inputs": [],
			"name": "owner",
			"outputs": [
				{
					"internalType": "address",
					"name": "",
					"type": "address"
				}
			],
			"stateMutability": "view",
			"type": "function"
		},
		{
			"inputs": [],
			"name": "publicMinted",
			"outputs": [
				{
					"internalType": "uint256",
					"name": "",
					"type": "uint256"
				}
			],
			"stateMutability": "view",
			"type": "function"
		},
		{
			"inputs": [],
			"name": "publicSaleEnabled",
			"outputs": [
				{
					"internalType": "bool",
					"name": "",
					"type": "bool"
				}
			],
			"stateMutability": "view",
			"type": "function"
		},
		{
			"inputs": [
				{
					"internalType": "uint256",
					"name": "tokenAmount",
					"type": "uint256"
				},
				{
					"internalType": "address",
					"name": "paymentToken",
					"type": "address"
				}
			],
			"name": "purchaseTokens",
			"outputs": [],
			"stateMutability": "nonpayable",
			"type": "function"
		},
		{
			"inputs": [
				{
					"internalType": "address",
					"name": "buyer",
					"type": "address"
				},
				{
					"internalType": "uint256",
					"name": "tokenAmount",
					"type": "uint256"
				},
				{
					"internalType": "address",
					"name": "paymentToken",
					"type": "address"
				},
				{
					"internalType": "uint256",
					"name": "paymentAmount",
					"type": "uint256"
				}
			],
			"name": "purchaseTokensGasless",
			"outputs": [],
			"stateMutability": "nonpayable",
			"type": "function"
		},
		{
			"inputs": [
				{
					"internalType": "address",
					"name": "token",
					"type": "address"
				}
			],
			"name": "removePaymentToken",
			"outputs": [],
			"stateMutability": "nonpayable",
			"type": "function"
		},
		{
			"inputs": [],
			"name": "renounceOwnership",
			"outputs": [],
			"stateMutability": "nonpayable",
			"type": "function"
		},
		{
			"inputs": [
				{
					"internalType": "bool",
					"name": "enabled",
					"type": "bool"
				}
			],
			"name": "setPublicSaleEnabled",
			"outputs": [],
			"stateMutability": "nonpayable",
			"type": "function"
		},
		{
			"inputs": [
				{
					"internalType": "uint256",
					"name": "newPrice",
					"type": "uint256"
				}
			],
			"name": "setTokenPrice",
			"outputs": [],
			"stateMutability": "nonpayable",
			"type": "function"
		},
		{
			"inputs": [],
			"name": "symbol",
			"outputs": [
				{
					"internalType": "string",
					"name": "",
					"type": "string"
				}
			],
			"stateMutability": "view",
			"type": "function"
		},
		{
			"inputs": [
				{
					"internalType": "address",
					"name": "",
					"type": "address"
				}
			],
			"name": "tokenDecimals",
			"outputs": [
				{
					"internalType": "uint8",
					"name": "",
					"type": "uint8"
				}
			],
			"stateMutability": "view",
			"type": "function"
		},
		{
			"inputs": [],
			"name": "tokenPrice",
			"outputs": [
				{
					"internalType": "uint256",
					"name": "",
					"type": "uint256"
				}
			],
			"stateMutability": "view",
			"type": "function"
		},
		{
			"inputs": [
				{
					"internalType": "address",
					"name": "",
					"type": "address"
				}
			],
			"name": "totalPaid",
			"outputs": [
				{
					"internalType": "uint256",
					"name": "",
					"type": "uint256"
				}
			],
			"stateMutability": "view",
			"type": "function"
		},
		{
			"inputs": [
				{
					"internalType": "address",
					"name": "",
					"type": "address"
				}
			],
			"name": "totalPurchased",
			"outputs": [
				{
					"internalType": "uint256",
					"name": "",
					"type": "uint256"
				}
			],
			"stateMutability": "view",
			"type": "function"
		},
		{
			"inputs": [],
			"name": "totalSupply",
			"outputs": [
				{
					"internalType": "uint256",
					"name": "",
					"type": "uint256"
				}
			],
			"stateMutability": "view",
			"type": "function"
		},
		{
			"inputs": [
				{
					"internalType": "address",
					"name": "to",
					"type": "address"
				},
				{
					"internalType": "uint256",
					"name": "value",
					"type": "uint256"
				}
			],
			"name": "transfer",
			"outputs": [
				{
					"internalType": "bool",
					"name": "",
					"type": "bool"
				}
			],
			"stateMutability": "nonpayable",
			"type": "function"
		},
		{
			"inputs": [
				{
					"internalType": "address",
					"name": "from",
					"type": "address"
				},
				{
					"internalType": "address",
					"name": "to",
					"type": "address"
				},
				{
					"internalType": "uint256",
					"name": "value",
					"type": "uint256"
				}
			],
			"name": "transferFrom",
			"outputs": [
				{
					"internalType": "bool",
					"name": "",
					"type": "bool"
				}
			],
			"stateMutability": "nonpayable",
			"type": "function"
		},
		{
			"inputs": [
				{
					"internalType": "address",
					"name": "newOwner",
					"type": "address"
				}
			],
			"name": "transferOwnership",
			"outputs": [],
			"stateMutability": "nonpayable",
			"type": "function"
		},
		{
			"inputs": [
				{
					"internalType": "address",
					"name": "token",
					"type": "address"
				},
				{
					"internalType": "uint256",
					"name": "amount",
					"type": "uint256"
				}
			],
			"name": "withdrawPayments",
			"outputs": [],
			"stateMutability": "nonpayable",
			"type": "function"
		}
	]
}